{
  "contractName": "NFCool",
  "abi": [
    {
      "inputs": [
        {
          "internalType": "string",
          "name": "_brandName",
          "type": "string"
        }
      ],
      "stateMutability": "nonpayable",
      "type": "constructor"
    },
    {
      "anonymous": false,
      "inputs": [
        {
          "indexed": true,
          "internalType": "address",
          "name": "account",
          "type": "address"
        },
        {
          "indexed": true,
          "internalType": "address",
          "name": "operator",
          "type": "address"
        },
        {
          "indexed": false,
          "internalType": "bool",
          "name": "approved",
          "type": "bool"
        }
      ],
      "name": "ApprovalForAll",
      "type": "event"
    },
    {
      "anonymous": false,
      "inputs": [
        {
          "indexed": true,
          "internalType": "uint256",
          "name": "tokenId",
          "type": "uint256"
        },
        {
          "indexed": false,
          "internalType": "uint256",
          "name": "unitId",
          "type": "uint256"
        },
        {
          "indexed": true,
          "internalType": "address",
          "name": "to",
          "type": "address"
        },
        {
          "indexed": false,
          "internalType": "bool",
          "name": "valid",
          "type": "bool"
        }
      ],
      "name": "OwnershipPermissionGave",
      "type": "event"
    },
    {
      "anonymous": false,
      "inputs": [
        {
          "indexed": true,
          "internalType": "bytes32",
          "name": "role",
          "type": "bytes32"
        },
        {
          "indexed": true,
          "internalType": "bytes32",
          "name": "previousAdminRole",
          "type": "bytes32"
        },
        {
          "indexed": true,
          "internalType": "bytes32",
          "name": "newAdminRole",
          "type": "bytes32"
        }
      ],
      "name": "RoleAdminChanged",
      "type": "event"
    },
    {
      "anonymous": false,
      "inputs": [
        {
          "indexed": true,
          "internalType": "bytes32",
          "name": "role",
          "type": "bytes32"
        },
        {
          "indexed": true,
          "internalType": "address",
          "name": "account",
          "type": "address"
        },
        {
          "indexed": true,
          "internalType": "address",
          "name": "sender",
          "type": "address"
        }
      ],
      "name": "RoleGranted",
      "type": "event"
    },
    {
      "anonymous": false,
      "inputs": [
        {
          "indexed": true,
          "internalType": "bytes32",
          "name": "role",
          "type": "bytes32"
        },
        {
          "indexed": true,
          "internalType": "address",
          "name": "account",
          "type": "address"
        },
        {
          "indexed": true,
          "internalType": "address",
          "name": "sender",
          "type": "address"
        }
      ],
      "name": "RoleRevoked",
      "type": "event"
    },
    {
      "anonymous": false,
      "inputs": [
        {
          "indexed": false,
          "internalType": "uint256",
          "name": "tokenId",
          "type": "uint256"
        },
        {
          "indexed": false,
          "internalType": "string",
          "name": "tokenUri",
          "type": "string"
        },
        {
          "indexed": false,
          "internalType": "string",
          "name": "tokenName",
          "type": "string"
        },
        {
          "indexed": false,
          "internalType": "bytes",
          "name": "data",
          "type": "bytes"
        }
      ],
      "name": "TokenMinted",
      "type": "event"
    },
    {
      "anonymous": false,
      "inputs": [
        {
          "indexed": true,
          "internalType": "uint256",
          "name": "tokenId",
          "type": "uint256"
        },
        {
          "indexed": false,
          "internalType": "uint256",
          "name": "unitId",
          "type": "uint256"
        },
        {
          "indexed": false,
          "internalType": "string",
          "name": "nfcId",
          "type": "string"
        },
        {
          "indexed": false,
          "internalType": "bytes",
          "name": "data",
          "type": "bytes"
        }
      ],
      "name": "TokenUnitMinted",
      "type": "event"
    },
    {
      "anonymous": false,
      "inputs": [
        {
          "indexed": true,
          "internalType": "address",
          "name": "operator",
          "type": "address"
        },
        {
          "indexed": true,
          "internalType": "address",
          "name": "from",
          "type": "address"
        },
        {
          "indexed": true,
          "internalType": "address",
          "name": "to",
          "type": "address"
        },
        {
          "indexed": false,
          "internalType": "uint256[]",
          "name": "ids",
          "type": "uint256[]"
        },
        {
          "indexed": false,
          "internalType": "uint256[]",
          "name": "values",
          "type": "uint256[]"
        }
      ],
      "name": "TransferBatch",
      "type": "event"
    },
    {
      "anonymous": false,
      "inputs": [
        {
          "indexed": true,
          "internalType": "address",
          "name": "operator",
          "type": "address"
        },
        {
          "indexed": true,
          "internalType": "address",
          "name": "from",
          "type": "address"
        },
        {
          "indexed": true,
          "internalType": "address",
          "name": "to",
          "type": "address"
        },
        {
          "indexed": false,
          "internalType": "uint256",
          "name": "id",
          "type": "uint256"
        },
        {
          "indexed": false,
          "internalType": "uint256",
          "name": "value",
          "type": "uint256"
        }
      ],
      "name": "TransferSingle",
      "type": "event"
    },
    {
      "anonymous": false,
      "inputs": [
        {
          "indexed": false,
          "internalType": "string",
          "name": "value",
          "type": "string"
        },
        {
          "indexed": true,
          "internalType": "uint256",
          "name": "id",
          "type": "uint256"
        }
      ],
      "name": "URI",
      "type": "event"
    },
    {
      "inputs": [],
      "name": "DEFAULT_ADMIN_ROLE",
      "outputs": [
        {
          "internalType": "bytes32",
          "name": "",
          "type": "bytes32"
        }
      ],
      "stateMutability": "view",
      "type": "function"
    },
    {
      "inputs": [],
      "name": "MINTER_ROLE",
      "outputs": [
        {
          "internalType": "bytes32",
          "name": "",
          "type": "bytes32"
        }
      ],
      "stateMutability": "view",
      "type": "function"
    },
    {
      "inputs": [
        {
          "internalType": "address",
          "name": "account",
          "type": "address"
        },
        {
          "internalType": "uint256",
          "name": "id",
          "type": "uint256"
        }
      ],
      "name": "balanceOf",
      "outputs": [
        {
          "internalType": "uint256",
          "name": "",
          "type": "uint256"
        }
      ],
      "stateMutability": "view",
      "type": "function"
    },
    {
      "inputs": [
        {
          "internalType": "address[]",
          "name": "accounts",
          "type": "address[]"
        },
        {
          "internalType": "uint256[]",
          "name": "ids",
          "type": "uint256[]"
        }
      ],
      "name": "balanceOfBatch",
      "outputs": [
        {
          "internalType": "uint256[]",
          "name": "",
          "type": "uint256[]"
        }
      ],
      "stateMutability": "view",
      "type": "function"
    },
    {
      "inputs": [
        {
          "internalType": "bytes32",
          "name": "role",
          "type": "bytes32"
        }
      ],
      "name": "getRoleAdmin",
      "outputs": [
        {
          "internalType": "bytes32",
          "name": "",
          "type": "bytes32"
        }
      ],
      "stateMutability": "view",
      "type": "function"
    },
    {
      "inputs": [
        {
          "internalType": "bytes32",
          "name": "role",
          "type": "bytes32"
        },
        {
          "internalType": "uint256",
          "name": "index",
          "type": "uint256"
        }
      ],
      "name": "getRoleMember",
      "outputs": [
        {
          "internalType": "address",
          "name": "",
          "type": "address"
        }
      ],
      "stateMutability": "view",
      "type": "function"
    },
    {
      "inputs": [
        {
          "internalType": "bytes32",
          "name": "role",
          "type": "bytes32"
        }
      ],
      "name": "getRoleMemberCount",
      "outputs": [
        {
          "internalType": "uint256",
          "name": "",
          "type": "uint256"
        }
      ],
      "stateMutability": "view",
      "type": "function"
    },
    {
      "inputs": [
        {
          "internalType": "bytes32",
          "name": "role",
          "type": "bytes32"
        },
        {
          "internalType": "address",
          "name": "account",
          "type": "address"
        }
      ],
      "name": "grantRole",
      "outputs": [],
      "stateMutability": "nonpayable",
      "type": "function"
    },
    {
      "inputs": [
        {
          "internalType": "bytes32",
          "name": "role",
          "type": "bytes32"
        },
        {
          "internalType": "address",
          "name": "account",
          "type": "address"
        }
      ],
      "name": "hasRole",
      "outputs": [
        {
          "internalType": "bool",
          "name": "",
          "type": "bool"
        }
      ],
      "stateMutability": "view",
      "type": "function"
    },
    {
      "inputs": [
        {
          "internalType": "address",
          "name": "account",
          "type": "address"
        },
        {
          "internalType": "address",
          "name": "operator",
          "type": "address"
        }
      ],
      "name": "isApprovedForAll",
      "outputs": [
        {
          "internalType": "bool",
          "name": "",
          "type": "bool"
        }
      ],
      "stateMutability": "view",
      "type": "function"
    },
    {
      "inputs": [
        {
          "internalType": "address",
          "name": "",
          "type": "address"
        },
        {
          "internalType": "address",
          "name": "",
          "type": "address"
        },
        {
          "internalType": "uint256[]",
          "name": "",
          "type": "uint256[]"
        },
        {
          "internalType": "uint256[]",
          "name": "",
          "type": "uint256[]"
        },
        {
          "internalType": "bytes",
          "name": "",
          "type": "bytes"
        }
      ],
      "name": "onERC1155BatchReceived",
      "outputs": [
        {
          "internalType": "bytes4",
          "name": "",
          "type": "bytes4"
        }
      ],
      "stateMutability": "nonpayable",
      "type": "function"
    },
    {
      "inputs": [
        {
          "internalType": "address",
          "name": "",
          "type": "address"
        },
        {
          "internalType": "address",
          "name": "",
          "type": "address"
        },
        {
          "internalType": "uint256",
          "name": "",
          "type": "uint256"
        },
        {
          "internalType": "uint256",
          "name": "",
          "type": "uint256"
        },
        {
          "internalType": "bytes",
          "name": "",
          "type": "bytes"
        }
      ],
      "name": "onERC1155Received",
      "outputs": [
        {
          "internalType": "bytes4",
          "name": "",
          "type": "bytes4"
        }
      ],
      "stateMutability": "nonpayable",
      "type": "function"
    },
    {
      "inputs": [
        {
          "internalType": "bytes32",
          "name": "role",
          "type": "bytes32"
        },
        {
          "internalType": "address",
          "name": "account",
          "type": "address"
        }
      ],
      "name": "renounceRole",
      "outputs": [],
      "stateMutability": "nonpayable",
      "type": "function"
    },
    {
      "inputs": [
        {
          "internalType": "bytes32",
          "name": "role",
          "type": "bytes32"
        },
        {
          "internalType": "address",
          "name": "account",
          "type": "address"
        }
      ],
      "name": "revokeRole",
      "outputs": [],
      "stateMutability": "nonpayable",
      "type": "function"
    },
    {
      "inputs": [
        {
          "internalType": "address",
          "name": "from",
          "type": "address"
        },
        {
          "internalType": "address",
          "name": "to",
          "type": "address"
        },
        {
          "internalType": "uint256[]",
          "name": "ids",
          "type": "uint256[]"
        },
        {
          "internalType": "uint256[]",
          "name": "amounts",
          "type": "uint256[]"
        },
        {
          "internalType": "bytes",
          "name": "data",
          "type": "bytes"
        }
      ],
      "name": "safeBatchTransferFrom",
      "outputs": [],
      "stateMutability": "nonpayable",
      "type": "function"
    },
    {
      "inputs": [
        {
          "internalType": "address",
          "name": "from",
          "type": "address"
        },
        {
          "internalType": "address",
          "name": "to",
          "type": "address"
        },
        {
          "internalType": "uint256",
          "name": "id",
          "type": "uint256"
        },
        {
          "internalType": "uint256",
          "name": "amount",
          "type": "uint256"
        },
        {
          "internalType": "bytes",
          "name": "data",
          "type": "bytes"
        }
      ],
      "name": "safeTransferFrom",
      "outputs": [],
      "stateMutability": "nonpayable",
      "type": "function"
    },
    {
      "inputs": [
        {
          "internalType": "address",
          "name": "operator",
          "type": "address"
        },
        {
          "internalType": "bool",
          "name": "approved",
          "type": "bool"
        }
      ],
      "name": "setApprovalForAll",
      "outputs": [],
      "stateMutability": "nonpayable",
      "type": "function"
    },
    {
      "inputs": [
        {
          "internalType": "uint256",
          "name": "",
          "type": "uint256"
        }
      ],
      "name": "uri",
      "outputs": [
        {
          "internalType": "string",
          "name": "",
          "type": "string"
        }
      ],
      "stateMutability": "view",
      "type": "function"
    },
    {
      "inputs": [],
      "name": "getBrandName",
      "outputs": [
        {
          "internalType": "string",
          "name": "",
          "type": "string"
        }
      ],
      "stateMutability": "view",
      "type": "function"
    },
    {
      "inputs": [
        {
          "internalType": "uint256",
          "name": "tokenId",
          "type": "uint256"
        },
        {
          "internalType": "uint256",
          "name": "unitId",
          "type": "uint256"
        },
        {
          "internalType": "address",
          "name": "account",
          "type": "address"
        }
      ],
      "name": "haveClaimPermission",
      "outputs": [
        {
          "internalType": "bool",
          "name": "",
          "type": "bool"
        }
      ],
      "stateMutability": "view",
      "type": "function"
    },
    {
      "inputs": [
        {
          "internalType": "address",
          "name": "account",
          "type": "address"
        }
      ],
      "name": "allBalancesOf",
      "outputs": [
        {
          "internalType": "uint256[]",
          "name": "",
          "type": "uint256[]"
        }
      ],
      "stateMutability": "view",
      "type": "function"
    },
    {
      "inputs": [],
      "name": "getTokensCount",
      "outputs": [
        {
          "internalType": "uint256",
          "name": "",
          "type": "uint256"
        }
      ],
      "stateMutability": "view",
      "type": "function"
    },
    {
      "inputs": [
        {
          "internalType": "uint256",
          "name": "tokenId",
          "type": "uint256"
        }
      ],
      "name": "tokenData",
      "outputs": [
        {
          "components": [
            {
              "internalType": "string",
              "name": "uri",
              "type": "string"
            },
            {
              "internalType": "string",
              "name": "name",
              "type": "string"
            }
          ],
          "internalType": "struct TokenData",
          "name": "",
          "type": "tuple"
        }
      ],
      "stateMutability": "view",
      "type": "function"
    },
    {
      "inputs": [
        {
          "internalType": "uint256",
          "name": "tokenId",
          "type": "uint256"
        },
        {
          "internalType": "uint256",
          "name": "tokenUnitId",
          "type": "uint256"
        }
      ],
      "name": "tokenUnitData",
      "outputs": [
        {
          "components": [
            {
              "internalType": "address",
              "name": "owner",
              "type": "address"
            },
            {
              "internalType": "string",
              "name": "nfcId",
              "type": "string"
            },
            {
              "internalType": "string",
              "name": "status",
              "type": "string"
            }
          ],
          "internalType": "struct TokenUnitData",
          "name": "",
          "type": "tuple"
        }
      ],
      "stateMutability": "view",
      "type": "function"
    },
    {
      "inputs": [
        {
          "internalType": "string",
          "name": "tokenUri",
          "type": "string"
        },
        {
          "internalType": "string",
          "name": "tokenName",
          "type": "string"
        },
        {
          "internalType": "bytes",
          "name": "data",
          "type": "bytes"
        }
      ],
      "name": "mintToken",
      "outputs": [
        {
          "internalType": "uint256",
          "name": "",
          "type": "uint256"
        }
      ],
      "stateMutability": "nonpayable",
      "type": "function"
    },
    {
      "inputs": [
        {
          "internalType": "uint256",
          "name": "tokenId",
          "type": "uint256"
        },
        {
          "internalType": "string",
          "name": "nfcId",
          "type": "string"
        },
        {
          "internalType": "bytes",
          "name": "data",
          "type": "bytes"
        }
      ],
      "name": "mintTokenUnit",
      "outputs": [
        {
          "internalType": "uint256",
          "name": "",
          "type": "uint256"
        }
      ],
      "stateMutability": "nonpayable",
      "type": "function"
    },
    {
      "inputs": [
        {
          "internalType": "uint256",
          "name": "tokenId",
          "type": "uint256"
        },
        {
          "internalType": "uint256",
          "name": "unitId",
          "type": "uint256"
        },
        {
          "internalType": "address",
          "name": "to",
          "type": "address"
        },
        {
          "internalType": "string",
          "name": "pin",
          "type": "string"
        }
      ],
      "name": "requestPhoneVerification",
      "outputs": [
        {
          "internalType": "bytes32",
          "name": "requestId",
          "type": "bytes32"
        }
      ],
      "stateMutability": "nonpayable",
      "type": "function"
    },
    {
      "inputs": [
        {
          "internalType": "uint256",
          "name": "tokenId",
          "type": "uint256"
        },
        {
          "internalType": "uint256",
          "name": "unitId",
          "type": "uint256"
        },
        {
          "internalType": "address",
          "name": "to",
          "type": "address"
        },
        {
          "internalType": "bool",
          "name": "valid",
          "type": "bool"
        }
      ],
      "name": "ownershipPermission",
      "outputs": [],
      "stateMutability": "nonpayable",
      "type": "function"
    },
    {
      "inputs": [
        {
          "internalType": "uint256",
          "name": "tokenId",
          "type": "uint256"
        },
        {
          "internalType": "uint256",
          "name": "unitId",
          "type": "uint256"
        },
        {
          "internalType": "address",
          "name": "to",
          "type": "address"
        }
      ],
      "name": "claimOwnership",
      "outputs": [],
      "stateMutability": "nonpayable",
      "type": "function"
    },
    {
      "inputs": [
        {
          "internalType": "address",
          "name": "from",
          "type": "address"
        },
        {
          "internalType": "address",
          "name": "to",
          "type": "address"
        },
        {
          "internalType": "uint256",
          "name": "tokenId",
          "type": "uint256"
        },
        {
          "internalType": "uint256",
          "name": "unitId",
          "type": "uint256"
        },
        {
          "internalType": "bytes",
          "name": "data",
          "type": "bytes"
        }
      ],
      "name": "safeUnitTransferFrom",
      "outputs": [],
      "stateMutability": "nonpayable",
      "type": "function"
    },
    {
      "inputs": [
        {
          "internalType": "address",
          "name": "contractAdr",
          "type": "address"
        }
      ],
      "name": "setVerificationContract",
      "outputs": [],
      "stateMutability": "nonpayable",
      "type": "function"
    },
    {
      "inputs": [
        {
          "internalType": "uint256",
          "name": "tokenId",
          "type": "uint256"
        },
        {
          "internalType": "uint256",
          "name": "unitId",
          "type": "uint256"
        }
      ],
      "name": "unitSold",
      "outputs": [],
      "stateMutability": "nonpayable",
      "type": "function"
    },
    {
      "inputs": [
        {
          "internalType": "uint256",
          "name": "tokenId",
          "type": "uint256"
        },
        {
          "internalType": "uint256",
          "name": "unitId",
          "type": "uint256"
        }
      ],
      "name": "unitStolen",
      "outputs": [],
      "stateMutability": "nonpayable",
      "type": "function"
    },
    {
      "inputs": [
        {
          "internalType": "bytes4",
          "name": "interfaceId",
          "type": "bytes4"
        }
      ],
      "name": "supportsInterface",
      "outputs": [
        {
          "internalType": "bool",
          "name": "",
          "type": "bool"
        }
      ],
      "stateMutability": "view",
      "type": "function"
    }
  ],
  "bytecode": "0x60806040523480156200001157600080fd5b50604051620066a0380380620066a08339818101604052810190620000379190620004c0565b60405180602001604052806000815250806200005981620000e060201b60201c565b506200007e6000801b62000072620000fc60201b60201c565b6200010460201b60201c565b620000bf7f9f2df0fed2c77648de5860a4cc508cd0818c85b8b8a1ab4ceeef8d981c8956a6620000b3620000fc60201b60201c565b6200010460201b60201c565b508060059080519060200190620000d892919062000392565b505062000695565b8060049080519060200190620000f892919062000392565b5050565b600033905090565b6200011b82826200014c60201b620022511760201c565b6200014781600160008581526020019081526020016000206200016260201b6200225f1790919060201c565b505050565b6200015e82826200019a60201b60201c565b5050565b600062000192836000018373ffffffffffffffffffffffffffffffffffffffff1660001b6200028b60201b60201c565b905092915050565b620001ac82826200030560201b60201c565b6200028757600160008084815260200190815260200160002060000160008373ffffffffffffffffffffffffffffffffffffffff1673ffffffffffffffffffffffffffffffffffffffff16815260200190815260200160002060006101000a81548160ff0219169083151502179055506200022c620000fc60201b60201c565b73ffffffffffffffffffffffffffffffffffffffff168173ffffffffffffffffffffffffffffffffffffffff16837f2f8788117e7eff1d82e926ec794901d17c78024a50270940304540a733656f0d60405160405180910390a45b5050565b60006200029f83836200036f60201b60201c565b620002fa578260000182908060018154018082558091505060019003906000526020600020016000909190919091505582600001805490508360010160008481526020019081526020016000208190555060019050620002ff565b600090505b92915050565b600080600084815260200190815260200160002060000160008373ffffffffffffffffffffffffffffffffffffffff1673ffffffffffffffffffffffffffffffffffffffff16815260200190815260200160002060009054906101000a900460ff16905092915050565b600080836001016000848152602001908152602001600020541415905092915050565b828054620003a090620005a6565b90600052602060002090601f016020900481019282620003c4576000855562000410565b82601f10620003df57805160ff191683800117855562000410565b8280016001018555821562000410579182015b828111156200040f578251825591602001919060010190620003f2565b5b5090506200041f919062000423565b5090565b5b808211156200043e57600081600090555060010162000424565b5090565b60006200045962000453846200053a565b62000511565b90508281526020810184848401111562000478576200047762000675565b5b6200048584828562000570565b509392505050565b600082601f830112620004a557620004a462000670565b5b8151620004b784826020860162000442565b91505092915050565b600060208284031215620004d957620004d86200067f565b5b600082015167ffffffffffffffff811115620004fa57620004f96200067a565b5b62000508848285016200048d565b91505092915050565b60006200051d62000530565b90506200052b8282620005dc565b919050565b6000604051905090565b600067ffffffffffffffff82111562000558576200055762000641565b5b620005638262000684565b9050602081019050919050565b60005b838110156200059057808201518184015260208101905062000573565b83811115620005a0576000848401525b50505050565b60006002820490506001821680620005bf57607f821691505b60208210811415620005d657620005d562000612565b5b50919050565b620005e78262000684565b810181811067ffffffffffffffff8211171562000609576200060862000641565b5b80604052505050565b7f4e487b7100000000000000000000000000000000000000000000000000000000600052602260045260246000fd5b7f4e487b7100000000000000000000000000000000000000000000000000000000600052604160045260246000fd5b600080fd5b600080fd5b600080fd5b600080fd5b6000601f19601f8301169050919050565b615ffb80620006a56000396000f3fe608060405234801561001057600080fd5b50600436106102055760003560e01c806391d148541161011a578063d5391393116100ad578063f23a6e611161007c578063f23a6e6114610690578063f242432a146106c0578063f53fb9b9146106dc578063fb48d6be146106f8578063fe3d88bd1461071457610205565b8063d5391393146105f6578063d547741f14610614578063e985e9c514610630578063f1cb3a1a1461066057610205565b8063b4b5b48f116100e9578063b4b5b48f14610536578063bc197c8114610566578063c3d0427914610596578063ca15c873146105c657610205565b806391d14854146104b0578063991ffb49146104e0578063a217fddf146104fc578063a22cb4651461051a57610205565b806336568abe1161019d5780634e1273f41161016c5780634e1273f4146103d4578063545b6422146104045780636648b1cb146104205780638273a411146104505780639010d07c1461048057610205565b806336568abe1461034e5780633962f82d1461036a5780633e80bb7414610388578063481d4e53146103b857610205565b8063241230ef116101d9578063241230ef146102ca578063248a9ca3146102e65780632eb2c2d6146103165780632f2ff15d1461033257610205565b8062fdd58e1461020a57806301ffc9a71461023a5780630e89341c1461026a5780631cbb35e91461029a575b600080fd5b610224600480360381019061021f9190613f60565b610732565b604051610231919061507e565b60405180910390f35b610254600480360381019061024f91906140f2565b6107fc565b6040516102619190614ce7565b60405180910390f35b610284600480360381019061027f91906141fd565b61080e565b6040516102919190614d38565b60405180910390f35b6102b460048036038101906102af91906142fa565b6108a2565b6040516102c19190614ce7565b60405180910390f35b6102e460048036038101906102df91906142fa565b610920565b005b61030060048036038101906102fb9190614018565b610aae565b60405161030d9190614d02565b60405180910390f35b610330600480360381019061032b9190613dba565b610acd565b005b61034c60048036038101906103479190614072565b610b6e565b005b61036860048036038101906103639190614072565b610ba2565b005b610372610bd6565b60405161037f919061507e565b60405180910390f35b6103a2600480360381019061039d91906142ba565b610bf0565b6040516103af919061505c565b60405180910390f35b6103d260048036038101906103cd91906142ba565b610da9565b005b6103ee60048036038101906103e99190613fa0565b610f1a565b6040516103fb9190614c8e565b60405180910390f35b61041e600480360381019061041991906142ba565b611033565b005b61043a6004803603810190610435919061414c565b6111ca565b604051610447919061507e565b60405180910390f35b61046a60048036038101906104659190613d4d565b61140c565b6040516104779190614c8e565b60405180910390f35b61049a600480360381019061049591906140b2565b6114d0565b6040516104a79190614bb1565b60405180910390f35b6104ca60048036038101906104c59190614072565b6114ff565b6040516104d79190614ce7565b60405180910390f35b6104fa60048036038101906104f59190613e89565b611569565b005b61050461160a565b6040516105119190614d02565b60405180910390f35b610534600480360381019061052f9190613f20565b611611565b005b610550600480360381019061054b91906141fd565b611792565b60405161055d919061503a565b60405180910390f35b610580600480360381019061057b9190613dba565b6118e3565b60405161058d9190614d1d565b60405180910390f35b6105b060048036038101906105ab919061422a565b6118f8565b6040516105bd919061507e565b60405180910390f35b6105e060048036038101906105db9190614018565b611bc8565b6040516105ed919061507e565b60405180910390f35b6105fe611bec565b60405161060b9190614d02565b60405180910390f35b61062e60048036038101906106299190614072565b611c10565b005b61064a60048036038101906106459190613d7a565b611c44565b6040516106579190614ce7565b60405180910390f35b61067a600480360381019061067591906143b4565b611cd8565b6040516106879190614d02565b60405180910390f35b6106aa60048036038101906106a59190613e89565b611f28565b6040516106b79190614d1d565b60405180910390f35b6106da60048036038101906106d59190613e89565b611f3d565b005b6106f660048036038101906106f1919061434d565b611fde565b005b610712600480360381019061070d9190613d4d565b612128565b005b61071c6121bf565b6040516107299190614d38565b60405180910390f35b60008073ffffffffffffffffffffffffffffffffffffffff168373ffffffffffffffffffffffffffffffffffffffff1614156107a3576040517f08c379a000000000000000000000000000000000000000000000000000000000815260040161079a90614dda565b60405180910390fd5b6002600083815260200190815260200160002060008473ffffffffffffffffffffffffffffffffffffffff1673ffffffffffffffffffffffffffffffffffffffff16815260200190815260200160002054905092915050565b60006108078261228f565b9050919050565b60606004805461081d9061554f565b80601f01602080910402602001604051908101604052809291908181526020018280546108499061554f565b80156108965780601f1061086b57610100808354040283529160200191610896565b820191906000526020600020905b81548152906001019060200180831161087957829003601f168201915b50505050509050919050565b6000600a6000858152602001908152602001600020600084815260200190815260200160002060009054906101000a900473ffffffffffffffffffffffffffffffffffffffff1673ffffffffffffffffffffffffffffffffffffffff168273ffffffffffffffffffffffffffffffffffffffff161490509392505050565b61092b8383836108a2565b61096a576040517f08c379a000000000000000000000000000000000000000000000000000000000815260040161096190614d7a565b60405180910390fd5b60405160200161097990614b4d565b604051602081830303815290604052805190602001206009600085815260200190815260200160002060008481526020019081526020016000206002016040516020016109c69190614b21565b6040516020818303038152906040528051906020012014610a1c576040517f08c379a0000000000000000000000000000000000000000000000000000000008152600401610a1390614f5a565b60405180910390fd5b6040518060400160405280600581526020017f6f776e65640000000000000000000000000000000000000000000000000000008152506009600085815260200190815260200160002060008481526020019081526020016000206002019080519060200190610a8c9291906139c4565b50610aa93082858560405180602001604052806000815250612309565b505050565b6000806000838152602001908152602001600020600101549050919050565b610ad5612384565b73ffffffffffffffffffffffffffffffffffffffff168573ffffffffffffffffffffffffffffffffffffffff161480610b1b5750610b1a85610b15612384565b611c44565b5b610b5a576040517f08c379a0000000000000000000000000000000000000000000000000000000008152600401610b5190614eda565b60405180910390fd5b610b67858585858561238c565b5050505050565b610b7882826126a3565b610b9d816001600085815260200190815260200160002061225f90919063ffffffff16565b505050565b610bac82826126cc565b610bd1816001600085815260200190815260200160002061274f90919063ffffffff16565b505050565b6000600660009054906101000a900460ff1660ff16905090565b610bf8613a4a565b6009600084815260200190815260200160002060008381526020019081526020016000206040518060600160405290816000820160009054906101000a900473ffffffffffffffffffffffffffffffffffffffff1673ffffffffffffffffffffffffffffffffffffffff1673ffffffffffffffffffffffffffffffffffffffff168152602001600182018054610c8d9061554f565b80601f0160208091040260200160405190810160405280929190818152602001828054610cb99061554f565b8015610d065780601f10610cdb57610100808354040283529160200191610d06565b820191906000526020600020905b815481529060010190602001808311610ce957829003601f168201915b50505050508152602001600282018054610d1f9061554f565b80601f0160208091040260200160405190810160405280929190818152602001828054610d4b9061554f565b8015610d985780601f10610d6d57610100808354040283529160200191610d98565b820191906000526020600020905b815481529060010190602001808311610d7b57829003601f168201915b505050505081525050905092915050565b610db482823361277f565b610df3576040517f08c379a0000000000000000000000000000000000000000000000000000000008152600401610dea90614e7a565b60405180910390fd5b604051602001610e0290614b38565b60405160208183030381529060405280519060200120600960008481526020019081526020016000206000838152602001908152602001600020600201604051602001610e4f9190614b21565b6040516020818303038152906040528051906020012014610ea5576040517f08c379a0000000000000000000000000000000000000000000000000000000008152600401610e9c90614ffa565b60405180910390fd5b6040518060400160405280600681526020017f73746f6c656e00000000000000000000000000000000000000000000000000008152506009600084815260200190815260200160002060008381526020019081526020016000206002019080519060200190610f159291906139c4565b505050565b60608151835114610f60576040517f08c379a0000000000000000000000000000000000000000000000000000000008152600401610f5790614f9a565b60405180910390fd5b6000835167ffffffffffffffff811115610f7d57610f7c6156e1565b5b604051908082528060200260200182016040528015610fab5781602001602082028036833780820191505090505b50905060005b845181101561102857610ff8858281518110610fd057610fcf6156b2565b5b6020026020010151858381518110610feb57610fea6156b2565b5b6020026020010151610732565b82828151811061100b5761100a6156b2565b5b60200260200101818152505080611021906155b2565b9050610fb1565b508091505092915050565b6110647f9f2df0fed2c77648de5860a4cc508cd0818c85b8b8a1ab4ceeef8d981c8956a661105f612384565b6114ff565b6110a3576040517f08c379a000000000000000000000000000000000000000000000000000000000815260040161109a90614efa565b60405180910390fd5b6040516020016110b290614b9c565b604051602081830303815290604052805190602001206009600084815260200190815260200160002060008381526020019081526020016000206002016040516020016110ff9190614b21565b6040516020818303038152906040528051906020012014611155576040517f08c379a000000000000000000000000000000000000000000000000000000000815260040161114c90614e1a565b60405180910390fd5b6040518060400160405280600481526020017f736f6c640000000000000000000000000000000000000000000000000000000081525060096000848152602001908152602001600020600083815260200190815260200160002060020190805190602001906111c59291906139c4565b505050565b60006111fd7f9f2df0fed2c77648de5860a4cc508cd0818c85b8b8a1ab4ceeef8d981c8956a66111f8612384565b6114ff565b61123c576040517f08c379a000000000000000000000000000000000000000000000000000000000815260040161123390614efa565b60405180910390fd5b61125b30600660009054906101000a900460ff1660ff16600085612800565b604051806040016040528087878080601f016020809104026020016040519081016040528093929190818152602001838380828437600081840152601f19601f82011690508083019250505050505050815260200185858080601f016020809104026020016040519081016040528093929190818152602001838380828437600081840152601f19601f8201169050808301925050505050505081525060086000600660009054906101000a900460ff1660ff16815260200190815260200160002060008201518160000190805190602001906113399291906139c4565b5060208201518160010190805190602001906113569291906139c4565b509050507f1c001b259495d284b16f44ac0662ad743888a2bf65fe7dc4c654e3a8327a9c63600660009054906101000a900460ff1687878787876040516113a296959493929190615180565b60405180910390a16006600081819054906101000a900460ff16809291906113c9906155fb565b91906101000a81548160ff021916908360ff160217905550506001600660009054906101000a900460ff166113fe9190615412565b60ff16905095945050505050565b60606000600660009054906101000a900460ff1660ff1667ffffffffffffffff81111561143c5761143b6156e1565b5b60405190808252806020026020018201604052801561146a5781602001602082028036833780820191505090505b50905060005b600660009054906101000a900460ff1660ff168110156114c6576114948482610732565b8282815181106114a7576114a66156b2565b5b60200260200101818152505080806114be906155b2565b915050611470565b5080915050919050565b60006114f7826001600086815260200190815260200160002061299790919063ffffffff16565b905092915050565b600080600084815260200190815260200160002060000160008373ffffffffffffffffffffffffffffffffffffffff1673ffffffffffffffffffffffffffffffffffffffff16815260200190815260200160002060009054906101000a900460ff16905092915050565b611571612384565b73ffffffffffffffffffffffffffffffffffffffff168573ffffffffffffffffffffffffffffffffffffffff1614806115b757506115b6856115b1612384565b611c44565b5b6115f6576040517f08c379a00000000000000000000000000000000000000000000000000000000081526004016115ed90614e3a565b60405180910390fd5b6116038585858585612309565b5050505050565b6000801b81565b8173ffffffffffffffffffffffffffffffffffffffff16611630612384565b73ffffffffffffffffffffffffffffffffffffffff161415611687576040517f08c379a000000000000000000000000000000000000000000000000000000000815260040161167e90614f7a565b60405180910390fd5b8060036000611694612384565b73ffffffffffffffffffffffffffffffffffffffff1673ffffffffffffffffffffffffffffffffffffffff16815260200190815260200160002060008473ffffffffffffffffffffffffffffffffffffffff1673ffffffffffffffffffffffffffffffffffffffff16815260200190815260200160002060006101000a81548160ff0219169083151502179055508173ffffffffffffffffffffffffffffffffffffffff16611741612384565b73ffffffffffffffffffffffffffffffffffffffff167f17307eab39ab6107e8899845ad3d59bd9653f200f220920489ca2b5937696c31836040516117869190614ce7565b60405180910390a35050565b61179a613a81565b600860008381526020019081526020016000206040518060400160405290816000820180546117c89061554f565b80601f01602080910402602001604051908101604052809291908181526020018280546117f49061554f565b80156118415780601f1061181657610100808354040283529160200191611841565b820191906000526020600020905b81548152906001019060200180831161182457829003601f168201915b5050505050815260200160018201805461185a9061554f565b80601f01602080910402602001604051908101604052809291908181526020018280546118869061554f565b80156118d35780601f106118a8576101008083540402835291602001916118d3565b820191906000526020600020905b8154815290600101906020018083116118b657829003601f168201915b5050505050815250509050919050565b600063bc197c8160e01b905095945050505050565b600061192b7f9f2df0fed2c77648de5860a4cc508cd0818c85b8b8a1ab4ceeef8d981c8956a6611926612384565b6114ff565b61196a576040517f08c379a000000000000000000000000000000000000000000000000000000000815260040161196190614efa565b60405180910390fd5b611973856129b1565b6119b2576040517f08c379a00000000000000000000000000000000000000000000000000000000081526004016119a990614e5a565b60405180910390fd5b6119bf3086600185612800565b60405180606001604052803073ffffffffffffffffffffffffffffffffffffffff16815260200185858080601f016020809104026020016040519081016040528093929190818152602001838380828437600081840152601f19601f8201169050808301925050505050505081526020016040518060400160405280600681526020017f6d696e74656400000000000000000000000000000000000000000000000000008152508152506009600087815260200190815260200160002060006007600089815260200190815260200160002054815260200190815260200160002060008201518160000160006101000a81548173ffffffffffffffffffffffffffffffffffffffff021916908373ffffffffffffffffffffffffffffffffffffffff1602179055506020820151816001019080519060200190611b039291906139c4565b506040820151816002019080519060200190611b209291906139c4565b50905050847f5ff47a97796301f38bf23b5ecefbb1b59a05f7a5689a668b98c0821a0e8f3e066007600088815260200190815260200160002054868686604051611b6d94939291906150c2565b60405180910390a2600760008681526020019081526020016000206000815480929190611b99906155b2565b919050555060016007600087815260200190815260200160002054611bbe91906153de565b9050949350505050565b6000611be5600160008481526020019081526020016000206129cf565b9050919050565b7f9f2df0fed2c77648de5860a4cc508cd0818c85b8b8a1ab4ceeef8d981c8956a681565b611c1a82826129e4565b611c3f816001600085815260200190815260200160002061274f90919063ffffffff16565b505050565b6000600360008473ffffffffffffffffffffffffffffffffffffffff1673ffffffffffffffffffffffffffffffffffffffff16815260200190815260200160002060008373ffffffffffffffffffffffffffffffffffffffff1673ffffffffffffffffffffffffffffffffffffffff16815260200190815260200160002060009054906101000a900460ff16905092915050565b60008073ffffffffffffffffffffffffffffffffffffffff16600660019054906101000a900473ffffffffffffffffffffffffffffffffffffffff1673ffffffffffffffffffffffffffffffffffffffff161415611d6b576040517f08c379a0000000000000000000000000000000000000000000000000000000008152600401611d6290614f3a565b60405180910390fd5b611d77868660006108a2565b611db6576040517f08c379a0000000000000000000000000000000000000000000000000000000008152600401611dad90614dfa565b60405180910390fd5b604051602001611dc590614b4d565b60405160208183030381529060405280519060200120600960008881526020019081526020016000206000878152602001908152602001600020600201604051602001611e129190614b21565b6040516020818303038152906040528051906020012014611e68576040517f08c379a0000000000000000000000000000000000000000000000000000000008152600401611e5f90614f5a565b60405180910390fd5b600660019054906101000a900473ffffffffffffffffffffffffffffffffffffffff1673ffffffffffffffffffffffffffffffffffffffff16639fe8660f87878787876040518663ffffffff1660e01b8152600401611ecb959493929190615132565b602060405180830381600087803b158015611ee557600080fd5b505af1158015611ef9573d6000803e3d6000fd5b505050506040513d601f19601f82011682018060405250810190611f1d9190614045565b905095945050505050565b600063f23a6e6160e01b905095945050505050565b611f45612384565b73ffffffffffffffffffffffffffffffffffffffff168573ffffffffffffffffffffffffffffffffffffffff161480611f8b5750611f8a85611f85612384565b611c44565b5b611fca576040517f08c379a0000000000000000000000000000000000000000000000000000000008152600401611fc190614e3a565b60405180910390fd5b611fd78585858585612a0d565b5050505050565b600660019054906101000a900473ffffffffffffffffffffffffffffffffffffffff1673ffffffffffffffffffffffffffffffffffffffff163373ffffffffffffffffffffffffffffffffffffffff161461206e576040517f08c379a000000000000000000000000000000000000000000000000000000000815260040161206590614e9a565b60405180910390fd5b81600a6000868152602001908152602001600020600085815260200190815260200160002060006101000a81548173ffffffffffffffffffffffffffffffffffffffff021916908373ffffffffffffffffffffffffffffffffffffffff1602179055508173ffffffffffffffffffffffffffffffffffffffff16847f408b354a5a743483dc98fde82fba59cd10f8174901861cf5dabe1d2850ac374b858460405161211a929190615099565b60405180910390a350505050565b61213c6000801b612137612384565b6114ff565b61217b576040517f08c379a000000000000000000000000000000000000000000000000000000000815260040161217290614efa565b60405180910390fd5b80600660016101000a81548173ffffffffffffffffffffffffffffffffffffffff021916908373ffffffffffffffffffffffffffffffffffffffff16021790555050565b6060600580546121ce9061554f565b80601f01602080910402602001604051908101604052809291908181526020018280546121fa9061554f565b80156122475780601f1061221c57610100808354040283529160200191612247565b820191906000526020600020905b81548152906001019060200180831161222a57829003601f168201915b5050505050905090565b61225b8282612c92565b5050565b6000612287836000018373ffffffffffffffffffffffffffffffffffffffff1660001b612d72565b905092915050565b60007f4e2312e0000000000000000000000000000000000000000000000000000000007bffffffffffffffffffffffffffffffffffffffffffffffffffffffff1916827bffffffffffffffffffffffffffffffffffffffffffffffffffffffff19161480612302575061230182612de2565b5b9050919050565b8360096000858152602001908152602001600020600084815260200190815260200160002060000160006101000a81548173ffffffffffffffffffffffffffffffffffffffff021916908373ffffffffffffffffffffffffffffffffffffffff16021790555061237d858585600185612a0d565b5050505050565b600033905090565b81518351146123d0576040517f08c379a00000000000000000000000000000000000000000000000000000000081526004016123c790614fba565b60405180910390fd5b600073ffffffffffffffffffffffffffffffffffffffff168473ffffffffffffffffffffffffffffffffffffffff161415612440576040517f08c379a000000000000000000000000000000000000000000000000000000000815260040161243790614eba565b60405180910390fd5b600061244a612384565b905061245a818787878787612df4565b60005b845181101561260e57600085828151811061247b5761247a6156b2565b5b60200260200101519050600085838151811061249a576124996156b2565b5b6020026020010151905060006002600084815260200190815260200160002060008b73ffffffffffffffffffffffffffffffffffffffff1673ffffffffffffffffffffffffffffffffffffffff1681526020019081526020016000205490508181101561253c576040517f08c379a000000000000000000000000000000000000000000000000000000000815260040161253390614f1a565b60405180910390fd5b8181036002600085815260200190815260200160002060008c73ffffffffffffffffffffffffffffffffffffffff1673ffffffffffffffffffffffffffffffffffffffff16815260200190815260200160002081905550816002600085815260200190815260200160002060008b73ffffffffffffffffffffffffffffffffffffffff1673ffffffffffffffffffffffffffffffffffffffff16815260200190815260200160002060008282546125f3919061532e565b9250508190555050505080612607906155b2565b905061245d565b508473ffffffffffffffffffffffffffffffffffffffff168673ffffffffffffffffffffffffffffffffffffffff168273ffffffffffffffffffffffffffffffffffffffff167f4a39dc06d4c0dbc64b70af90fd698a233a518aa5d07e595d983b8c0526c8f7fb8787604051612685929190614cb0565b60405180910390a461269b818787878787612dfc565b505050505050565b6126ac82610aae565b6126bd816126b8612384565b612fe3565b6126c78383612c92565b505050565b6126d4612384565b73ffffffffffffffffffffffffffffffffffffffff168173ffffffffffffffffffffffffffffffffffffffff1614612741576040517f08c379a00000000000000000000000000000000000000000000000000000000081526004016127389061501a565b60405180910390fd5b61274b8282613080565b5050565b6000612777836000018373ffffffffffffffffffffffffffffffffffffffff1660001b613161565b905092915050565b60008173ffffffffffffffffffffffffffffffffffffffff1660096000868152602001908152602001600020600085815260200190815260200160002060000160009054906101000a900473ffffffffffffffffffffffffffffffffffffffff1673ffffffffffffffffffffffffffffffffffffffff161490509392505050565b600073ffffffffffffffffffffffffffffffffffffffff168473ffffffffffffffffffffffffffffffffffffffff161415612870576040517f08c379a000000000000000000000000000000000000000000000000000000000815260040161286790614fda565b60405180910390fd5b600061287a612384565b905061289b8160008761288c88613275565b61289588613275565b87612df4565b826002600086815260200190815260200160002060008773ffffffffffffffffffffffffffffffffffffffff1673ffffffffffffffffffffffffffffffffffffffff16815260200190815260200160002060008282546128fb919061532e565b925050819055508473ffffffffffffffffffffffffffffffffffffffff16600073ffffffffffffffffffffffffffffffffffffffff168273ffffffffffffffffffffffffffffffffffffffff167fc3d58168c5ae7397731d063d5bbf3d657854427343f4c083240f7aacaa2d0f628787604051612979929190615109565b60405180910390a4612990816000878787876132ef565b5050505050565b60006129a683600001836134d6565b60001c905092915050565b6000600660009054906101000a900460ff1660ff1682109050919050565b60006129dd82600001613501565b9050919050565b6129ed82610aae565b6129fe816129f9612384565b612fe3565b612a088383613080565b505050565b600073ffffffffffffffffffffffffffffffffffffffff168473ffffffffffffffffffffffffffffffffffffffff161415612a7d576040517f08c379a0000000000000000000000000000000000000000000000000000000008152600401612a7490614eba565b60405180910390fd5b6000612a87612384565b9050612aa7818787612a9888613275565b612aa188613275565b87612df4565b60006002600086815260200190815260200160002060008873ffffffffffffffffffffffffffffffffffffffff1673ffffffffffffffffffffffffffffffffffffffff16815260200190815260200160002054905083811015612b3f576040517f08c379a0000000000000000000000000000000000000000000000000000000008152600401612b3690614f1a565b60405180910390fd5b8381036002600087815260200190815260200160002060008973ffffffffffffffffffffffffffffffffffffffff1673ffffffffffffffffffffffffffffffffffffffff16815260200190815260200160002081905550836002600087815260200190815260200160002060008873ffffffffffffffffffffffffffffffffffffffff1673ffffffffffffffffffffffffffffffffffffffff1681526020019081526020016000206000828254612bf6919061532e565b925050819055508573ffffffffffffffffffffffffffffffffffffffff168773ffffffffffffffffffffffffffffffffffffffff168373ffffffffffffffffffffffffffffffffffffffff167fc3d58168c5ae7397731d063d5bbf3d657854427343f4c083240f7aacaa2d0f628888604051612c73929190615109565b60405180910390a4612c898288888888886132ef565b50505050505050565b612c9c82826114ff565b612d6e57600160008084815260200190815260200160002060000160008373ffffffffffffffffffffffffffffffffffffffff1673ffffffffffffffffffffffffffffffffffffffff16815260200190815260200160002060006101000a81548160ff021916908315150217905550612d13612384565b73ffffffffffffffffffffffffffffffffffffffff168173ffffffffffffffffffffffffffffffffffffffff16837f2f8788117e7eff1d82e926ec794901d17c78024a50270940304540a733656f0d60405160405180910390a45b5050565b6000612d7e8383613512565b612dd7578260000182908060018154018082558091505060019003906000526020600020016000909190919091505582600001805490508360010160008481526020019081526020016000208190555060019050612ddc565b600090505b92915050565b6000612ded82613535565b9050919050565b505050505050565b612e1b8473ffffffffffffffffffffffffffffffffffffffff16613617565b15612fdb578373ffffffffffffffffffffffffffffffffffffffff1663bc197c8187878686866040518663ffffffff1660e01b8152600401612e61959493929190614bcc565b602060405180830381600087803b158015612e7b57600080fd5b505af1925050508015612eac57506040513d601f19601f82011682018060405250810190612ea9919061411f565b60015b612f5257612eb8615710565b806308c379a01415612f155750612ecd615ebc565b80612ed85750612f17565b806040517f08c379a0000000000000000000000000000000000000000000000000000000008152600401612f0c9190614d38565b60405180910390fd5b505b6040517f08c379a0000000000000000000000000000000000000000000000000000000008152600401612f4990614d5a565b60405180910390fd5b63bc197c8160e01b7bffffffffffffffffffffffffffffffffffffffffffffffffffffffff1916817bffffffffffffffffffffffffffffffffffffffffffffffffffffffff191614612fd9576040517f08c379a0000000000000000000000000000000000000000000000000000000008152600401612fd090614dba565b60405180910390fd5b505b505050505050565b612fed82826114ff565b61307c576130128173ffffffffffffffffffffffffffffffffffffffff16601461362a565b6130208360001c602061362a565b604051602001613031929190614b62565b6040516020818303038152906040526040517f08c379a00000000000000000000000000000000000000000000000000000000081526004016130739190614d38565b60405180910390fd5b5050565b61308a82826114ff565b1561315d57600080600084815260200190815260200160002060000160008373ffffffffffffffffffffffffffffffffffffffff1673ffffffffffffffffffffffffffffffffffffffff16815260200190815260200160002060006101000a81548160ff021916908315150217905550613102612384565b73ffffffffffffffffffffffffffffffffffffffff168173ffffffffffffffffffffffffffffffffffffffff16837ff6391f5c32d9c69d2a47ea670b442974b53935d1edc7fd64eb21e047a839171b60405160405180910390a45b5050565b6000808360010160008481526020019081526020016000205490506000811461326957600060018261319391906153de565b90506000600186600001805490506131ab91906153de565b905081811461321a5760008660000182815481106131cc576131cb6156b2565b5b90600052602060002001549050808760000184815481106131f0576131ef6156b2565b5b90600052602060002001819055508387600101600083815260200190815260200160002081905550505b8560000180548061322e5761322d615683565b5b60019003818190600052602060002001600090559055856001016000868152602001908152602001600020600090556001935050505061326f565b60009150505b92915050565b60606000600167ffffffffffffffff811115613294576132936156e1565b5b6040519080825280602002602001820160405280156132c25781602001602082028036833780820191505090505b50905082816000815181106132da576132d96156b2565b5b60200260200101818152505080915050919050565b61330e8473ffffffffffffffffffffffffffffffffffffffff16613617565b156134ce578373ffffffffffffffffffffffffffffffffffffffff1663f23a6e6187878686866040518663ffffffff1660e01b8152600401613354959493929190614c34565b602060405180830381600087803b15801561336e57600080fd5b505af192505050801561339f57506040513d601f19601f8201168201806040525081019061339c919061411f565b60015b613445576133ab615710565b806308c379a0141561340857506133c0615ebc565b806133cb575061340a565b806040517f08c379a00000000000000000000000000000000000000000000000000000000081526004016133ff9190614d38565b60405180910390fd5b505b6040517f08c379a000000000000000000000000000000000000000000000000000000000815260040161343c90614d5a565b60405180910390fd5b63f23a6e6160e01b7bffffffffffffffffffffffffffffffffffffffffffffffffffffffff1916817bffffffffffffffffffffffffffffffffffffffffffffffffffffffff1916146134cc576040517f08c379a00000000000000000000000000000000000000000000000000000000081526004016134c390614dba565b60405180910390fd5b505b505050505050565b60008260000182815481106134ee576134ed6156b2565b5b9060005260206000200154905092915050565b600081600001805490509050919050565b600080836001016000848152602001908152602001600020541415905092915050565b60007fd9b67a26000000000000000000000000000000000000000000000000000000007bffffffffffffffffffffffffffffffffffffffffffffffffffffffff1916827bffffffffffffffffffffffffffffffffffffffffffffffffffffffff1916148061360057507f0e89341c000000000000000000000000000000000000000000000000000000007bffffffffffffffffffffffffffffffffffffffffffffffffffffffff1916827bffffffffffffffffffffffffffffffffffffffffffffffffffffffff1916145b80613610575061360f82613866565b5b9050919050565b600080823b905060008111915050919050565b60606000600283600261363d9190615384565b613647919061532e565b67ffffffffffffffff8111156136605761365f6156e1565b5b6040519080825280601f01601f1916602001820160405280156136925781602001600182028036833780820191505090505b5090507f3000000000000000000000000000000000000000000000000000000000000000816000815181106136ca576136c96156b2565b5b60200101907effffffffffffffffffffffffffffffffffffffffffffffffffffffffffffff1916908160001a9053507f78000000000000000000000000000000000000000000000000000000000000008160018151811061372e5761372d6156b2565b5b60200101907effffffffffffffffffffffffffffffffffffffffffffffffffffffffffffff1916908160001a9053506000600184600261376e9190615384565b613778919061532e565b90505b6001811115613818577f3031323334353637383961626364656600000000000000000000000000000000600f8616601081106137ba576137b96156b2565b5b1a60f81b8282815181106137d1576137d06156b2565b5b60200101907effffffffffffffffffffffffffffffffffffffffffffffffffffffffffffff1916908160001a905350600485901c94508061381190615525565b905061377b565b506000841461385c576040517f08c379a000000000000000000000000000000000000000000000000000000000815260040161385390614d9a565b60405180910390fd5b8091505092915050565b60007f5a05180f000000000000000000000000000000000000000000000000000000007bffffffffffffffffffffffffffffffffffffffffffffffffffffffff1916827bffffffffffffffffffffffffffffffffffffffffffffffffffffffff191614806138d957506138d8826138e0565b5b9050919050565b60007f7965db0b000000000000000000000000000000000000000000000000000000007bffffffffffffffffffffffffffffffffffffffffffffffffffffffff1916827bffffffffffffffffffffffffffffffffffffffffffffffffffffffff1916148061395357506139528261395a565b5b9050919050565b60007f01ffc9a7000000000000000000000000000000000000000000000000000000007bffffffffffffffffffffffffffffffffffffffffffffffffffffffff1916827bffffffffffffffffffffffffffffffffffffffffffffffffffffffff1916149050919050565b8280546139d09061554f565b90600052602060002090601f0160209004810192826139f25760008555613a39565b82601f10613a0b57805160ff1916838001178555613a39565b82800160010185558215613a39579182015b82811115613a38578251825591602001919060010190613a1d565b5b509050613a469190613a9b565b5090565b6040518060600160405280600073ffffffffffffffffffffffffffffffffffffffff16815260200160608152602001606081525090565b604051806040016040528060608152602001606081525090565b5b80821115613ab4576000816000905550600101613a9c565b5090565b6000613acb613ac684615203565b6151de565b90508083825260208201905082856020860282011115613aee57613aed61573c565b5b60005b85811015613b1e5781613b048882613bda565b845260208401935060208301925050600181019050613af1565b5050509392505050565b6000613b3b613b368461522f565b6151de565b90508083825260208201905082856020860282011115613b5e57613b5d61573c565b5b60005b85811015613b8e5781613b748882613d38565b845260208401935060208301925050600181019050613b61565b5050509392505050565b6000613bab613ba68461525b565b6151de565b905082815260208101848484011115613bc757613bc6615741565b5b613bd28482856154e3565b509392505050565b600081359050613be981615f52565b92915050565b600082601f830112613c0457613c03615737565b5b8135613c14848260208601613ab8565b91505092915050565b600082601f830112613c3257613c31615737565b5b8135613c42848260208601613b28565b91505092915050565b600081359050613c5a81615f69565b92915050565b600081359050613c6f81615f80565b92915050565b600081519050613c8481615f80565b92915050565b600081359050613c9981615f97565b92915050565b600081519050613cae81615f97565b92915050565b600082601f830112613cc957613cc8615737565b5b8135613cd9848260208601613b98565b91505092915050565b60008083601f840112613cf857613cf7615737565b5b8235905067ffffffffffffffff811115613d1557613d14615732565b5b602083019150836001820283011115613d3157613d3061573c565b5b9250929050565b600081359050613d4781615fae565b92915050565b600060208284031215613d6357613d6261574b565b5b6000613d7184828501613bda565b91505092915050565b60008060408385031215613d9157613d9061574b565b5b6000613d9f85828601613bda565b9250506020613db085828601613bda565b9150509250929050565b600080600080600060a08688031215613dd657613dd561574b565b5b6000613de488828901613bda565b9550506020613df588828901613bda565b945050604086013567ffffffffffffffff811115613e1657613e15615746565b5b613e2288828901613c1d565b935050606086013567ffffffffffffffff811115613e4357613e42615746565b5b613e4f88828901613c1d565b925050608086013567ffffffffffffffff811115613e7057613e6f615746565b5b613e7c88828901613cb4565b9150509295509295909350565b600080600080600060a08688031215613ea557613ea461574b565b5b6000613eb388828901613bda565b9550506020613ec488828901613bda565b9450506040613ed588828901613d38565b9350506060613ee688828901613d38565b925050608086013567ffffffffffffffff811115613f0757613f06615746565b5b613f1388828901613cb4565b9150509295509295909350565b60008060408385031215613f3757613f3661574b565b5b6000613f4585828601613bda565b9250506020613f5685828601613c4b565b9150509250929050565b60008060408385031215613f7757613f7661574b565b5b6000613f8585828601613bda565b9250506020613f9685828601613d38565b9150509250929050565b60008060408385031215613fb757613fb661574b565b5b600083013567ffffffffffffffff811115613fd557613fd4615746565b5b613fe185828601613bef565b925050602083013567ffffffffffffffff81111561400257614001615746565b5b61400e85828601613c1d565b9150509250929050565b60006020828403121561402e5761402d61574b565b5b600061403c84828501613c60565b91505092915050565b60006020828403121561405b5761405a61574b565b5b600061406984828501613c75565b91505092915050565b600080604083850312156140895761408861574b565b5b600061409785828601613c60565b92505060206140a885828601613bda565b9150509250929050565b600080604083850312156140c9576140c861574b565b5b60006140d785828601613c60565b92505060206140e885828601613d38565b9150509250929050565b6000602082840312156141085761410761574b565b5b600061411684828501613c8a565b91505092915050565b6000602082840312156141355761413461574b565b5b600061414384828501613c9f565b91505092915050565b6000806000806000606086880312156141685761416761574b565b5b600086013567ffffffffffffffff81111561418657614185615746565b5b61419288828901613ce2565b9550955050602086013567ffffffffffffffff8111156141b5576141b4615746565b5b6141c188828901613ce2565b9350935050604086013567ffffffffffffffff8111156141e4576141e3615746565b5b6141f088828901613cb4565b9150509295509295909350565b6000602082840312156142135761421261574b565b5b600061422184828501613d38565b91505092915050565b600080600080606085870312156142445761424361574b565b5b600061425287828801613d38565b945050602085013567ffffffffffffffff81111561427357614272615746565b5b61427f87828801613ce2565b9350935050604085013567ffffffffffffffff8111156142a2576142a1615746565b5b6142ae87828801613cb4565b91505092959194509250565b600080604083850312156142d1576142d061574b565b5b60006142df85828601613d38565b92505060206142f085828601613d38565b9150509250929050565b6000806000606084860312156143135761431261574b565b5b600061432186828701613d38565b935050602061433286828701613d38565b925050604061434386828701613bda565b9150509250925092565b600080600080608085870312156143675761436661574b565b5b600061437587828801613d38565b945050602061438687828801613d38565b935050604061439787828801613bda565b92505060606143a887828801613c4b565b91505092959194509250565b6000806000806000608086880312156143d0576143cf61574b565b5b60006143de88828901613d38565b95505060206143ef88828901613d38565b945050604061440088828901613bda565b935050606086013567ffffffffffffffff81111561442157614420615746565b5b61442d88828901613ce2565b92509250509295509295909350565b60006144488383614af4565b60208301905092915050565b61445d81615446565b82525050565b61446c81615446565b82525050565b600061447d826152b1565b61448781856152df565b93506144928361528c565b8060005b838110156144c35781516144aa888261443c565b97506144b5836152d2565b925050600181019050614496565b5085935050505092915050565b6144d981615458565b82525050565b6144e881615464565b82525050565b6144f78161546e565b82525050565b6000614508826152bc565b61451281856152f0565b93506145228185602086016154f2565b61452b81615750565b840191505092915050565b60006145428385615312565b935061454f8385846154e3565b61455883615750565b840190509392505050565b600061456e826152c7565b6145788185615301565b93506145888185602086016154f2565b61459181615750565b840191505092915050565b60006145a7826152c7565b6145b18185615312565b93506145c18185602086016154f2565b6145ca81615750565b840191505092915050565b60006145e0826152c7565b6145ea8185615323565b93506145fa8185602086016154f2565b80840191505092915050565b600081546146138161554f565b61461d8186615323565b9450600182166000811461463857600181146146495761467c565b60ff1983168652818601935061467c565b6146528561529c565b60005b8381101561467457815481890152600182019150602081019050614655565b838801955050505b50505092915050565b6000614692603483615312565b915061469d8261576e565b604082019050919050565b60006146b5602583615312565b91506146c0826157bd565b604082019050919050565b60006146d8602083615312565b91506146e38261580c565b602082019050919050565b60006146fb602883615312565b915061470682615835565b604082019050919050565b600061471e602b83615312565b915061472982615884565b604082019050919050565b6000614741601e83615312565b915061474c826158d3565b602082019050919050565b6000614764602f83615312565b915061476f826158fc565b604082019050919050565b6000614787602983615312565b91506147928261594b565b604082019050919050565b60006147aa601783615312565b91506147b58261599a565b602082019050919050565b60006147cd603e83615312565b91506147d8826159c3565b604082019050919050565b60006147f0600583615323565b91506147fb82615a12565b600582019050919050565b6000614813602f83615312565b915061481e82615a3b565b604082019050919050565b6000614836602583615312565b915061484182615a8a565b604082019050919050565b6000614859603283615312565b915061486482615ad9565b604082019050919050565b600061487c603883615312565b915061488782615b28565b604082019050919050565b600061489f602a83615312565b91506148aa82615b77565b604082019050919050565b60006148c2600483615323565b91506148cd82615bc6565b600482019050919050565b60006148e5603983615312565b91506148f082615bef565b604082019050919050565b6000614908601b83615312565b915061491382615c3e565b602082019050919050565b600061492b601783615323565b915061493682615c67565b601782019050919050565b600061494e602983615312565b915061495982615c90565b604082019050919050565b6000614971602983615312565b915061497c82615cdf565b604082019050919050565b6000614994600683615323565b915061499f82615d2e565b600682019050919050565b60006149b7602883615312565b91506149c282615d57565b604082019050919050565b60006149da602183615312565b91506149e582615da6565b604082019050919050565b60006149fd603183615312565b9150614a0882615df5565b604082019050919050565b6000614a20601183615323565b9150614a2b82615e44565b601182019050919050565b6000614a43602f83615312565b9150614a4e82615e6d565b604082019050919050565b60006040830160008301518482036000860152614a768282614563565b91505060208301518482036020860152614a908282614563565b9150508091505092915050565b6000606083016000830151614ab56000860182614454565b5060208301518482036020860152614acd8282614563565b91505060408301518482036040860152614ae78282614563565b9150508091505092915050565b614afd816154ba565b82525050565b614b0c816154ba565b82525050565b614b1b816154d1565b82525050565b6000614b2d8284614606565b915081905092915050565b6000614b43826147e3565b9150819050919050565b6000614b58826148b5565b9150819050919050565b6000614b6d8261491e565b9150614b7982856145d5565b9150614b8482614a13565b9150614b9082846145d5565b91508190509392505050565b6000614ba782614987565b9150819050919050565b6000602082019050614bc66000830184614463565b92915050565b600060a082019050614be16000830188614463565b614bee6020830187614463565b8181036040830152614c008186614472565b90508181036060830152614c148185614472565b90508181036080830152614c2881846144fd565b90509695505050505050565b600060a082019050614c496000830188614463565b614c566020830187614463565b614c636040830186614b03565b614c706060830185614b03565b8181036080830152614c8281846144fd565b90509695505050505050565b60006020820190508181036000830152614ca88184614472565b905092915050565b60006040820190508181036000830152614cca8185614472565b90508181036020830152614cde8184614472565b90509392505050565b6000602082019050614cfc60008301846144d0565b92915050565b6000602082019050614d1760008301846144df565b92915050565b6000602082019050614d3260008301846144ee565b92915050565b60006020820190508181036000830152614d52818461459c565b905092915050565b60006020820190508181036000830152614d7381614685565b9050919050565b60006020820190508181036000830152614d93816146a8565b9050919050565b60006020820190508181036000830152614db3816146cb565b9050919050565b60006020820190508181036000830152614dd3816146ee565b9050919050565b60006020820190508181036000830152614df381614711565b9050919050565b60006020820190508181036000830152614e1381614734565b9050919050565b60006020820190508181036000830152614e3381614757565b9050919050565b60006020820190508181036000830152614e538161477a565b9050919050565b60006020820190508181036000830152614e738161479d565b9050919050565b60006020820190508181036000830152614e93816147c0565b9050919050565b60006020820190508181036000830152614eb381614806565b9050919050565b60006020820190508181036000830152614ed381614829565b9050919050565b60006020820190508181036000830152614ef38161484c565b9050919050565b60006020820190508181036000830152614f138161486f565b9050919050565b60006020820190508181036000830152614f3381614892565b9050919050565b60006020820190508181036000830152614f53816148d8565b9050919050565b60006020820190508181036000830152614f73816148fb565b9050919050565b60006020820190508181036000830152614f9381614941565b9050919050565b60006020820190508181036000830152614fb381614964565b9050919050565b60006020820190508181036000830152614fd3816149aa565b9050919050565b60006020820190508181036000830152614ff3816149cd565b9050919050565b60006020820190508181036000830152615013816149f0565b9050919050565b6000602082019050818103600083015261503381614a36565b9050919050565b600060208201905081810360008301526150548184614a59565b905092915050565b600060208201905081810360008301526150768184614a9d565b905092915050565b60006020820190506150936000830184614b03565b92915050565b60006040820190506150ae6000830185614b03565b6150bb60208301846144d0565b9392505050565b60006060820190506150d76000830187614b03565b81810360208301526150ea818587614536565b905081810360408301526150fe81846144fd565b905095945050505050565b600060408201905061511e6000830185614b03565b61512b6020830184614b03565b9392505050565b60006080820190506151476000830188614b03565b6151546020830187614b03565b6151616040830186614463565b8181036060830152615174818486614536565b90509695505050505050565b60006080820190506151956000830189614b12565b81810360208301526151a8818789614536565b905081810360408301526151bd818587614536565b905081810360608301526151d181846144fd565b9050979650505050505050565b60006151e86151f9565b90506151f48282615581565b919050565b6000604051905090565b600067ffffffffffffffff82111561521e5761521d6156e1565b5b602082029050602081019050919050565b600067ffffffffffffffff82111561524a576152496156e1565b5b602082029050602081019050919050565b600067ffffffffffffffff821115615276576152756156e1565b5b61527f82615750565b9050602081019050919050565b6000819050602082019050919050565b60008190508160005260206000209050919050565b600081519050919050565b600081519050919050565b600081519050919050565b6000602082019050919050565b600082825260208201905092915050565b600082825260208201905092915050565b600082825260208201905092915050565b600082825260208201905092915050565b600081905092915050565b6000615339826154ba565b9150615344836154ba565b9250827fffffffffffffffffffffffffffffffffffffffffffffffffffffffffffffffff0382111561537957615378615625565b5b828201905092915050565b600061538f826154ba565b915061539a836154ba565b9250817fffffffffffffffffffffffffffffffffffffffffffffffffffffffffffffffff04831182151516156153d3576153d2615625565b5b828202905092915050565b60006153e9826154ba565b91506153f4836154ba565b92508282101561540757615406615625565b5b828203905092915050565b600061541d826154c4565b9150615428836154c4565b92508282101561543b5761543a615625565b5b828203905092915050565b60006154518261549a565b9050919050565b60008115159050919050565b6000819050919050565b60007fffffffff0000000000000000000000000000000000000000000000000000000082169050919050565b600073ffffffffffffffffffffffffffffffffffffffff82169050919050565b6000819050919050565b600060ff82169050919050565b60006154dc826154c4565b9050919050565b82818337600083830152505050565b60005b838110156155105780820151818401526020810190506154f5565b8381111561551f576000848401525b50505050565b6000615530826154ba565b9150600082141561554457615543615625565b5b600182039050919050565b6000600282049050600182168061556757607f821691505b6020821081141561557b5761557a615654565b5b50919050565b61558a82615750565b810181811067ffffffffffffffff821117156155a9576155a86156e1565b5b80604052505050565b60006155bd826154ba565b91507fffffffffffffffffffffffffffffffffffffffffffffffffffffffffffffffff8214156155f0576155ef615625565b5b600182019050919050565b6000615606826154c4565b915060ff82141561561a57615619615625565b5b600182019050919050565b7f4e487b7100000000000000000000000000000000000000000000000000000000600052601160045260246000fd5b7f4e487b7100000000000000000000000000000000000000000000000000000000600052602260045260246000fd5b7f4e487b7100000000000000000000000000000000000000000000000000000000600052603160045260246000fd5b7f4e487b7100000000000000000000000000000000000000000000000000000000600052603260045260246000fd5b7f4e487b7100000000000000000000000000000000000000000000000000000000600052604160045260246000fd5b600060033d111561572f5760046000803e61572c600051615761565b90505b90565b600080fd5b600080fd5b600080fd5b600080fd5b600080fd5b600080fd5b6000601f19601f8301169050919050565b60008160e01c9050919050565b7f455243313135353a207472616e7366657220746f206e6f6e204552433131353560008201527f526563656976657220696d706c656d656e746572000000000000000000000000602082015250565b7f546865206164647265737320646f6e2774206861766520746865207065726d6960008201527f7373696f6e000000000000000000000000000000000000000000000000000000602082015250565b7f537472696e67733a20686578206c656e67746820696e73756666696369656e74600082015250565b7f455243313135353a204552433131353552656365697665722072656a6563746560008201527f6420746f6b656e73000000000000000000000000000000000000000000000000602082015250565b7f455243313135353a2062616c616e636520717565727920666f7220746865207a60008201527f65726f2061646472657373000000000000000000000000000000000000000000602082015250565b7f546865207065726d697373696f6e20697320616c726561647920676176650000600082015250565b7f54686520737461747573206f66207468697320746f6b656e2063616e2774206260008201527f65207365742061732027736f6c64270000000000000000000000000000000000602082015250565b7f455243313135353a2063616c6c6572206973206e6f74206f776e6572206e6f7260008201527f20617070726f7665640000000000000000000000000000000000000000000000602082015250565b7f54686520746f6b656e20646f206e6f7420657869737473000000000000000000600082015250565b7f596f7520646f6e2774206861766520746865207065726d697373696f6e20746f60008201527f20656469742074686520737461747573206f66207468697320746f6b656e0000602082015250565b7f6f776e6564000000000000000000000000000000000000000000000000000000600082015250565b7f596f7520646f6e2774206861766520746865207065726d697373696f6e20746f60008201527f2067697665206f776e6572736869700000000000000000000000000000000000602082015250565b7f455243313135353a207472616e7366657220746f20746865207a65726f20616460008201527f6472657373000000000000000000000000000000000000000000000000000000602082015250565b7f455243313135353a207472616e736665722063616c6c6572206973206e6f742060008201527f6f776e6572206e6f7220617070726f7665640000000000000000000000000000602082015250565b7f455243313135355072657365744d696e7465725061757365723a206d7573742060008201527f68617665206d696e74657220726f6c6520746f206d696e740000000000000000602082015250565b7f455243313135353a20696e73756666696369656e742062616c616e636520666f60008201527f72207472616e7366657200000000000000000000000000000000000000000000602082015250565b7f736f6c6400000000000000000000000000000000000000000000000000000000600082015250565b7f596f75206e65656420746f20736574757020746865207665726966696361746960008201527f6f6e20636f6e7472616374206164647265737320666972737400000000000000602082015250565b7f5468697320746f6b656e2063616e277420626520636c61696d65640000000000600082015250565b7f416363657373436f6e74726f6c3a206163636f756e7420000000000000000000600082015250565b7f455243313135353a2073657474696e6720617070726f76616c2073746174757360008201527f20666f722073656c660000000000000000000000000000000000000000000000602082015250565b7f455243313135353a206163636f756e747320616e6420696473206c656e67746860008201527f206d69736d617463680000000000000000000000000000000000000000000000602082015250565b7f6d696e7465640000000000000000000000000000000000000000000000000000600082015250565b7f455243313135353a2069647320616e6420616d6f756e7473206c656e6774682060008201527f6d69736d61746368000000000000000000000000000000000000000000000000602082015250565b7f455243313135353a206d696e7420746f20746865207a65726f2061646472657360008201527f7300000000000000000000000000000000000000000000000000000000000000602082015250565b7f54686520737461747573206f66207468697320746f6b656e2063616e2774206260008201527f6520736574206173202773746f6c656e27000000000000000000000000000000602082015250565b7f206973206d697373696e6720726f6c6520000000000000000000000000000000600082015250565b7f416363657373436f6e74726f6c3a2063616e206f6e6c792072656e6f756e636560008201527f20726f6c657320666f722073656c660000000000000000000000000000000000602082015250565b600060443d1015615ecc57615f4f565b615ed46151f9565b60043d036004823e80513d602482011167ffffffffffffffff82111715615efc575050615f4f565b808201805167ffffffffffffffff811115615f1a5750505050615f4f565b80602083010160043d038501811115615f37575050505050615f4f565b615f4682602001850186615581565b82955050505050505b90565b615f5b81615446565b8114615f6657600080fd5b50565b615f7281615458565b8114615f7d57600080fd5b50565b615f8981615464565b8114615f9457600080fd5b50565b615fa08161546e565b8114615fab57600080fd5b50565b615fb7816154ba565b8114615fc257600080fd5b5056fea2646970667358221220ae8fb3c7072070627bf017b6d190909a174ec692482fba045fad35360688eb6264736f6c63430008070033",
  "immutableReferences": {},
  "source": "pragma solidity ^0.8.7;\r\n\r\nimport \"./interfaces/INFCool.sol\";\r\nimport \"./interfaces/IPhoneVerification.sol\";\r\nimport \"./ERC1155Access.sol\";\r\nimport \"@openzeppelin/contracts/token/ERC1155/utils/ERC1155Holder.sol\";\r\n\r\ncontract NFCool is INFCool, ERC1155Access, ERC1155Holder {\r\n    string brandName;\r\n    uint8 tokensCount;\r\n\r\n    address private _verificationContract;\r\n\r\n    mapping (uint256 => uint256) private _tokenUnitsCount;\r\n    mapping(uint256 => TokenData) private _tokenData;\r\n    mapping(uint256 => mapping(uint256 => TokenUnitData)) private _tokenUnitData;\r\n    mapping(uint256 => mapping(uint256 => address)) private _claimPermissions;\r\n\r\n    constructor(string memory _brandName) ERC1155Access(\"\") {\r\n        brandName = _brandName;\r\n    }\r\n\r\n    function getBrandName() external view returns (string memory) {\r\n        return brandName;\r\n    }\r\n\r\n    function haveClaimPermission(uint256 tokenId, uint256 unitId, address account) public view returns (bool) {\r\n        return account == _claimPermissions[tokenId][unitId];\r\n    }\r\n\r\n    function allBalancesOf(address account) public view returns (uint256[] memory){\r\n        uint[] memory amounts = new uint[](tokensCount);\r\n\r\n        for (uint i = 0 ; i < tokensCount ; i++) {\r\n            amounts[i] = balanceOf(account, i);\r\n        }\r\n        return amounts;\r\n    }\r\n\r\n    function getTokensCount() public view virtual override returns (uint256) {\r\n        return tokensCount;\r\n    }\r\n\r\n    function tokenData(uint256 tokenId) public view virtual override returns (TokenData memory) {\r\n        return _tokenData[tokenId];\r\n    }\r\n\r\n    function tokenUnitData(uint256 tokenId, uint256 tokenUnitId) public view virtual override returns (TokenUnitData memory) {\r\n        return _tokenUnitData[tokenId][tokenUnitId];\r\n    }\r\n\r\n    function mintToken(string calldata tokenUri, string calldata tokenName, bytes memory data) external virtual override returns (uint256) {\r\n        require(hasRole(MINTER_ROLE, _msgSender()), \"ERC1155PresetMinterPauser: must have minter role to mint\");\r\n\r\n        _mint(address(this), tokensCount, 0, data);\r\n        _tokenData[tokensCount] = TokenData(tokenUri, tokenName);\r\n\r\n        emit TokenMinted(tokensCount, tokenUri, tokenName, data);\r\n\r\n        tokensCount++;\r\n        return tokensCount - 1;\r\n    }\r\n\r\n    function mintTokenUnit(uint256 tokenId, string calldata nfcId, bytes memory data) external virtual override returns (uint256) {\r\n        require(hasRole(MINTER_ROLE, _msgSender()), \"ERC1155PresetMinterPauser: must have minter role to mint\");\r\n        require(_exists(tokenId), \"The token do not exists\");\r\n\r\n        _mint(address(this), tokenId, 1, data);\r\n        _tokenUnitData[tokenId][_tokenUnitsCount[tokenId]] = TokenUnitData(address(this), nfcId, \"minted\");\r\n\r\n        emit TokenUnitMinted(tokenId, _tokenUnitsCount[tokenId], nfcId, data);\r\n\r\n        _tokenUnitsCount[tokenId]++;\r\n\r\n        return _tokenUnitsCount[tokenId] - 1;\r\n    }\r\n\r\n    function requestPhoneVerification(uint256 tokenId, uint256 unitId, address to, string calldata pin) external virtual override returns (bytes32 requestId) {\r\n        require(_verificationContract != address(0), \"You need to setup the verification contract address first\");\r\n        require(haveClaimPermission(tokenId, unitId, address(0)), \"The permission is already gave\");\r\n        require(keccak256(abi.encodePacked(_tokenUnitData[tokenId][unitId].status)) == keccak256(abi.encodePacked(\"sold\")), \"This token can't be claimed\");\r\n\r\n        return IPhoneVerification(_verificationContract).requestOwnership(tokenId, unitId, to, pin);\r\n    }\r\n\r\n    function ownershipPermission(uint256 tokenId, uint256 unitId, address to, bool valid) external virtual override {\r\n        require(msg.sender == _verificationContract, \"You don't have the permission to give ownership\");\r\n\r\n        _claimPermissions[tokenId][unitId] = to;\r\n\r\n        emit OwnershipPermissionGave(tokenId, unitId, to, valid);\r\n    }\r\n\r\n    function claimOwnership(uint256 tokenId, uint256 unitId, address to) external virtual override {\r\n        require(haveClaimPermission(tokenId, unitId, to), \"The address don't have the permission\");\r\n        require(keccak256(abi.encodePacked(_tokenUnitData[tokenId][unitId].status)) == keccak256(abi.encodePacked(\"sold\")), \"This token can't be claimed\");\r\n\r\n        _tokenUnitData[tokenId][unitId].status = \"owned\";\r\n        _safeUnitTransferFrom(address(this), to, tokenId, unitId, '');\r\n    }\r\n\r\n    function safeUnitTransferFrom(\r\n        address from,\r\n        address to,\r\n        uint256 tokenId,\r\n        uint256 unitId,\r\n        bytes memory data\r\n    ) public virtual override {\r\n        require(\r\n            from == _msgSender() || isApprovedForAll(from, _msgSender()),\r\n            \"ERC1155: caller is not owner nor approved\"\r\n        );\r\n        _safeUnitTransferFrom(from, to, tokenId, unitId, data);\r\n    }\r\n\r\n    function _safeUnitTransferFrom(\r\n        address from,\r\n        address to,\r\n        uint256 tokenId,\r\n        uint256 unitId,\r\n        bytes memory data\r\n    ) internal virtual {\r\n        _tokenUnitData[tokenId][unitId].owner = to;\r\n        _safeTransferFrom(from, to, tokenId, 1, data);\r\n    }\r\n\r\n    function setVerificationContract(address contractAdr) external virtual override {\r\n        require(hasRole(DEFAULT_ADMIN_ROLE, _msgSender()), \"ERC1155PresetMinterPauser: must have minter role to mint\");\r\n        _verificationContract = contractAdr;\r\n    }\r\n\r\n    function unitSold(uint256 tokenId, uint256 unitId) external {\r\n        require(hasRole(MINTER_ROLE, _msgSender()), \"ERC1155PresetMinterPauser: must have minter role to mint\");\r\n        require(keccak256(abi.encodePacked(_tokenUnitData[tokenId][unitId].status)) == keccak256(abi.encodePacked('minted')), \"The status of this token can't be set as 'sold'\");\r\n\r\n        _tokenUnitData[tokenId][unitId].status = \"sold\";\r\n    }\r\n\r\n    function unitStolen(uint256 tokenId, uint256 unitId) external {\r\n        require(_isOwner(tokenId, unitId, msg.sender), \"You don't have the permission to edit the status of this token\");\r\n        require(keccak256(abi.encodePacked(_tokenUnitData[tokenId][unitId].status)) == keccak256(abi.encodePacked('owned')), \"The status of this token can't be set as 'stolen'\");\r\n\r\n        _tokenUnitData[tokenId][unitId].status = \"stolen\";\r\n    }\r\n\r\n    function supportsInterface(bytes4 interfaceId) public view virtual override(ERC1155Access, ERC1155Receiver) returns (bool) {\r\n        return super.supportsInterface(interfaceId);\r\n    }\r\n\r\n    function _setTokenURI(uint256 tokenId, string memory _tokenURI) internal virtual {\r\n        _tokenData[tokenId].uri = _tokenURI;\r\n    }\r\n\r\n    function _exists(uint256 tokenId) private view returns (bool) {\r\n        return tokenId < tokensCount;\r\n    }\r\n\r\n    function _isOwner(uint256 tokenId, uint256 unitId, address account) private view returns (bool) {\r\n        return _tokenUnitData[tokenId][unitId].owner == account;\r\n    }\r\n}\r\n",
  "sourcePath": "C:\\Users\\smlvi\\WebstormProjects\\nfcool-smart-contracts\\contracts\\NFCool.sol",
  "compiler": {
    "name": "solc",
    "version": "0.8.7+commit.e28d00a7.Emscripten.clang"
  },
  "schemaVersion": "3.4.3",
  "updatedAt": "2021-11-24T16:40:17.852Z",
  "devdoc": {
    "kind": "dev",
    "methods": {
      "balanceOf(address,uint256)": {
        "details": "See {IERC1155-balanceOf}. Requirements: - `account` cannot be the zero address."
      },
      "balanceOfBatch(address[],uint256[])": {
        "details": "See {IERC1155-balanceOfBatch}. Requirements: - `accounts` and `ids` must have the same length."
      },
      "getRoleAdmin(bytes32)": {
        "details": "Returns the admin role that controls `role`. See {grantRole} and {revokeRole}. To change a role's admin, use {_setRoleAdmin}."
      },
      "getRoleMember(bytes32,uint256)": {
        "details": "Returns one of the accounts that have `role`. `index` must be a value between 0 and {getRoleMemberCount}, non-inclusive. Role bearers are not sorted in any particular way, and their ordering may change at any point. WARNING: When using {getRoleMember} and {getRoleMemberCount}, make sure you perform all queries on the same block. See the following https://forum.openzeppelin.com/t/iterating-over-elements-on-enumerableset-in-openzeppelin-contracts/2296[forum post] for more information."
      },
      "getRoleMemberCount(bytes32)": {
        "details": "Returns the number of accounts that have `role`. Can be used together with {getRoleMember} to enumerate all bearers of a role."
      },
      "grantRole(bytes32,address)": {
        "details": "Overload {grantRole} to track enumerable memberships"
      },
      "hasRole(bytes32,address)": {
        "details": "Returns `true` if `account` has been granted `role`."
      },
      "isApprovedForAll(address,address)": {
        "details": "See {IERC1155-isApprovedForAll}."
      },
      "renounceRole(bytes32,address)": {
        "details": "Overload {renounceRole} to track enumerable memberships"
      },
      "revokeRole(bytes32,address)": {
        "details": "Overload {revokeRole} to track enumerable memberships"
      },
      "safeBatchTransferFrom(address,address,uint256[],uint256[],bytes)": {
        "details": "See {IERC1155-safeBatchTransferFrom}."
      },
      "safeTransferFrom(address,address,uint256,uint256,bytes)": {
        "details": "See {IERC1155-safeTransferFrom}."
      },
      "setApprovalForAll(address,bool)": {
        "details": "See {IERC1155-setApprovalForAll}."
      },
      "uri(uint256)": {
        "details": "See {IERC1155MetadataURI-uri}. This implementation returns the same URI for *all* token types. It relies on the token type ID substitution mechanism https://eips.ethereum.org/EIPS/eip-1155#metadata[defined in the EIP]. Clients calling this function must replace the `\\{id\\}` substring with the actual token type ID."
      }
    },
    "version": 1
  },
  "userdoc": {
    "kind": "user",
    "methods": {},
    "version": 1
  }
}