{
  "contractName": "NFCool",
  "abi": [
    {
      "inputs": [
        {
          "internalType": "string",
          "name": "_brandName",
          "type": "string"
        },
        {
          "internalType": "address",
          "name": "verificationContract",
          "type": "address"
        }
      ],
      "stateMutability": "nonpayable",
      "type": "constructor"
    },
    {
      "anonymous": false,
      "inputs": [
        {
          "indexed": true,
          "internalType": "address",
          "name": "account",
          "type": "address"
        },
        {
          "indexed": true,
          "internalType": "address",
          "name": "operator",
          "type": "address"
        },
        {
          "indexed": false,
          "internalType": "bool",
          "name": "approved",
          "type": "bool"
        }
      ],
      "name": "ApprovalForAll",
      "type": "event"
    },
    {
      "anonymous": false,
      "inputs": [
        {
          "indexed": true,
          "internalType": "uint256",
          "name": "tokenId",
          "type": "uint256"
        },
        {
          "indexed": false,
          "internalType": "uint256",
          "name": "unitId",
          "type": "uint256"
        },
        {
          "indexed": true,
          "internalType": "address",
          "name": "to",
          "type": "address"
        },
        {
          "indexed": false,
          "internalType": "bool",
          "name": "valid",
          "type": "bool"
        }
      ],
      "name": "OwnershipPermissionGave",
      "type": "event"
    },
    {
      "anonymous": false,
      "inputs": [
        {
          "indexed": true,
          "internalType": "bytes32",
          "name": "role",
          "type": "bytes32"
        },
        {
          "indexed": true,
          "internalType": "bytes32",
          "name": "previousAdminRole",
          "type": "bytes32"
        },
        {
          "indexed": true,
          "internalType": "bytes32",
          "name": "newAdminRole",
          "type": "bytes32"
        }
      ],
      "name": "RoleAdminChanged",
      "type": "event"
    },
    {
      "anonymous": false,
      "inputs": [
        {
          "indexed": true,
          "internalType": "bytes32",
          "name": "role",
          "type": "bytes32"
        },
        {
          "indexed": true,
          "internalType": "address",
          "name": "account",
          "type": "address"
        },
        {
          "indexed": true,
          "internalType": "address",
          "name": "sender",
          "type": "address"
        }
      ],
      "name": "RoleGranted",
      "type": "event"
    },
    {
      "anonymous": false,
      "inputs": [
        {
          "indexed": true,
          "internalType": "bytes32",
          "name": "role",
          "type": "bytes32"
        },
        {
          "indexed": true,
          "internalType": "address",
          "name": "account",
          "type": "address"
        },
        {
          "indexed": true,
          "internalType": "address",
          "name": "sender",
          "type": "address"
        }
      ],
      "name": "RoleRevoked",
      "type": "event"
    },
    {
      "anonymous": false,
      "inputs": [
        {
          "indexed": false,
          "internalType": "uint256",
          "name": "tokenId",
          "type": "uint256"
        },
        {
          "indexed": false,
          "internalType": "string",
          "name": "tokenUri",
          "type": "string"
        },
        {
          "indexed": false,
          "internalType": "string",
          "name": "tokenName",
          "type": "string"
        },
        {
          "indexed": false,
          "internalType": "bytes",
          "name": "data",
          "type": "bytes"
        }
      ],
      "name": "TokenMinted",
      "type": "event"
    },
    {
      "anonymous": false,
      "inputs": [
        {
          "indexed": true,
          "internalType": "uint256",
          "name": "tokenId",
          "type": "uint256"
        },
        {
          "indexed": false,
          "internalType": "uint256",
          "name": "unitId",
          "type": "uint256"
        },
        {
          "indexed": false,
          "internalType": "string",
          "name": "nfcId",
          "type": "string"
        },
        {
          "indexed": false,
          "internalType": "bytes",
          "name": "data",
          "type": "bytes"
        }
      ],
      "name": "TokenUnitMinted",
      "type": "event"
    },
    {
      "anonymous": false,
      "inputs": [
        {
          "indexed": true,
          "internalType": "address",
          "name": "operator",
          "type": "address"
        },
        {
          "indexed": true,
          "internalType": "address",
          "name": "from",
          "type": "address"
        },
        {
          "indexed": true,
          "internalType": "address",
          "name": "to",
          "type": "address"
        },
        {
          "indexed": false,
          "internalType": "uint256[]",
          "name": "ids",
          "type": "uint256[]"
        },
        {
          "indexed": false,
          "internalType": "uint256[]",
          "name": "values",
          "type": "uint256[]"
        }
      ],
      "name": "TransferBatch",
      "type": "event"
    },
    {
      "anonymous": false,
      "inputs": [
        {
          "indexed": true,
          "internalType": "address",
          "name": "operator",
          "type": "address"
        },
        {
          "indexed": true,
          "internalType": "address",
          "name": "from",
          "type": "address"
        },
        {
          "indexed": true,
          "internalType": "address",
          "name": "to",
          "type": "address"
        },
        {
          "indexed": false,
          "internalType": "uint256",
          "name": "id",
          "type": "uint256"
        },
        {
          "indexed": false,
          "internalType": "uint256",
          "name": "value",
          "type": "uint256"
        }
      ],
      "name": "TransferSingle",
      "type": "event"
    },
    {
      "anonymous": false,
      "inputs": [
        {
          "indexed": false,
          "internalType": "string",
          "name": "value",
          "type": "string"
        },
        {
          "indexed": true,
          "internalType": "uint256",
          "name": "id",
          "type": "uint256"
        }
      ],
      "name": "URI",
      "type": "event"
    },
    {
      "inputs": [],
      "name": "DEFAULT_ADMIN_ROLE",
      "outputs": [
        {
          "internalType": "bytes32",
          "name": "",
          "type": "bytes32"
        }
      ],
      "stateMutability": "view",
      "type": "function"
    },
    {
      "inputs": [],
      "name": "MINTER_ROLE",
      "outputs": [
        {
          "internalType": "bytes32",
          "name": "",
          "type": "bytes32"
        }
      ],
      "stateMutability": "view",
      "type": "function"
    },
    {
      "inputs": [],
      "name": "SELLER_ROLE",
      "outputs": [
        {
          "internalType": "bytes32",
          "name": "",
          "type": "bytes32"
        }
      ],
      "stateMutability": "view",
      "type": "function"
    },
    {
      "inputs": [],
      "name": "SUPPLIER_ROLE",
      "outputs": [
        {
          "internalType": "bytes32",
          "name": "",
          "type": "bytes32"
        }
      ],
      "stateMutability": "view",
      "type": "function"
    },
    {
      "inputs": [
        {
          "internalType": "address",
          "name": "account",
          "type": "address"
        },
        {
          "internalType": "uint256",
          "name": "id",
          "type": "uint256"
        }
      ],
      "name": "balanceOf",
      "outputs": [
        {
          "internalType": "uint256",
          "name": "",
          "type": "uint256"
        }
      ],
      "stateMutability": "view",
      "type": "function"
    },
    {
      "inputs": [
        {
          "internalType": "address[]",
          "name": "accounts",
          "type": "address[]"
        },
        {
          "internalType": "uint256[]",
          "name": "ids",
          "type": "uint256[]"
        }
      ],
      "name": "balanceOfBatch",
      "outputs": [
        {
          "internalType": "uint256[]",
          "name": "",
          "type": "uint256[]"
        }
      ],
      "stateMutability": "view",
      "type": "function"
    },
    {
      "inputs": [
        {
          "internalType": "bytes32",
          "name": "role",
          "type": "bytes32"
        }
      ],
      "name": "getRoleAdmin",
      "outputs": [
        {
          "internalType": "bytes32",
          "name": "",
          "type": "bytes32"
        }
      ],
      "stateMutability": "view",
      "type": "function"
    },
    {
      "inputs": [
        {
          "internalType": "bytes32",
          "name": "role",
          "type": "bytes32"
        },
        {
          "internalType": "uint256",
          "name": "index",
          "type": "uint256"
        }
      ],
      "name": "getRoleMember",
      "outputs": [
        {
          "internalType": "address",
          "name": "",
          "type": "address"
        }
      ],
      "stateMutability": "view",
      "type": "function"
    },
    {
      "inputs": [
        {
          "internalType": "bytes32",
          "name": "role",
          "type": "bytes32"
        }
      ],
      "name": "getRoleMemberCount",
      "outputs": [
        {
          "internalType": "uint256",
          "name": "",
          "type": "uint256"
        }
      ],
      "stateMutability": "view",
      "type": "function"
    },
    {
      "inputs": [
        {
          "internalType": "bytes32",
          "name": "role",
          "type": "bytes32"
        },
        {
          "internalType": "address",
          "name": "account",
          "type": "address"
        }
      ],
      "name": "grantRole",
      "outputs": [],
      "stateMutability": "nonpayable",
      "type": "function"
    },
    {
      "inputs": [
        {
          "internalType": "bytes32",
          "name": "role",
          "type": "bytes32"
        },
        {
          "internalType": "address",
          "name": "account",
          "type": "address"
        }
      ],
      "name": "hasRole",
      "outputs": [
        {
          "internalType": "bool",
          "name": "",
          "type": "bool"
        }
      ],
      "stateMutability": "view",
      "type": "function"
    },
    {
      "inputs": [
        {
          "internalType": "address",
          "name": "account",
          "type": "address"
        },
        {
          "internalType": "address",
          "name": "operator",
          "type": "address"
        }
      ],
      "name": "isApprovedForAll",
      "outputs": [
        {
          "internalType": "bool",
          "name": "",
          "type": "bool"
        }
      ],
      "stateMutability": "view",
      "type": "function"
    },
    {
      "inputs": [
        {
          "internalType": "address",
          "name": "",
          "type": "address"
        },
        {
          "internalType": "address",
          "name": "",
          "type": "address"
        },
        {
          "internalType": "uint256[]",
          "name": "",
          "type": "uint256[]"
        },
        {
          "internalType": "uint256[]",
          "name": "",
          "type": "uint256[]"
        },
        {
          "internalType": "bytes",
          "name": "",
          "type": "bytes"
        }
      ],
      "name": "onERC1155BatchReceived",
      "outputs": [
        {
          "internalType": "bytes4",
          "name": "",
          "type": "bytes4"
        }
      ],
      "stateMutability": "nonpayable",
      "type": "function"
    },
    {
      "inputs": [
        {
          "internalType": "address",
          "name": "",
          "type": "address"
        },
        {
          "internalType": "address",
          "name": "",
          "type": "address"
        },
        {
          "internalType": "uint256",
          "name": "",
          "type": "uint256"
        },
        {
          "internalType": "uint256",
          "name": "",
          "type": "uint256"
        },
        {
          "internalType": "bytes",
          "name": "",
          "type": "bytes"
        }
      ],
      "name": "onERC1155Received",
      "outputs": [
        {
          "internalType": "bytes4",
          "name": "",
          "type": "bytes4"
        }
      ],
      "stateMutability": "nonpayable",
      "type": "function"
    },
    {
      "inputs": [
        {
          "internalType": "bytes32",
          "name": "role",
          "type": "bytes32"
        },
        {
          "internalType": "address",
          "name": "account",
          "type": "address"
        }
      ],
      "name": "renounceRole",
      "outputs": [],
      "stateMutability": "nonpayable",
      "type": "function"
    },
    {
      "inputs": [
        {
          "internalType": "bytes32",
          "name": "role",
          "type": "bytes32"
        },
        {
          "internalType": "address",
          "name": "account",
          "type": "address"
        }
      ],
      "name": "revokeRole",
      "outputs": [],
      "stateMutability": "nonpayable",
      "type": "function"
    },
    {
      "inputs": [
        {
          "internalType": "address",
          "name": "from",
          "type": "address"
        },
        {
          "internalType": "address",
          "name": "to",
          "type": "address"
        },
        {
          "internalType": "uint256[]",
          "name": "ids",
          "type": "uint256[]"
        },
        {
          "internalType": "uint256[]",
          "name": "amounts",
          "type": "uint256[]"
        },
        {
          "internalType": "bytes",
          "name": "data",
          "type": "bytes"
        }
      ],
      "name": "safeBatchTransferFrom",
      "outputs": [],
      "stateMutability": "nonpayable",
      "type": "function"
    },
    {
      "inputs": [
        {
          "internalType": "address",
          "name": "from",
          "type": "address"
        },
        {
          "internalType": "address",
          "name": "to",
          "type": "address"
        },
        {
          "internalType": "uint256",
          "name": "id",
          "type": "uint256"
        },
        {
          "internalType": "uint256",
          "name": "amount",
          "type": "uint256"
        },
        {
          "internalType": "bytes",
          "name": "data",
          "type": "bytes"
        }
      ],
      "name": "safeTransferFrom",
      "outputs": [],
      "stateMutability": "nonpayable",
      "type": "function"
    },
    {
      "inputs": [
        {
          "internalType": "address",
          "name": "operator",
          "type": "address"
        },
        {
          "internalType": "bool",
          "name": "approved",
          "type": "bool"
        }
      ],
      "name": "setApprovalForAll",
      "outputs": [],
      "stateMutability": "nonpayable",
      "type": "function"
    },
    {
      "inputs": [
        {
          "internalType": "uint256",
          "name": "",
          "type": "uint256"
        }
      ],
      "name": "uri",
      "outputs": [
        {
          "internalType": "string",
          "name": "",
          "type": "string"
        }
      ],
      "stateMutability": "view",
      "type": "function"
    },
    {
      "inputs": [],
      "name": "getBrandName",
      "outputs": [
        {
          "internalType": "string",
          "name": "",
          "type": "string"
        }
      ],
      "stateMutability": "view",
      "type": "function"
    },
    {
      "inputs": [
        {
          "internalType": "uint256",
          "name": "tokenId",
          "type": "uint256"
        },
        {
          "internalType": "uint256",
          "name": "unitId",
          "type": "uint256"
        },
        {
          "internalType": "address",
          "name": "account",
          "type": "address"
        }
      ],
      "name": "haveClaimPermission",
      "outputs": [
        {
          "internalType": "bool",
          "name": "",
          "type": "bool"
        }
      ],
      "stateMutability": "view",
      "type": "function"
    },
    {
      "inputs": [
        {
          "internalType": "address",
          "name": "account",
          "type": "address"
        }
      ],
      "name": "allBalancesOf",
      "outputs": [
        {
          "internalType": "uint256[]",
          "name": "",
          "type": "uint256[]"
        }
      ],
      "stateMutability": "view",
      "type": "function"
    },
    {
      "inputs": [],
      "name": "getTokensCount",
      "outputs": [
        {
          "internalType": "uint256",
          "name": "",
          "type": "uint256"
        }
      ],
      "stateMutability": "view",
      "type": "function"
    },
    {
      "inputs": [
        {
          "internalType": "uint256",
          "name": "tokenId",
          "type": "uint256"
        }
      ],
      "name": "tokenData",
      "outputs": [
        {
          "components": [
            {
              "internalType": "string",
              "name": "uri",
              "type": "string"
            },
            {
              "internalType": "string",
              "name": "name",
              "type": "string"
            }
          ],
          "internalType": "struct TokenData",
          "name": "",
          "type": "tuple"
        }
      ],
      "stateMutability": "view",
      "type": "function"
    },
    {
      "inputs": [
        {
          "internalType": "uint256",
          "name": "tokenId",
          "type": "uint256"
        },
        {
          "internalType": "uint256",
          "name": "tokenUnitId",
          "type": "uint256"
        }
      ],
      "name": "tokenUnitData",
      "outputs": [
        {
          "components": [
            {
              "internalType": "address",
              "name": "owner",
              "type": "address"
            },
            {
              "internalType": "string",
              "name": "nfcId",
              "type": "string"
            },
            {
              "internalType": "string",
              "name": "status",
              "type": "string"
            }
          ],
          "internalType": "struct TokenUnitData",
          "name": "",
          "type": "tuple"
        }
      ],
      "stateMutability": "view",
      "type": "function"
    },
    {
      "inputs": [
        {
          "internalType": "string",
          "name": "tokenUri",
          "type": "string"
        },
        {
          "internalType": "string",
          "name": "tokenName",
          "type": "string"
        },
        {
          "internalType": "bytes",
          "name": "data",
          "type": "bytes"
        }
      ],
      "name": "mintToken",
      "outputs": [
        {
          "internalType": "uint256",
          "name": "",
          "type": "uint256"
        }
      ],
      "stateMutability": "nonpayable",
      "type": "function"
    },
    {
      "inputs": [
        {
          "internalType": "uint256",
          "name": "tokenId",
          "type": "uint256"
        },
        {
          "internalType": "string",
          "name": "nfcId",
          "type": "string"
        },
        {
          "internalType": "bytes",
          "name": "data",
          "type": "bytes"
        }
      ],
      "name": "mintTokenUnit",
      "outputs": [
        {
          "internalType": "uint256",
          "name": "",
          "type": "uint256"
        }
      ],
      "stateMutability": "nonpayable",
      "type": "function"
    },
    {
      "inputs": [
        {
          "internalType": "uint256",
          "name": "tokenId",
          "type": "uint256"
        },
        {
          "internalType": "uint256",
          "name": "unitId",
          "type": "uint256"
        },
        {
          "internalType": "address",
          "name": "to",
          "type": "address"
        },
        {
          "internalType": "string",
          "name": "pin",
          "type": "string"
        }
      ],
      "name": "requestPhoneVerification",
      "outputs": [
        {
          "internalType": "bytes32",
          "name": "requestId",
          "type": "bytes32"
        }
      ],
      "stateMutability": "nonpayable",
      "type": "function"
    },
    {
      "inputs": [
        {
          "internalType": "uint256",
          "name": "tokenId",
          "type": "uint256"
        },
        {
          "internalType": "uint256",
          "name": "unitId",
          "type": "uint256"
        },
        {
          "internalType": "address",
          "name": "to",
          "type": "address"
        },
        {
          "internalType": "bool",
          "name": "valid",
          "type": "bool"
        }
      ],
      "name": "ownershipPermission",
      "outputs": [],
      "stateMutability": "nonpayable",
      "type": "function"
    },
    {
      "inputs": [
        {
          "internalType": "uint256",
          "name": "tokenId",
          "type": "uint256"
        },
        {
          "internalType": "uint256",
          "name": "unitId",
          "type": "uint256"
        },
        {
          "internalType": "address",
          "name": "to",
          "type": "address"
        }
      ],
      "name": "claimOwnership",
      "outputs": [],
      "stateMutability": "nonpayable",
      "type": "function"
    },
    {
      "inputs": [
        {
          "internalType": "address",
          "name": "from",
          "type": "address"
        },
        {
          "internalType": "address",
          "name": "to",
          "type": "address"
        },
        {
          "internalType": "uint256",
          "name": "tokenId",
          "type": "uint256"
        },
        {
          "internalType": "uint256",
          "name": "unitId",
          "type": "uint256"
        },
        {
          "internalType": "bytes",
          "name": "data",
          "type": "bytes"
        }
      ],
      "name": "safeUnitTransferFrom",
      "outputs": [],
      "stateMutability": "nonpayable",
      "type": "function"
    },
    {
      "inputs": [
        {
          "internalType": "uint256",
          "name": "tokenId",
          "type": "uint256"
        },
        {
          "internalType": "uint256",
          "name": "unitId",
          "type": "uint256"
        }
      ],
      "name": "unitSold",
      "outputs": [],
      "stateMutability": "nonpayable",
      "type": "function"
    },
    {
      "inputs": [
        {
          "internalType": "uint256",
          "name": "tokenId",
          "type": "uint256"
        },
        {
          "internalType": "uint256",
          "name": "unitId",
          "type": "uint256"
        }
      ],
      "name": "unitStolen",
      "outputs": [],
      "stateMutability": "nonpayable",
      "type": "function"
    },
    {
      "inputs": [
        {
          "internalType": "bytes4",
          "name": "interfaceId",
          "type": "bytes4"
        }
      ],
      "name": "supportsInterface",
      "outputs": [
        {
          "internalType": "bool",
          "name": "",
          "type": "bool"
        }
      ],
      "stateMutability": "view",
      "type": "function"
    }
  ],
  "bytecode": "0x60806040523480156200001157600080fd5b50604051620067ba380380620067ba83398181016040528101906200003791906200059b565b60405180602001604052806000815250806200005981620001a460201b60201c565b506200007e6000801b62000072620001c060201b60201c565b620001c860201b60201c565b620000bf7f9f2df0fed2c77648de5860a4cc508cd0818c85b8b8a1ab4ceeef8d981c8956a6620000b3620001c060201b60201c565b620001c860201b60201c565b620001007f43f25613eb2f15fb17222a5d424ca2655743e71265d98e4b93c05e5fb589ecde620000f4620001c060201b60201c565b620001c860201b60201c565b620001417fd1ae8bbdabd60d63e418b84f5ad6f9cba90092c9816d7724d85f0d4e4bea2c6062000135620001c060201b60201c565b620001c860201b60201c565b5081600590805190602001906200015a92919062000456565b5080600660016101000a81548173ffffffffffffffffffffffffffffffffffffffff021916908373ffffffffffffffffffffffffffffffffffffffff1602179055505050620007d3565b8060049080519060200190620001bc92919062000456565b5050565b600033905090565b620001df82826200021060201b6200222d1760201c565b6200020b81600160008581526020019081526020016000206200022660201b6200223b1790919060201c565b505050565b6200022282826200025e60201b60201c565b5050565b600062000256836000018373ffffffffffffffffffffffffffffffffffffffff1660001b6200034f60201b60201c565b905092915050565b620002708282620003c960201b60201c565b6200034b57600160008084815260200190815260200160002060000160008373ffffffffffffffffffffffffffffffffffffffff1673ffffffffffffffffffffffffffffffffffffffff16815260200190815260200160002060006101000a81548160ff021916908315150217905550620002f0620001c060201b60201c565b73ffffffffffffffffffffffffffffffffffffffff168173ffffffffffffffffffffffffffffffffffffffff16837f2f8788117e7eff1d82e926ec794901d17c78024a50270940304540a733656f0d60405160405180910390a45b5050565b60006200036383836200043360201b60201c565b620003be578260000182908060018154018082558091505060019003906000526020600020016000909190919091505582600001805490508360010160008481526020019081526020016000208190555060019050620003c3565b600090505b92915050565b600080600084815260200190815260200160002060000160008373ffffffffffffffffffffffffffffffffffffffff1673ffffffffffffffffffffffffffffffffffffffff16815260200190815260200160002060009054906101000a900460ff16905092915050565b600080836001016000848152602001908152602001600020541415905092915050565b8280546200046490620006ca565b90600052602060002090601f016020900481019282620004885760008555620004d4565b82601f10620004a357805160ff1916838001178555620004d4565b82800160010185558215620004d4579182015b82811115620004d3578251825591602001919060010190620004b6565b5b509050620004e39190620004e7565b5090565b5b8082111562000502576000816000905550600101620004e8565b5090565b60006200051d62000517846200062a565b62000601565b9050828152602081018484840111156200053c576200053b62000799565b5b6200054984828562000694565b509392505050565b6000815190506200056281620007b9565b92915050565b600082601f83011262000580576200057f62000794565b5b81516200059284826020860162000506565b91505092915050565b60008060408385031215620005b557620005b4620007a3565b5b600083015167ffffffffffffffff811115620005d657620005d56200079e565b5b620005e48582860162000568565b9250506020620005f78582860162000551565b9150509250929050565b60006200060d62000620565b90506200061b828262000700565b919050565b6000604051905090565b600067ffffffffffffffff82111562000648576200064762000765565b5b6200065382620007a8565b9050602081019050919050565b60006200066d8262000674565b9050919050565b600073ffffffffffffffffffffffffffffffffffffffff82169050919050565b60005b83811015620006b457808201518184015260208101905062000697565b83811115620006c4576000848401525b50505050565b60006002820490506001821680620006e357607f821691505b60208210811415620006fa57620006f962000736565b5b50919050565b6200070b82620007a8565b810181811067ffffffffffffffff821117156200072d576200072c62000765565b5b80604052505050565b7f4e487b7100000000000000000000000000000000000000000000000000000000600052602260045260246000fd5b7f4e487b7100000000000000000000000000000000000000000000000000000000600052604160045260246000fd5b600080fd5b600080fd5b600080fd5b600080fd5b6000601f19601f8301169050919050565b620007c48162000660565b8114620007d057600080fd5b50565b615fd780620007e36000396000f3fe608060405234801561001057600080fd5b50600436106102105760003560e01c806391d1485411610125578063d5391393116100ad578063f1cb3a1a1161007c578063f1cb3a1a146106a7578063f23a6e61146106d7578063f242432a14610707578063f53fb9b914610723578063fe3d88bd1461073f57610210565b8063d53913931461061f578063d547741f1461063d578063dbe4613d14610659578063e985e9c51461067757610210565b8063a29508fc116100f4578063a29508fc14610541578063b4b5b48f1461055f578063bc197c811461058f578063c3d04279146105bf578063ca15c873146105ef57610210565b806391d14854146104bb578063991ffb49146104eb578063a217fddf14610507578063a22cb4651461052557610210565b806336568abe116101a85780634e1273f4116101775780634e1273f4146103df578063545b64221461040f5780636648b1cb1461042b5780638273a4111461045b5780639010d07c1461048b57610210565b806336568abe146103595780633962f82d146103755780633e80bb7414610393578063481d4e53146103c357610210565b8063241230ef116101e4578063241230ef146102d5578063248a9ca3146102f15780632eb2c2d6146103215780632f2ff15d1461033d57610210565b8062fdd58e1461021557806301ffc9a7146102455780630e89341c146102755780631cbb35e9146102a5575b600080fd5b61022f600480360381019061022a9190613f3c565b61075d565b60405161023c919061505a565b60405180910390f35b61025f600480360381019061025a91906140ce565b610827565b60405161026c9190614cc3565b60405180910390f35b61028f600480360381019061028a91906141d9565b610839565b60405161029c9190614d14565b60405180910390f35b6102bf60048036038101906102ba91906142d6565b6108cd565b6040516102cc9190614cc3565b60405180910390f35b6102ef60048036038101906102ea91906142d6565b61094b565b005b61030b60048036038101906103069190613ff4565b610ad9565b6040516103189190614cde565b60405180910390f35b61033b60048036038101906103369190613d96565b610af8565b005b6103576004803603810190610352919061404e565b610b99565b005b610373600480360381019061036e919061404e565b610bcd565b005b61037d610c01565b60405161038a919061505a565b60405180910390f35b6103ad60048036038101906103a89190614296565b610c1b565b6040516103ba9190615038565b60405180910390f35b6103dd60048036038101906103d89190614296565b610dd4565b005b6103f960048036038101906103f49190613f7c565b610f45565b6040516104069190614c6a565b60405180910390f35b61042960048036038101906104249190614296565b61105e565b005b61044560048036038101906104409190614128565b6111f5565b604051610452919061505a565b60405180910390f35b61047560048036038101906104709190613d29565b611437565b6040516104829190614c6a565b60405180910390f35b6104a560048036038101906104a0919061408e565b6114fb565b6040516104b29190614b8d565b60405180910390f35b6104d560048036038101906104d0919061404e565b61152a565b6040516104e29190614cc3565b60405180910390f35b61050560048036038101906105009190613e65565b611594565b005b61050f611635565b60405161051c9190614cde565b60405180910390f35b61053f600480360381019061053a9190613efc565b61163c565b005b6105496117bd565b6040516105569190614cde565b60405180910390f35b610579600480360381019061057491906141d9565b6117e1565b6040516105869190615016565b60405180910390f35b6105a960048036038101906105a49190613d96565b611932565b6040516105b69190614cf9565b60405180910390f35b6105d960048036038101906105d49190614206565b611947565b6040516105e6919061505a565b60405180910390f35b61060960048036038101906106049190613ff4565b611c17565b604051610616919061505a565b60405180910390f35b610627611c3b565b6040516106349190614cde565b60405180910390f35b6106576004803603810190610652919061404e565b611c5f565b005b610661611c93565b60405161066e9190614cde565b60405180910390f35b610691600480360381019061068c9190613d56565b611cb7565b60405161069e9190614cc3565b60405180910390f35b6106c160048036038101906106bc9190614390565b611d4b565b6040516106ce9190614cde565b60405180910390f35b6106f160048036038101906106ec9190613e65565b611f9b565b6040516106fe9190614cf9565b60405180910390f35b610721600480360381019061071c9190613e65565b611fb0565b005b61073d60048036038101906107389190614329565b612051565b005b61074761219b565b6040516107549190614d14565b60405180910390f35b60008073ffffffffffffffffffffffffffffffffffffffff168373ffffffffffffffffffffffffffffffffffffffff1614156107ce576040517f08c379a00000000000000000000000000000000000000000000000000000000081526004016107c590614db6565b60405180910390fd5b6002600083815260200190815260200160002060008473ffffffffffffffffffffffffffffffffffffffff1673ffffffffffffffffffffffffffffffffffffffff16815260200190815260200160002054905092915050565b60006108328261226b565b9050919050565b6060600480546108489061552b565b80601f01602080910402602001604051908101604052809291908181526020018280546108749061552b565b80156108c15780601f10610896576101008083540402835291602001916108c1565b820191906000526020600020905b8154815290600101906020018083116108a457829003601f168201915b50505050509050919050565b6000600a6000858152602001908152602001600020600084815260200190815260200160002060009054906101000a900473ffffffffffffffffffffffffffffffffffffffff1673ffffffffffffffffffffffffffffffffffffffff168273ffffffffffffffffffffffffffffffffffffffff161490509392505050565b6109568383836108cd565b610995576040517f08c379a000000000000000000000000000000000000000000000000000000000815260040161098c90614d56565b60405180910390fd5b6040516020016109a490614b29565b604051602081830303815290604052805190602001206009600085815260200190815260200160002060008481526020019081526020016000206002016040516020016109f19190614afd565b6040516020818303038152906040528051906020012014610a47576040517f08c379a0000000000000000000000000000000000000000000000000000000008152600401610a3e90614f36565b60405180910390fd5b6040518060400160405280600581526020017f6f776e65640000000000000000000000000000000000000000000000000000008152506009600085815260200190815260200160002060008481526020019081526020016000206002019080519060200190610ab79291906139a0565b50610ad430828585604051806020016040528060008152506122e5565b505050565b6000806000838152602001908152602001600020600101549050919050565b610b00612360565b73ffffffffffffffffffffffffffffffffffffffff168573ffffffffffffffffffffffffffffffffffffffff161480610b465750610b4585610b40612360565b611cb7565b5b610b85576040517f08c379a0000000000000000000000000000000000000000000000000000000008152600401610b7c90614eb6565b60405180910390fd5b610b928585858585612368565b5050505050565b610ba3828261267f565b610bc8816001600085815260200190815260200160002061223b90919063ffffffff16565b505050565b610bd782826126a8565b610bfc816001600085815260200190815260200160002061272b90919063ffffffff16565b505050565b6000600660009054906101000a900460ff1660ff16905090565b610c23613a26565b6009600084815260200190815260200160002060008381526020019081526020016000206040518060600160405290816000820160009054906101000a900473ffffffffffffffffffffffffffffffffffffffff1673ffffffffffffffffffffffffffffffffffffffff1673ffffffffffffffffffffffffffffffffffffffff168152602001600182018054610cb89061552b565b80601f0160208091040260200160405190810160405280929190818152602001828054610ce49061552b565b8015610d315780601f10610d0657610100808354040283529160200191610d31565b820191906000526020600020905b815481529060010190602001808311610d1457829003601f168201915b50505050508152602001600282018054610d4a9061552b565b80601f0160208091040260200160405190810160405280929190818152602001828054610d769061552b565b8015610dc35780601f10610d9857610100808354040283529160200191610dc3565b820191906000526020600020905b815481529060010190602001808311610da657829003601f168201915b505050505081525050905092915050565b610ddf82823361275b565b610e1e576040517f08c379a0000000000000000000000000000000000000000000000000000000008152600401610e1590614e56565b60405180910390fd5b604051602001610e2d90614b14565b60405160208183030381529060405280519060200120600960008481526020019081526020016000206000838152602001908152602001600020600201604051602001610e7a9190614afd565b6040516020818303038152906040528051906020012014610ed0576040517f08c379a0000000000000000000000000000000000000000000000000000000008152600401610ec790614fd6565b60405180910390fd5b6040518060400160405280600681526020017f73746f6c656e00000000000000000000000000000000000000000000000000008152506009600084815260200190815260200160002060008381526020019081526020016000206002019080519060200190610f409291906139a0565b505050565b60608151835114610f8b576040517f08c379a0000000000000000000000000000000000000000000000000000000008152600401610f8290614f76565b60405180910390fd5b6000835167ffffffffffffffff811115610fa857610fa76156bd565b5b604051908082528060200260200182016040528015610fd65781602001602082028036833780820191505090505b50905060005b845181101561105357611023858281518110610ffb57610ffa61568e565b5b60200260200101518583815181106110165761101561568e565b5b602002602001015161075d565b8282815181106110365761103561568e565b5b6020026020010181815250508061104c9061558e565b9050610fdc565b508091505092915050565b61108f7f43f25613eb2f15fb17222a5d424ca2655743e71265d98e4b93c05e5fb589ecde61108a612360565b61152a565b6110ce576040517f08c379a00000000000000000000000000000000000000000000000000000000081526004016110c590614ed6565b60405180910390fd5b6040516020016110dd90614b78565b6040516020818303038152906040528051906020012060096000848152602001908152602001600020600083815260200190815260200160002060020160405160200161112a9190614afd565b6040516020818303038152906040528051906020012014611180576040517f08c379a000000000000000000000000000000000000000000000000000000000815260040161117790614df6565b60405180910390fd5b6040518060400160405280600481526020017f736f6c640000000000000000000000000000000000000000000000000000000081525060096000848152602001908152602001600020600083815260200190815260200160002060020190805190602001906111f09291906139a0565b505050565b60006112287f9f2df0fed2c77648de5860a4cc508cd0818c85b8b8a1ab4ceeef8d981c8956a6611223612360565b61152a565b611267576040517f08c379a000000000000000000000000000000000000000000000000000000000815260040161125e90614ed6565b60405180910390fd5b61128630600660009054906101000a900460ff1660ff166000856127dc565b604051806040016040528087878080601f016020809104026020016040519081016040528093929190818152602001838380828437600081840152601f19601f82011690508083019250505050505050815260200185858080601f016020809104026020016040519081016040528093929190818152602001838380828437600081840152601f19601f8201169050808301925050505050505081525060086000600660009054906101000a900460ff1660ff16815260200190815260200160002060008201518160000190805190602001906113649291906139a0565b5060208201518160010190805190602001906113819291906139a0565b509050507f1c001b259495d284b16f44ac0662ad743888a2bf65fe7dc4c654e3a8327a9c63600660009054906101000a900460ff1687878787876040516113cd9695949392919061515c565b60405180910390a16006600081819054906101000a900460ff16809291906113f4906155d7565b91906101000a81548160ff021916908360ff160217905550506001600660009054906101000a900460ff1661142991906153ee565b60ff16905095945050505050565b60606000600660009054906101000a900460ff1660ff1667ffffffffffffffff811115611467576114666156bd565b5b6040519080825280602002602001820160405280156114955781602001602082028036833780820191505090505b50905060005b600660009054906101000a900460ff1660ff168110156114f1576114bf848261075d565b8282815181106114d2576114d161568e565b5b60200260200101818152505080806114e99061558e565b91505061149b565b5080915050919050565b6000611522826001600086815260200190815260200160002061297390919063ffffffff16565b905092915050565b600080600084815260200190815260200160002060000160008373ffffffffffffffffffffffffffffffffffffffff1673ffffffffffffffffffffffffffffffffffffffff16815260200190815260200160002060009054906101000a900460ff16905092915050565b61159c612360565b73ffffffffffffffffffffffffffffffffffffffff168573ffffffffffffffffffffffffffffffffffffffff1614806115e257506115e1856115dc612360565b611cb7565b5b611621576040517f08c379a000000000000000000000000000000000000000000000000000000000815260040161161890614e16565b60405180910390fd5b61162e85858585856122e5565b5050505050565b6000801b81565b8173ffffffffffffffffffffffffffffffffffffffff1661165b612360565b73ffffffffffffffffffffffffffffffffffffffff1614156116b2576040517f08c379a00000000000000000000000000000000000000000000000000000000081526004016116a990614f56565b60405180910390fd5b80600360006116bf612360565b73ffffffffffffffffffffffffffffffffffffffff1673ffffffffffffffffffffffffffffffffffffffff16815260200190815260200160002060008473ffffffffffffffffffffffffffffffffffffffff1673ffffffffffffffffffffffffffffffffffffffff16815260200190815260200160002060006101000a81548160ff0219169083151502179055508173ffffffffffffffffffffffffffffffffffffffff1661176c612360565b73ffffffffffffffffffffffffffffffffffffffff167f17307eab39ab6107e8899845ad3d59bd9653f200f220920489ca2b5937696c31836040516117b19190614cc3565b60405180910390a35050565b7fd1ae8bbdabd60d63e418b84f5ad6f9cba90092c9816d7724d85f0d4e4bea2c6081565b6117e9613a5d565b600860008381526020019081526020016000206040518060400160405290816000820180546118179061552b565b80601f01602080910402602001604051908101604052809291908181526020018280546118439061552b565b80156118905780601f1061186557610100808354040283529160200191611890565b820191906000526020600020905b81548152906001019060200180831161187357829003601f168201915b505050505081526020016001820180546118a99061552b565b80601f01602080910402602001604051908101604052809291908181526020018280546118d59061552b565b80156119225780601f106118f757610100808354040283529160200191611922565b820191906000526020600020905b81548152906001019060200180831161190557829003601f168201915b5050505050815250509050919050565b600063bc197c8160e01b905095945050505050565b600061197a7fd1ae8bbdabd60d63e418b84f5ad6f9cba90092c9816d7724d85f0d4e4bea2c60611975612360565b61152a565b6119b9576040517f08c379a00000000000000000000000000000000000000000000000000000000081526004016119b090614ed6565b60405180910390fd5b6119c28561298d565b611a01576040517f08c379a00000000000000000000000000000000000000000000000000000000081526004016119f890614e36565b60405180910390fd5b611a0e30866001856127dc565b60405180606001604052803073ffffffffffffffffffffffffffffffffffffffff16815260200185858080601f016020809104026020016040519081016040528093929190818152602001838380828437600081840152601f19601f8201169050808301925050505050505081526020016040518060400160405280600681526020017f6d696e74656400000000000000000000000000000000000000000000000000008152508152506009600087815260200190815260200160002060006007600089815260200190815260200160002054815260200190815260200160002060008201518160000160006101000a81548173ffffffffffffffffffffffffffffffffffffffff021916908373ffffffffffffffffffffffffffffffffffffffff1602179055506020820151816001019080519060200190611b529291906139a0565b506040820151816002019080519060200190611b6f9291906139a0565b50905050847f5ff47a97796301f38bf23b5ecefbb1b59a05f7a5689a668b98c0821a0e8f3e066007600088815260200190815260200160002054868686604051611bbc949392919061509e565b60405180910390a2600760008681526020019081526020016000206000815480929190611be89061558e565b919050555060016007600087815260200190815260200160002054611c0d91906153ba565b9050949350505050565b6000611c34600160008481526020019081526020016000206129ab565b9050919050565b7f9f2df0fed2c77648de5860a4cc508cd0818c85b8b8a1ab4ceeef8d981c8956a681565b611c6982826129c0565b611c8e816001600085815260200190815260200160002061272b90919063ffffffff16565b505050565b7f43f25613eb2f15fb17222a5d424ca2655743e71265d98e4b93c05e5fb589ecde81565b6000600360008473ffffffffffffffffffffffffffffffffffffffff1673ffffffffffffffffffffffffffffffffffffffff16815260200190815260200160002060008373ffffffffffffffffffffffffffffffffffffffff1673ffffffffffffffffffffffffffffffffffffffff16815260200190815260200160002060009054906101000a900460ff16905092915050565b60008073ffffffffffffffffffffffffffffffffffffffff16600660019054906101000a900473ffffffffffffffffffffffffffffffffffffffff1673ffffffffffffffffffffffffffffffffffffffff161415611dde576040517f08c379a0000000000000000000000000000000000000000000000000000000008152600401611dd590614f16565b60405180910390fd5b611dea868660006108cd565b611e29576040517f08c379a0000000000000000000000000000000000000000000000000000000008152600401611e2090614dd6565b60405180910390fd5b604051602001611e3890614b29565b60405160208183030381529060405280519060200120600960008881526020019081526020016000206000878152602001908152602001600020600201604051602001611e859190614afd565b6040516020818303038152906040528051906020012014611edb576040517f08c379a0000000000000000000000000000000000000000000000000000000008152600401611ed290614f36565b60405180910390fd5b600660019054906101000a900473ffffffffffffffffffffffffffffffffffffffff1673ffffffffffffffffffffffffffffffffffffffff16639fe8660f87878787876040518663ffffffff1660e01b8152600401611f3e95949392919061510e565b602060405180830381600087803b158015611f5857600080fd5b505af1158015611f6c573d6000803e3d6000fd5b505050506040513d601f19601f82011682018060405250810190611f909190614021565b905095945050505050565b600063f23a6e6160e01b905095945050505050565b611fb8612360565b73ffffffffffffffffffffffffffffffffffffffff168573ffffffffffffffffffffffffffffffffffffffff161480611ffe5750611ffd85611ff8612360565b611cb7565b5b61203d576040517f08c379a000000000000000000000000000000000000000000000000000000000815260040161203490614e16565b60405180910390fd5b61204a85858585856129e9565b5050505050565b600660019054906101000a900473ffffffffffffffffffffffffffffffffffffffff1673ffffffffffffffffffffffffffffffffffffffff163373ffffffffffffffffffffffffffffffffffffffff16146120e1576040517f08c379a00000000000000000000000000000000000000000000000000000000081526004016120d890614e76565b60405180910390fd5b81600a6000868152602001908152602001600020600085815260200190815260200160002060006101000a81548173ffffffffffffffffffffffffffffffffffffffff021916908373ffffffffffffffffffffffffffffffffffffffff1602179055508173ffffffffffffffffffffffffffffffffffffffff16847f408b354a5a743483dc98fde82fba59cd10f8174901861cf5dabe1d2850ac374b858460405161218d929190615075565b60405180910390a350505050565b6060600580546121aa9061552b565b80601f01602080910402602001604051908101604052809291908181526020018280546121d69061552b565b80156122235780601f106121f857610100808354040283529160200191612223565b820191906000526020600020905b81548152906001019060200180831161220657829003601f168201915b5050505050905090565b6122378282612c6e565b5050565b6000612263836000018373ffffffffffffffffffffffffffffffffffffffff1660001b612d4e565b905092915050565b60007f4e2312e0000000000000000000000000000000000000000000000000000000007bffffffffffffffffffffffffffffffffffffffffffffffffffffffff1916827bffffffffffffffffffffffffffffffffffffffffffffffffffffffff191614806122de57506122dd82612dbe565b5b9050919050565b8360096000858152602001908152602001600020600084815260200190815260200160002060000160006101000a81548173ffffffffffffffffffffffffffffffffffffffff021916908373ffffffffffffffffffffffffffffffffffffffff1602179055506123598585856001856129e9565b5050505050565b600033905090565b81518351146123ac576040517f08c379a00000000000000000000000000000000000000000000000000000000081526004016123a390614f96565b60405180910390fd5b600073ffffffffffffffffffffffffffffffffffffffff168473ffffffffffffffffffffffffffffffffffffffff16141561241c576040517f08c379a000000000000000000000000000000000000000000000000000000000815260040161241390614e96565b60405180910390fd5b6000612426612360565b9050612436818787878787612dd0565b60005b84518110156125ea5760008582815181106124575761245661568e565b5b6020026020010151905060008583815181106124765761247561568e565b5b6020026020010151905060006002600084815260200190815260200160002060008b73ffffffffffffffffffffffffffffffffffffffff1673ffffffffffffffffffffffffffffffffffffffff16815260200190815260200160002054905081811015612518576040517f08c379a000000000000000000000000000000000000000000000000000000000815260040161250f90614ef6565b60405180910390fd5b8181036002600085815260200190815260200160002060008c73ffffffffffffffffffffffffffffffffffffffff1673ffffffffffffffffffffffffffffffffffffffff16815260200190815260200160002081905550816002600085815260200190815260200160002060008b73ffffffffffffffffffffffffffffffffffffffff1673ffffffffffffffffffffffffffffffffffffffff16815260200190815260200160002060008282546125cf919061530a565b92505081905550505050806125e39061558e565b9050612439565b508473ffffffffffffffffffffffffffffffffffffffff168673ffffffffffffffffffffffffffffffffffffffff168273ffffffffffffffffffffffffffffffffffffffff167f4a39dc06d4c0dbc64b70af90fd698a233a518aa5d07e595d983b8c0526c8f7fb8787604051612661929190614c8c565b60405180910390a4612677818787878787612dd8565b505050505050565b61268882610ad9565b61269981612694612360565b612fbf565b6126a38383612c6e565b505050565b6126b0612360565b73ffffffffffffffffffffffffffffffffffffffff168173ffffffffffffffffffffffffffffffffffffffff161461271d576040517f08c379a000000000000000000000000000000000000000000000000000000000815260040161271490614ff6565b60405180910390fd5b612727828261305c565b5050565b6000612753836000018373ffffffffffffffffffffffffffffffffffffffff1660001b61313d565b905092915050565b60008173ffffffffffffffffffffffffffffffffffffffff1660096000868152602001908152602001600020600085815260200190815260200160002060000160009054906101000a900473ffffffffffffffffffffffffffffffffffffffff1673ffffffffffffffffffffffffffffffffffffffff161490509392505050565b600073ffffffffffffffffffffffffffffffffffffffff168473ffffffffffffffffffffffffffffffffffffffff16141561284c576040517f08c379a000000000000000000000000000000000000000000000000000000000815260040161284390614fb6565b60405180910390fd5b6000612856612360565b90506128778160008761286888613251565b61287188613251565b87612dd0565b826002600086815260200190815260200160002060008773ffffffffffffffffffffffffffffffffffffffff1673ffffffffffffffffffffffffffffffffffffffff16815260200190815260200160002060008282546128d7919061530a565b925050819055508473ffffffffffffffffffffffffffffffffffffffff16600073ffffffffffffffffffffffffffffffffffffffff168273ffffffffffffffffffffffffffffffffffffffff167fc3d58168c5ae7397731d063d5bbf3d657854427343f4c083240f7aacaa2d0f6287876040516129559291906150e5565b60405180910390a461296c816000878787876132cb565b5050505050565b600061298283600001836134b2565b60001c905092915050565b6000600660009054906101000a900460ff1660ff1682109050919050565b60006129b9826000016134dd565b9050919050565b6129c982610ad9565b6129da816129d5612360565b612fbf565b6129e4838361305c565b505050565b600073ffffffffffffffffffffffffffffffffffffffff168473ffffffffffffffffffffffffffffffffffffffff161415612a59576040517f08c379a0000000000000000000000000000000000000000000000000000000008152600401612a5090614e96565b60405180910390fd5b6000612a63612360565b9050612a83818787612a7488613251565b612a7d88613251565b87612dd0565b60006002600086815260200190815260200160002060008873ffffffffffffffffffffffffffffffffffffffff1673ffffffffffffffffffffffffffffffffffffffff16815260200190815260200160002054905083811015612b1b576040517f08c379a0000000000000000000000000000000000000000000000000000000008152600401612b1290614ef6565b60405180910390fd5b8381036002600087815260200190815260200160002060008973ffffffffffffffffffffffffffffffffffffffff1673ffffffffffffffffffffffffffffffffffffffff16815260200190815260200160002081905550836002600087815260200190815260200160002060008873ffffffffffffffffffffffffffffffffffffffff1673ffffffffffffffffffffffffffffffffffffffff1681526020019081526020016000206000828254612bd2919061530a565b925050819055508573ffffffffffffffffffffffffffffffffffffffff168773ffffffffffffffffffffffffffffffffffffffff168373ffffffffffffffffffffffffffffffffffffffff167fc3d58168c5ae7397731d063d5bbf3d657854427343f4c083240f7aacaa2d0f628888604051612c4f9291906150e5565b60405180910390a4612c658288888888886132cb565b50505050505050565b612c78828261152a565b612d4a57600160008084815260200190815260200160002060000160008373ffffffffffffffffffffffffffffffffffffffff1673ffffffffffffffffffffffffffffffffffffffff16815260200190815260200160002060006101000a81548160ff021916908315150217905550612cef612360565b73ffffffffffffffffffffffffffffffffffffffff168173ffffffffffffffffffffffffffffffffffffffff16837f2f8788117e7eff1d82e926ec794901d17c78024a50270940304540a733656f0d60405160405180910390a45b5050565b6000612d5a83836134ee565b612db3578260000182908060018154018082558091505060019003906000526020600020016000909190919091505582600001805490508360010160008481526020019081526020016000208190555060019050612db8565b600090505b92915050565b6000612dc982613511565b9050919050565b505050505050565b612df78473ffffffffffffffffffffffffffffffffffffffff166135f3565b15612fb7578373ffffffffffffffffffffffffffffffffffffffff1663bc197c8187878686866040518663ffffffff1660e01b8152600401612e3d959493929190614ba8565b602060405180830381600087803b158015612e5757600080fd5b505af1925050508015612e8857506040513d601f19601f82011682018060405250810190612e8591906140fb565b60015b612f2e57612e946156ec565b806308c379a01415612ef15750612ea9615e98565b80612eb45750612ef3565b806040517f08c379a0000000000000000000000000000000000000000000000000000000008152600401612ee89190614d14565b60405180910390fd5b505b6040517f08c379a0000000000000000000000000000000000000000000000000000000008152600401612f2590614d36565b60405180910390fd5b63bc197c8160e01b7bffffffffffffffffffffffffffffffffffffffffffffffffffffffff1916817bffffffffffffffffffffffffffffffffffffffffffffffffffffffff191614612fb5576040517f08c379a0000000000000000000000000000000000000000000000000000000008152600401612fac90614d96565b60405180910390fd5b505b505050505050565b612fc9828261152a565b61305857612fee8173ffffffffffffffffffffffffffffffffffffffff166014613606565b612ffc8360001c6020613606565b60405160200161300d929190614b3e565b6040516020818303038152906040526040517f08c379a000000000000000000000000000000000000000000000000000000000815260040161304f9190614d14565b60405180910390fd5b5050565b613066828261152a565b1561313957600080600084815260200190815260200160002060000160008373ffffffffffffffffffffffffffffffffffffffff1673ffffffffffffffffffffffffffffffffffffffff16815260200190815260200160002060006101000a81548160ff0219169083151502179055506130de612360565b73ffffffffffffffffffffffffffffffffffffffff168173ffffffffffffffffffffffffffffffffffffffff16837ff6391f5c32d9c69d2a47ea670b442974b53935d1edc7fd64eb21e047a839171b60405160405180910390a45b5050565b6000808360010160008481526020019081526020016000205490506000811461324557600060018261316f91906153ba565b905060006001866000018054905061318791906153ba565b90508181146131f65760008660000182815481106131a8576131a761568e565b5b90600052602060002001549050808760000184815481106131cc576131cb61568e565b5b90600052602060002001819055508387600101600083815260200190815260200160002081905550505b8560000180548061320a5761320961565f565b5b60019003818190600052602060002001600090559055856001016000868152602001908152602001600020600090556001935050505061324b565b60009150505b92915050565b60606000600167ffffffffffffffff8111156132705761326f6156bd565b5b60405190808252806020026020018201604052801561329e5781602001602082028036833780820191505090505b50905082816000815181106132b6576132b561568e565b5b60200260200101818152505080915050919050565b6132ea8473ffffffffffffffffffffffffffffffffffffffff166135f3565b156134aa578373ffffffffffffffffffffffffffffffffffffffff1663f23a6e6187878686866040518663ffffffff1660e01b8152600401613330959493929190614c10565b602060405180830381600087803b15801561334a57600080fd5b505af192505050801561337b57506040513d601f19601f8201168201806040525081019061337891906140fb565b60015b613421576133876156ec565b806308c379a014156133e4575061339c615e98565b806133a757506133e6565b806040517f08c379a00000000000000000000000000000000000000000000000000000000081526004016133db9190614d14565b60405180910390fd5b505b6040517f08c379a000000000000000000000000000000000000000000000000000000000815260040161341890614d36565b60405180910390fd5b63f23a6e6160e01b7bffffffffffffffffffffffffffffffffffffffffffffffffffffffff1916817bffffffffffffffffffffffffffffffffffffffffffffffffffffffff1916146134a8576040517f08c379a000000000000000000000000000000000000000000000000000000000815260040161349f90614d96565b60405180910390fd5b505b505050505050565b60008260000182815481106134ca576134c961568e565b5b9060005260206000200154905092915050565b600081600001805490509050919050565b600080836001016000848152602001908152602001600020541415905092915050565b60007fd9b67a26000000000000000000000000000000000000000000000000000000007bffffffffffffffffffffffffffffffffffffffffffffffffffffffff1916827bffffffffffffffffffffffffffffffffffffffffffffffffffffffff191614806135dc57507f0e89341c000000000000000000000000000000000000000000000000000000007bffffffffffffffffffffffffffffffffffffffffffffffffffffffff1916827bffffffffffffffffffffffffffffffffffffffffffffffffffffffff1916145b806135ec57506135eb82613842565b5b9050919050565b600080823b905060008111915050919050565b6060600060028360026136199190615360565b613623919061530a565b67ffffffffffffffff81111561363c5761363b6156bd565b5b6040519080825280601f01601f19166020018201604052801561366e5781602001600182028036833780820191505090505b5090507f3000000000000000000000000000000000000000000000000000000000000000816000815181106136a6576136a561568e565b5b60200101907effffffffffffffffffffffffffffffffffffffffffffffffffffffffffffff1916908160001a9053507f78000000000000000000000000000000000000000000000000000000000000008160018151811061370a5761370961568e565b5b60200101907effffffffffffffffffffffffffffffffffffffffffffffffffffffffffffff1916908160001a9053506000600184600261374a9190615360565b613754919061530a565b90505b60018111156137f4577f3031323334353637383961626364656600000000000000000000000000000000600f8616601081106137965761379561568e565b5b1a60f81b8282815181106137ad576137ac61568e565b5b60200101907effffffffffffffffffffffffffffffffffffffffffffffffffffffffffffff1916908160001a905350600485901c9450806137ed90615501565b9050613757565b5060008414613838576040517f08c379a000000000000000000000000000000000000000000000000000000000815260040161382f90614d76565b60405180910390fd5b8091505092915050565b60007f5a05180f000000000000000000000000000000000000000000000000000000007bffffffffffffffffffffffffffffffffffffffffffffffffffffffff1916827bffffffffffffffffffffffffffffffffffffffffffffffffffffffff191614806138b557506138b4826138bc565b5b9050919050565b60007f7965db0b000000000000000000000000000000000000000000000000000000007bffffffffffffffffffffffffffffffffffffffffffffffffffffffff1916827bffffffffffffffffffffffffffffffffffffffffffffffffffffffff1916148061392f575061392e82613936565b5b9050919050565b60007f01ffc9a7000000000000000000000000000000000000000000000000000000007bffffffffffffffffffffffffffffffffffffffffffffffffffffffff1916827bffffffffffffffffffffffffffffffffffffffffffffffffffffffff1916149050919050565b8280546139ac9061552b565b90600052602060002090601f0160209004810192826139ce5760008555613a15565b82601f106139e757805160ff1916838001178555613a15565b82800160010185558215613a15579182015b82811115613a145782518255916020019190600101906139f9565b5b509050613a229190613a77565b5090565b6040518060600160405280600073ffffffffffffffffffffffffffffffffffffffff16815260200160608152602001606081525090565b604051806040016040528060608152602001606081525090565b5b80821115613a90576000816000905550600101613a78565b5090565b6000613aa7613aa2846151df565b6151ba565b90508083825260208201905082856020860282011115613aca57613ac9615718565b5b60005b85811015613afa5781613ae08882613bb6565b845260208401935060208301925050600181019050613acd565b5050509392505050565b6000613b17613b128461520b565b6151ba565b90508083825260208201905082856020860282011115613b3a57613b39615718565b5b60005b85811015613b6a5781613b508882613d14565b845260208401935060208301925050600181019050613b3d565b5050509392505050565b6000613b87613b8284615237565b6151ba565b905082815260208101848484011115613ba357613ba261571d565b5b613bae8482856154bf565b509392505050565b600081359050613bc581615f2e565b92915050565b600082601f830112613be057613bdf615713565b5b8135613bf0848260208601613a94565b91505092915050565b600082601f830112613c0e57613c0d615713565b5b8135613c1e848260208601613b04565b91505092915050565b600081359050613c3681615f45565b92915050565b600081359050613c4b81615f5c565b92915050565b600081519050613c6081615f5c565b92915050565b600081359050613c7581615f73565b92915050565b600081519050613c8a81615f73565b92915050565b600082601f830112613ca557613ca4615713565b5b8135613cb5848260208601613b74565b91505092915050565b60008083601f840112613cd457613cd3615713565b5b8235905067ffffffffffffffff811115613cf157613cf061570e565b5b602083019150836001820283011115613d0d57613d0c615718565b5b9250929050565b600081359050613d2381615f8a565b92915050565b600060208284031215613d3f57613d3e615727565b5b6000613d4d84828501613bb6565b91505092915050565b60008060408385031215613d6d57613d6c615727565b5b6000613d7b85828601613bb6565b9250506020613d8c85828601613bb6565b9150509250929050565b600080600080600060a08688031215613db257613db1615727565b5b6000613dc088828901613bb6565b9550506020613dd188828901613bb6565b945050604086013567ffffffffffffffff811115613df257613df1615722565b5b613dfe88828901613bf9565b935050606086013567ffffffffffffffff811115613e1f57613e1e615722565b5b613e2b88828901613bf9565b925050608086013567ffffffffffffffff811115613e4c57613e4b615722565b5b613e5888828901613c90565b9150509295509295909350565b600080600080600060a08688031215613e8157613e80615727565b5b6000613e8f88828901613bb6565b9550506020613ea088828901613bb6565b9450506040613eb188828901613d14565b9350506060613ec288828901613d14565b925050608086013567ffffffffffffffff811115613ee357613ee2615722565b5b613eef88828901613c90565b9150509295509295909350565b60008060408385031215613f1357613f12615727565b5b6000613f2185828601613bb6565b9250506020613f3285828601613c27565b9150509250929050565b60008060408385031215613f5357613f52615727565b5b6000613f6185828601613bb6565b9250506020613f7285828601613d14565b9150509250929050565b60008060408385031215613f9357613f92615727565b5b600083013567ffffffffffffffff811115613fb157613fb0615722565b5b613fbd85828601613bcb565b925050602083013567ffffffffffffffff811115613fde57613fdd615722565b5b613fea85828601613bf9565b9150509250929050565b60006020828403121561400a57614009615727565b5b600061401884828501613c3c565b91505092915050565b60006020828403121561403757614036615727565b5b600061404584828501613c51565b91505092915050565b6000806040838503121561406557614064615727565b5b600061407385828601613c3c565b925050602061408485828601613bb6565b9150509250929050565b600080604083850312156140a5576140a4615727565b5b60006140b385828601613c3c565b92505060206140c485828601613d14565b9150509250929050565b6000602082840312156140e4576140e3615727565b5b60006140f284828501613c66565b91505092915050565b60006020828403121561411157614110615727565b5b600061411f84828501613c7b565b91505092915050565b60008060008060006060868803121561414457614143615727565b5b600086013567ffffffffffffffff81111561416257614161615722565b5b61416e88828901613cbe565b9550955050602086013567ffffffffffffffff81111561419157614190615722565b5b61419d88828901613cbe565b9350935050604086013567ffffffffffffffff8111156141c0576141bf615722565b5b6141cc88828901613c90565b9150509295509295909350565b6000602082840312156141ef576141ee615727565b5b60006141fd84828501613d14565b91505092915050565b600080600080606085870312156142205761421f615727565b5b600061422e87828801613d14565b945050602085013567ffffffffffffffff81111561424f5761424e615722565b5b61425b87828801613cbe565b9350935050604085013567ffffffffffffffff81111561427e5761427d615722565b5b61428a87828801613c90565b91505092959194509250565b600080604083850312156142ad576142ac615727565b5b60006142bb85828601613d14565b92505060206142cc85828601613d14565b9150509250929050565b6000806000606084860312156142ef576142ee615727565b5b60006142fd86828701613d14565b935050602061430e86828701613d14565b925050604061431f86828701613bb6565b9150509250925092565b6000806000806080858703121561434357614342615727565b5b600061435187828801613d14565b945050602061436287828801613d14565b935050604061437387828801613bb6565b925050606061438487828801613c27565b91505092959194509250565b6000806000806000608086880312156143ac576143ab615727565b5b60006143ba88828901613d14565b95505060206143cb88828901613d14565b94505060406143dc88828901613bb6565b935050606086013567ffffffffffffffff8111156143fd576143fc615722565b5b61440988828901613cbe565b92509250509295509295909350565b60006144248383614ad0565b60208301905092915050565b61443981615422565b82525050565b61444881615422565b82525050565b60006144598261528d565b61446381856152bb565b935061446e83615268565b8060005b8381101561449f5781516144868882614418565b9750614491836152ae565b925050600181019050614472565b5085935050505092915050565b6144b581615434565b82525050565b6144c481615440565b82525050565b6144d38161544a565b82525050565b60006144e482615298565b6144ee81856152cc565b93506144fe8185602086016154ce565b6145078161572c565b840191505092915050565b600061451e83856152ee565b935061452b8385846154bf565b6145348361572c565b840190509392505050565b600061454a826152a3565b61455481856152dd565b93506145648185602086016154ce565b61456d8161572c565b840191505092915050565b6000614583826152a3565b61458d81856152ee565b935061459d8185602086016154ce565b6145a68161572c565b840191505092915050565b60006145bc826152a3565b6145c681856152ff565b93506145d68185602086016154ce565b80840191505092915050565b600081546145ef8161552b565b6145f981866152ff565b94506001821660008114614614576001811461462557614658565b60ff19831686528186019350614658565b61462e85615278565b60005b8381101561465057815481890152600182019150602081019050614631565b838801955050505b50505092915050565b600061466e6034836152ee565b91506146798261574a565b604082019050919050565b60006146916025836152ee565b915061469c82615799565b604082019050919050565b60006146b46020836152ee565b91506146bf826157e8565b602082019050919050565b60006146d76028836152ee565b91506146e282615811565b604082019050919050565b60006146fa602b836152ee565b915061470582615860565b604082019050919050565b600061471d601e836152ee565b9150614728826158af565b602082019050919050565b6000614740602f836152ee565b915061474b826158d8565b604082019050919050565b60006147636029836152ee565b915061476e82615927565b604082019050919050565b60006147866017836152ee565b915061479182615976565b602082019050919050565b60006147a9603e836152ee565b91506147b48261599f565b604082019050919050565b60006147cc6005836152ff565b91506147d7826159ee565b600582019050919050565b60006147ef602f836152ee565b91506147fa82615a17565b604082019050919050565b60006148126025836152ee565b915061481d82615a66565b604082019050919050565b60006148356032836152ee565b915061484082615ab5565b604082019050919050565b60006148586038836152ee565b915061486382615b04565b604082019050919050565b600061487b602a836152ee565b915061488682615b53565b604082019050919050565b600061489e6004836152ff565b91506148a982615ba2565b600482019050919050565b60006148c16039836152ee565b91506148cc82615bcb565b604082019050919050565b60006148e4601b836152ee565b91506148ef82615c1a565b602082019050919050565b60006149076017836152ff565b915061491282615c43565b601782019050919050565b600061492a6029836152ee565b915061493582615c6c565b604082019050919050565b600061494d6029836152ee565b915061495882615cbb565b604082019050919050565b60006149706006836152ff565b915061497b82615d0a565b600682019050919050565b60006149936028836152ee565b915061499e82615d33565b604082019050919050565b60006149b66021836152ee565b91506149c182615d82565b604082019050919050565b60006149d96031836152ee565b91506149e482615dd1565b604082019050919050565b60006149fc6011836152ff565b9150614a0782615e20565b601182019050919050565b6000614a1f602f836152ee565b9150614a2a82615e49565b604082019050919050565b60006040830160008301518482036000860152614a52828261453f565b91505060208301518482036020860152614a6c828261453f565b9150508091505092915050565b6000606083016000830151614a916000860182614430565b5060208301518482036020860152614aa9828261453f565b91505060408301518482036040860152614ac3828261453f565b9150508091505092915050565b614ad981615496565b82525050565b614ae881615496565b82525050565b614af7816154ad565b82525050565b6000614b0982846145e2565b915081905092915050565b6000614b1f826147bf565b9150819050919050565b6000614b3482614891565b9150819050919050565b6000614b49826148fa565b9150614b5582856145b1565b9150614b60826149ef565b9150614b6c82846145b1565b91508190509392505050565b6000614b8382614963565b9150819050919050565b6000602082019050614ba2600083018461443f565b92915050565b600060a082019050614bbd600083018861443f565b614bca602083018761443f565b8181036040830152614bdc818661444e565b90508181036060830152614bf0818561444e565b90508181036080830152614c0481846144d9565b90509695505050505050565b600060a082019050614c25600083018861443f565b614c32602083018761443f565b614c3f6040830186614adf565b614c4c6060830185614adf565b8181036080830152614c5e81846144d9565b90509695505050505050565b60006020820190508181036000830152614c84818461444e565b905092915050565b60006040820190508181036000830152614ca6818561444e565b90508181036020830152614cba818461444e565b90509392505050565b6000602082019050614cd860008301846144ac565b92915050565b6000602082019050614cf360008301846144bb565b92915050565b6000602082019050614d0e60008301846144ca565b92915050565b60006020820190508181036000830152614d2e8184614578565b905092915050565b60006020820190508181036000830152614d4f81614661565b9050919050565b60006020820190508181036000830152614d6f81614684565b9050919050565b60006020820190508181036000830152614d8f816146a7565b9050919050565b60006020820190508181036000830152614daf816146ca565b9050919050565b60006020820190508181036000830152614dcf816146ed565b9050919050565b60006020820190508181036000830152614def81614710565b9050919050565b60006020820190508181036000830152614e0f81614733565b9050919050565b60006020820190508181036000830152614e2f81614756565b9050919050565b60006020820190508181036000830152614e4f81614779565b9050919050565b60006020820190508181036000830152614e6f8161479c565b9050919050565b60006020820190508181036000830152614e8f816147e2565b9050919050565b60006020820190508181036000830152614eaf81614805565b9050919050565b60006020820190508181036000830152614ecf81614828565b9050919050565b60006020820190508181036000830152614eef8161484b565b9050919050565b60006020820190508181036000830152614f0f8161486e565b9050919050565b60006020820190508181036000830152614f2f816148b4565b9050919050565b60006020820190508181036000830152614f4f816148d7565b9050919050565b60006020820190508181036000830152614f6f8161491d565b9050919050565b60006020820190508181036000830152614f8f81614940565b9050919050565b60006020820190508181036000830152614faf81614986565b9050919050565b60006020820190508181036000830152614fcf816149a9565b9050919050565b60006020820190508181036000830152614fef816149cc565b9050919050565b6000602082019050818103600083015261500f81614a12565b9050919050565b600060208201905081810360008301526150308184614a35565b905092915050565b600060208201905081810360008301526150528184614a79565b905092915050565b600060208201905061506f6000830184614adf565b92915050565b600060408201905061508a6000830185614adf565b61509760208301846144ac565b9392505050565b60006060820190506150b36000830187614adf565b81810360208301526150c6818587614512565b905081810360408301526150da81846144d9565b905095945050505050565b60006040820190506150fa6000830185614adf565b6151076020830184614adf565b9392505050565b60006080820190506151236000830188614adf565b6151306020830187614adf565b61513d604083018661443f565b8181036060830152615150818486614512565b90509695505050505050565b60006080820190506151716000830189614aee565b8181036020830152615184818789614512565b90508181036040830152615199818587614512565b905081810360608301526151ad81846144d9565b9050979650505050505050565b60006151c46151d5565b90506151d0828261555d565b919050565b6000604051905090565b600067ffffffffffffffff8211156151fa576151f96156bd565b5b602082029050602081019050919050565b600067ffffffffffffffff821115615226576152256156bd565b5b602082029050602081019050919050565b600067ffffffffffffffff821115615252576152516156bd565b5b61525b8261572c565b9050602081019050919050565b6000819050602082019050919050565b60008190508160005260206000209050919050565b600081519050919050565b600081519050919050565b600081519050919050565b6000602082019050919050565b600082825260208201905092915050565b600082825260208201905092915050565b600082825260208201905092915050565b600082825260208201905092915050565b600081905092915050565b600061531582615496565b915061532083615496565b9250827fffffffffffffffffffffffffffffffffffffffffffffffffffffffffffffffff0382111561535557615354615601565b5b828201905092915050565b600061536b82615496565b915061537683615496565b9250817fffffffffffffffffffffffffffffffffffffffffffffffffffffffffffffffff04831182151516156153af576153ae615601565b5b828202905092915050565b60006153c582615496565b91506153d083615496565b9250828210156153e3576153e2615601565b5b828203905092915050565b60006153f9826154a0565b9150615404836154a0565b92508282101561541757615416615601565b5b828203905092915050565b600061542d82615476565b9050919050565b60008115159050919050565b6000819050919050565b60007fffffffff0000000000000000000000000000000000000000000000000000000082169050919050565b600073ffffffffffffffffffffffffffffffffffffffff82169050919050565b6000819050919050565b600060ff82169050919050565b60006154b8826154a0565b9050919050565b82818337600083830152505050565b60005b838110156154ec5780820151818401526020810190506154d1565b838111156154fb576000848401525b50505050565b600061550c82615496565b915060008214156155205761551f615601565b5b600182039050919050565b6000600282049050600182168061554357607f821691505b6020821081141561555757615556615630565b5b50919050565b6155668261572c565b810181811067ffffffffffffffff82111715615585576155846156bd565b5b80604052505050565b600061559982615496565b91507fffffffffffffffffffffffffffffffffffffffffffffffffffffffffffffffff8214156155cc576155cb615601565b5b600182019050919050565b60006155e2826154a0565b915060ff8214156155f6576155f5615601565b5b600182019050919050565b7f4e487b7100000000000000000000000000000000000000000000000000000000600052601160045260246000fd5b7f4e487b7100000000000000000000000000000000000000000000000000000000600052602260045260246000fd5b7f4e487b7100000000000000000000000000000000000000000000000000000000600052603160045260246000fd5b7f4e487b7100000000000000000000000000000000000000000000000000000000600052603260045260246000fd5b7f4e487b7100000000000000000000000000000000000000000000000000000000600052604160045260246000fd5b600060033d111561570b5760046000803e61570860005161573d565b90505b90565b600080fd5b600080fd5b600080fd5b600080fd5b600080fd5b600080fd5b6000601f19601f8301169050919050565b60008160e01c9050919050565b7f455243313135353a207472616e7366657220746f206e6f6e204552433131353560008201527f526563656976657220696d706c656d656e746572000000000000000000000000602082015250565b7f546865206164647265737320646f6e2774206861766520746865207065726d6960008201527f7373696f6e000000000000000000000000000000000000000000000000000000602082015250565b7f537472696e67733a20686578206c656e67746820696e73756666696369656e74600082015250565b7f455243313135353a204552433131353552656365697665722072656a6563746560008201527f6420746f6b656e73000000000000000000000000000000000000000000000000602082015250565b7f455243313135353a2062616c616e636520717565727920666f7220746865207a60008201527f65726f2061646472657373000000000000000000000000000000000000000000602082015250565b7f546865207065726d697373696f6e20697320616c726561647920676176650000600082015250565b7f54686520737461747573206f66207468697320746f6b656e2063616e2774206260008201527f65207365742061732027736f6c64270000000000000000000000000000000000602082015250565b7f455243313135353a2063616c6c6572206973206e6f74206f776e6572206e6f7260008201527f20617070726f7665640000000000000000000000000000000000000000000000602082015250565b7f54686520746f6b656e20646f206e6f7420657869737473000000000000000000600082015250565b7f596f7520646f6e2774206861766520746865207065726d697373696f6e20746f60008201527f20656469742074686520737461747573206f66207468697320746f6b656e0000602082015250565b7f6f776e6564000000000000000000000000000000000000000000000000000000600082015250565b7f596f7520646f6e2774206861766520746865207065726d697373696f6e20746f60008201527f2067697665206f776e6572736869700000000000000000000000000000000000602082015250565b7f455243313135353a207472616e7366657220746f20746865207a65726f20616460008201527f6472657373000000000000000000000000000000000000000000000000000000602082015250565b7f455243313135353a207472616e736665722063616c6c6572206973206e6f742060008201527f6f776e6572206e6f7220617070726f7665640000000000000000000000000000602082015250565b7f455243313135355072657365744d696e7465725061757365723a206d7573742060008201527f68617665206d696e74657220726f6c6520746f206d696e740000000000000000602082015250565b7f455243313135353a20696e73756666696369656e742062616c616e636520666f60008201527f72207472616e7366657200000000000000000000000000000000000000000000602082015250565b7f736f6c6400000000000000000000000000000000000000000000000000000000600082015250565b7f596f75206e65656420746f20736574757020746865207665726966696361746960008201527f6f6e20636f6e7472616374206164647265737320666972737400000000000000602082015250565b7f5468697320746f6b656e2063616e277420626520636c61696d65640000000000600082015250565b7f416363657373436f6e74726f6c3a206163636f756e7420000000000000000000600082015250565b7f455243313135353a2073657474696e6720617070726f76616c2073746174757360008201527f20666f722073656c660000000000000000000000000000000000000000000000602082015250565b7f455243313135353a206163636f756e747320616e6420696473206c656e67746860008201527f206d69736d617463680000000000000000000000000000000000000000000000602082015250565b7f6d696e7465640000000000000000000000000000000000000000000000000000600082015250565b7f455243313135353a2069647320616e6420616d6f756e7473206c656e6774682060008201527f6d69736d61746368000000000000000000000000000000000000000000000000602082015250565b7f455243313135353a206d696e7420746f20746865207a65726f2061646472657360008201527f7300000000000000000000000000000000000000000000000000000000000000602082015250565b7f54686520737461747573206f66207468697320746f6b656e2063616e2774206260008201527f6520736574206173202773746f6c656e27000000000000000000000000000000602082015250565b7f206973206d697373696e6720726f6c6520000000000000000000000000000000600082015250565b7f416363657373436f6e74726f6c3a2063616e206f6e6c792072656e6f756e636560008201527f20726f6c657320666f722073656c660000000000000000000000000000000000602082015250565b600060443d1015615ea857615f2b565b615eb06151d5565b60043d036004823e80513d602482011167ffffffffffffffff82111715615ed8575050615f2b565b808201805167ffffffffffffffff811115615ef65750505050615f2b565b80602083010160043d038501811115615f13575050505050615f2b565b615f228260200185018661555d565b82955050505050505b90565b615f3781615422565b8114615f4257600080fd5b50565b615f4e81615434565b8114615f5957600080fd5b50565b615f6581615440565b8114615f7057600080fd5b50565b615f7c8161544a565b8114615f8757600080fd5b50565b615f9381615496565b8114615f9e57600080fd5b5056fea26469706673582212209c0f14897b77e8656152bc300beee84b2d18f9149942c3c5ea7a238c16b9f38f64736f6c63430008070033",
  "immutableReferences": {},
  "source": "pragma solidity ^0.8.7;\r\n\r\nimport \"./interfaces/INFCool.sol\";\r\nimport \"./interfaces/IPhoneVerification.sol\";\r\nimport \"./ERC1155Access.sol\";\r\nimport \"@openzeppelin/contracts/token/ERC1155/utils/ERC1155Holder.sol\";\r\n\r\ncontract NFCool is INFCool, ERC1155Access, ERC1155Holder {\r\n    string brandName;\r\n    uint8 tokensCount;\r\n\r\n    address private _verificationContract;\r\n\r\n    mapping (uint256 => uint256) private _tokenUnitsCount;\r\n    mapping(uint256 => TokenData) private _tokenData;\r\n    mapping(uint256 => mapping(uint256 => TokenUnitData)) private _tokenUnitData;\r\n    mapping(uint256 => mapping(uint256 => address)) private _claimPermissions;\r\n\r\n    constructor(string memory _brandName, address verificationContract) ERC1155Access(\"\") {\r\n        brandName = _brandName;\r\n        _verificationContract = verificationContract;\r\n    }\r\n\r\n    function getBrandName() external view returns (string memory) {\r\n        return brandName;\r\n    }\r\n\r\n    function haveClaimPermission(uint256 tokenId, uint256 unitId, address account) public view returns (bool) {\r\n        return account == _claimPermissions[tokenId][unitId];\r\n    }\r\n\r\n    function allBalancesOf(address account) public view returns (uint256[] memory){\r\n        uint[] memory amounts = new uint[](tokensCount);\r\n\r\n        for (uint i = 0 ; i < tokensCount ; i++) {\r\n            amounts[i] = balanceOf(account, i);\r\n        }\r\n        return amounts;\r\n    }\r\n\r\n    function getTokensCount() public view virtual override returns (uint256) {\r\n        return tokensCount;\r\n    }\r\n\r\n    function tokenData(uint256 tokenId) public view virtual override returns (TokenData memory) {\r\n        return _tokenData[tokenId];\r\n    }\r\n\r\n    function tokenUnitData(uint256 tokenId, uint256 tokenUnitId) public view virtual override returns (TokenUnitData memory) {\r\n        return _tokenUnitData[tokenId][tokenUnitId];\r\n    }\r\n\r\n    function mintToken(string calldata tokenUri, string calldata tokenName, bytes memory data) external virtual override returns (uint256) {\r\n        require(hasRole(MINTER_ROLE, _msgSender()), \"ERC1155PresetMinterPauser: must have minter role to mint\");\r\n\r\n        _mint(address(this), tokensCount, 0, data);\r\n        _tokenData[tokensCount] = TokenData(tokenUri, tokenName);\r\n\r\n        emit TokenMinted(tokensCount, tokenUri, tokenName, data);\r\n\r\n        tokensCount++;\r\n        return tokensCount - 1;\r\n    }\r\n\r\n    function mintTokenUnit(uint256 tokenId, string calldata nfcId, bytes memory data) external virtual override returns (uint256) {\r\n        require(hasRole(SUPPLIER_ROLE, _msgSender()), \"ERC1155PresetMinterPauser: must have minter role to mint\");\r\n        require(_exists(tokenId), \"The token do not exists\");\r\n\r\n        _mint(address(this), tokenId, 1, data);\r\n        _tokenUnitData[tokenId][_tokenUnitsCount[tokenId]] = TokenUnitData(address(this), nfcId, \"minted\");\r\n\r\n        emit TokenUnitMinted(tokenId, _tokenUnitsCount[tokenId], nfcId, data);\r\n\r\n        _tokenUnitsCount[tokenId]++;\r\n\r\n        return _tokenUnitsCount[tokenId] - 1;\r\n    }\r\n\r\n    function requestPhoneVerification(uint256 tokenId, uint256 unitId, address to, string calldata pin) external virtual override returns (bytes32 requestId) {\r\n        require(_verificationContract != address(0), \"You need to setup the verification contract address first\");\r\n        require(haveClaimPermission(tokenId, unitId, address(0)), \"The permission is already gave\");\r\n        require(keccak256(abi.encodePacked(_tokenUnitData[tokenId][unitId].status)) == keccak256(abi.encodePacked(\"sold\")), \"This token can't be claimed\");\r\n\r\n        return IPhoneVerification(_verificationContract).requestOwnership(tokenId, unitId, to, pin);\r\n    }\r\n\r\n    function ownershipPermission(uint256 tokenId, uint256 unitId, address to, bool valid) external virtual override {\r\n        require(msg.sender == _verificationContract, \"You don't have the permission to give ownership\");\r\n\r\n        _claimPermissions[tokenId][unitId] = to;\r\n\r\n        emit OwnershipPermissionGave(tokenId, unitId, to, valid);\r\n    }\r\n\r\n    function claimOwnership(uint256 tokenId, uint256 unitId, address to) external virtual override {\r\n        require(haveClaimPermission(tokenId, unitId, to), \"The address don't have the permission\");\r\n        require(keccak256(abi.encodePacked(_tokenUnitData[tokenId][unitId].status)) == keccak256(abi.encodePacked(\"sold\")), \"This token can't be claimed\");\r\n\r\n        _tokenUnitData[tokenId][unitId].status = \"owned\";\r\n        _safeUnitTransferFrom(address(this), to, tokenId, unitId, '');\r\n    }\r\n\r\n    function safeUnitTransferFrom(\r\n        address from,\r\n        address to,\r\n        uint256 tokenId,\r\n        uint256 unitId,\r\n        bytes memory data\r\n    ) public virtual override {\r\n        require(\r\n            from == _msgSender() || isApprovedForAll(from, _msgSender()),\r\n            \"ERC1155: caller is not owner nor approved\"\r\n        );\r\n        _safeUnitTransferFrom(from, to, tokenId, unitId, data);\r\n    }\r\n\r\n    function _safeUnitTransferFrom(\r\n        address from,\r\n        address to,\r\n        uint256 tokenId,\r\n        uint256 unitId,\r\n        bytes memory data\r\n    ) internal virtual {\r\n        _tokenUnitData[tokenId][unitId].owner = to;\r\n        _safeTransferFrom(from, to, tokenId, 1, data);\r\n    }\r\n\r\n    function unitSold(uint256 tokenId, uint256 unitId) external {\r\n        require(hasRole(SELLER_ROLE, _msgSender()), \"ERC1155PresetMinterPauser: must have minter role to mint\");\r\n        require(keccak256(abi.encodePacked(_tokenUnitData[tokenId][unitId].status)) == keccak256(abi.encodePacked('minted')), \"The status of this token can't be set as 'sold'\");\r\n\r\n        _tokenUnitData[tokenId][unitId].status = \"sold\";\r\n    }\r\n\r\n    function unitStolen(uint256 tokenId, uint256 unitId) external {\r\n        require(_isOwner(tokenId, unitId, msg.sender), \"You don't have the permission to edit the status of this token\");\r\n        require(keccak256(abi.encodePacked(_tokenUnitData[tokenId][unitId].status)) == keccak256(abi.encodePacked('owned')), \"The status of this token can't be set as 'stolen'\");\r\n\r\n        _tokenUnitData[tokenId][unitId].status = \"stolen\";\r\n    }\r\n\r\n    function supportsInterface(bytes4 interfaceId) public view virtual override(ERC1155Access, ERC1155Receiver) returns (bool) {\r\n        return super.supportsInterface(interfaceId);\r\n    }\r\n\r\n    function _setTokenURI(uint256 tokenId, string memory _tokenURI) internal virtual {\r\n        _tokenData[tokenId].uri = _tokenURI;\r\n    }\r\n\r\n    function _exists(uint256 tokenId) private view returns (bool) {\r\n        return tokenId < tokensCount;\r\n    }\r\n\r\n    function _isOwner(uint256 tokenId, uint256 unitId, address account) private view returns (bool) {\r\n        return _tokenUnitData[tokenId][unitId].owner == account;\r\n    }\r\n}\r\n",
  "sourcePath": "C:\\Users\\smlvi\\WebstormProjects\\nfcool-smart-contracts\\contracts\\NFCool.sol",
  "compiler": {
    "name": "solc",
    "version": "0.8.7+commit.e28d00a7.Emscripten.clang"
  },
  "schemaVersion": "3.4.3",
  "updatedAt": "2021-11-26T14:34:26.684Z",
  "devdoc": {
    "kind": "dev",
    "methods": {
      "balanceOf(address,uint256)": {
        "details": "See {IERC1155-balanceOf}. Requirements: - `account` cannot be the zero address."
      },
      "balanceOfBatch(address[],uint256[])": {
        "details": "See {IERC1155-balanceOfBatch}. Requirements: - `accounts` and `ids` must have the same length."
      },
      "getRoleAdmin(bytes32)": {
        "details": "Returns the admin role that controls `role`. See {grantRole} and {revokeRole}. To change a role's admin, use {_setRoleAdmin}."
      },
      "getRoleMember(bytes32,uint256)": {
        "details": "Returns one of the accounts that have `role`. `index` must be a value between 0 and {getRoleMemberCount}, non-inclusive. Role bearers are not sorted in any particular way, and their ordering may change at any point. WARNING: When using {getRoleMember} and {getRoleMemberCount}, make sure you perform all queries on the same block. See the following https://forum.openzeppelin.com/t/iterating-over-elements-on-enumerableset-in-openzeppelin-contracts/2296[forum post] for more information."
      },
      "getRoleMemberCount(bytes32)": {
        "details": "Returns the number of accounts that have `role`. Can be used together with {getRoleMember} to enumerate all bearers of a role."
      },
      "grantRole(bytes32,address)": {
        "details": "Overload {grantRole} to track enumerable memberships"
      },
      "hasRole(bytes32,address)": {
        "details": "Returns `true` if `account` has been granted `role`."
      },
      "isApprovedForAll(address,address)": {
        "details": "See {IERC1155-isApprovedForAll}."
      },
      "renounceRole(bytes32,address)": {
        "details": "Overload {renounceRole} to track enumerable memberships"
      },
      "revokeRole(bytes32,address)": {
        "details": "Overload {revokeRole} to track enumerable memberships"
      },
      "safeBatchTransferFrom(address,address,uint256[],uint256[],bytes)": {
        "details": "See {IERC1155-safeBatchTransferFrom}."
      },
      "safeTransferFrom(address,address,uint256,uint256,bytes)": {
        "details": "See {IERC1155-safeTransferFrom}."
      },
      "setApprovalForAll(address,bool)": {
        "details": "See {IERC1155-setApprovalForAll}."
      },
      "uri(uint256)": {
        "details": "See {IERC1155MetadataURI-uri}. This implementation returns the same URI for *all* token types. It relies on the token type ID substitution mechanism https://eips.ethereum.org/EIPS/eip-1155#metadata[defined in the EIP]. Clients calling this function must replace the `\\{id\\}` substring with the actual token type ID."
      }
    },
    "version": 1
  },
  "userdoc": {
    "kind": "user",
    "methods": {},
    "version": 1
  }
}