{
  "contractName": "NFCool",
  "abi": [
    {
      "inputs": [
        {
          "internalType": "string",
          "name": "_brandName",
          "type": "string"
        }
      ],
      "stateMutability": "nonpayable",
      "type": "constructor"
    },
    {
      "anonymous": false,
      "inputs": [
        {
          "indexed": true,
          "internalType": "address",
          "name": "account",
          "type": "address"
        },
        {
          "indexed": true,
          "internalType": "address",
          "name": "operator",
          "type": "address"
        },
        {
          "indexed": false,
          "internalType": "bool",
          "name": "approved",
          "type": "bool"
        }
      ],
      "name": "ApprovalForAll",
      "type": "event"
    },
    {
      "anonymous": false,
      "inputs": [
        {
          "indexed": true,
          "internalType": "uint256",
          "name": "tokenId",
          "type": "uint256"
        },
        {
          "indexed": false,
          "internalType": "uint256",
          "name": "unitId",
          "type": "uint256"
        },
        {
          "indexed": true,
          "internalType": "address",
          "name": "to",
          "type": "address"
        },
        {
          "indexed": false,
          "internalType": "bool",
          "name": "valid",
          "type": "bool"
        }
      ],
      "name": "OwnershipPermissionGave",
      "type": "event"
    },
    {
      "anonymous": false,
      "inputs": [
        {
          "indexed": true,
          "internalType": "bytes32",
          "name": "role",
          "type": "bytes32"
        },
        {
          "indexed": true,
          "internalType": "bytes32",
          "name": "previousAdminRole",
          "type": "bytes32"
        },
        {
          "indexed": true,
          "internalType": "bytes32",
          "name": "newAdminRole",
          "type": "bytes32"
        }
      ],
      "name": "RoleAdminChanged",
      "type": "event"
    },
    {
      "anonymous": false,
      "inputs": [
        {
          "indexed": true,
          "internalType": "bytes32",
          "name": "role",
          "type": "bytes32"
        },
        {
          "indexed": true,
          "internalType": "address",
          "name": "account",
          "type": "address"
        },
        {
          "indexed": true,
          "internalType": "address",
          "name": "sender",
          "type": "address"
        }
      ],
      "name": "RoleGranted",
      "type": "event"
    },
    {
      "anonymous": false,
      "inputs": [
        {
          "indexed": true,
          "internalType": "bytes32",
          "name": "role",
          "type": "bytes32"
        },
        {
          "indexed": true,
          "internalType": "address",
          "name": "account",
          "type": "address"
        },
        {
          "indexed": true,
          "internalType": "address",
          "name": "sender",
          "type": "address"
        }
      ],
      "name": "RoleRevoked",
      "type": "event"
    },
    {
      "anonymous": false,
      "inputs": [
        {
          "indexed": false,
          "internalType": "uint256",
          "name": "tokenId",
          "type": "uint256"
        },
        {
          "indexed": false,
          "internalType": "string",
          "name": "tokenUri",
          "type": "string"
        },
        {
          "indexed": false,
          "internalType": "string",
          "name": "tokenName",
          "type": "string"
        },
        {
          "indexed": false,
          "internalType": "bytes",
          "name": "data",
          "type": "bytes"
        }
      ],
      "name": "TokenMinted",
      "type": "event"
    },
    {
      "anonymous": false,
      "inputs": [
        {
          "indexed": true,
          "internalType": "uint256",
          "name": "tokenId",
          "type": "uint256"
        },
        {
          "indexed": false,
          "internalType": "uint256",
          "name": "unitId",
          "type": "uint256"
        },
        {
          "indexed": false,
          "internalType": "string",
          "name": "nfcId",
          "type": "string"
        },
        {
          "indexed": false,
          "internalType": "bytes",
          "name": "data",
          "type": "bytes"
        }
      ],
      "name": "TokenUnitMinted",
      "type": "event"
    },
    {
      "anonymous": false,
      "inputs": [
        {
          "indexed": true,
          "internalType": "address",
          "name": "operator",
          "type": "address"
        },
        {
          "indexed": true,
          "internalType": "address",
          "name": "from",
          "type": "address"
        },
        {
          "indexed": true,
          "internalType": "address",
          "name": "to",
          "type": "address"
        },
        {
          "indexed": false,
          "internalType": "uint256[]",
          "name": "ids",
          "type": "uint256[]"
        },
        {
          "indexed": false,
          "internalType": "uint256[]",
          "name": "values",
          "type": "uint256[]"
        }
      ],
      "name": "TransferBatch",
      "type": "event"
    },
    {
      "anonymous": false,
      "inputs": [
        {
          "indexed": true,
          "internalType": "address",
          "name": "operator",
          "type": "address"
        },
        {
          "indexed": true,
          "internalType": "address",
          "name": "from",
          "type": "address"
        },
        {
          "indexed": true,
          "internalType": "address",
          "name": "to",
          "type": "address"
        },
        {
          "indexed": false,
          "internalType": "uint256",
          "name": "id",
          "type": "uint256"
        },
        {
          "indexed": false,
          "internalType": "uint256",
          "name": "value",
          "type": "uint256"
        }
      ],
      "name": "TransferSingle",
      "type": "event"
    },
    {
      "anonymous": false,
      "inputs": [
        {
          "indexed": false,
          "internalType": "string",
          "name": "value",
          "type": "string"
        },
        {
          "indexed": true,
          "internalType": "uint256",
          "name": "id",
          "type": "uint256"
        }
      ],
      "name": "URI",
      "type": "event"
    },
    {
      "inputs": [],
      "name": "DEFAULT_ADMIN_ROLE",
      "outputs": [
        {
          "internalType": "bytes32",
          "name": "",
          "type": "bytes32"
        }
      ],
      "stateMutability": "view",
      "type": "function"
    },
    {
      "inputs": [],
      "name": "MINTER_ROLE",
      "outputs": [
        {
          "internalType": "bytes32",
          "name": "",
          "type": "bytes32"
        }
      ],
      "stateMutability": "view",
      "type": "function"
    },
    {
      "inputs": [
        {
          "internalType": "address",
          "name": "account",
          "type": "address"
        },
        {
          "internalType": "uint256",
          "name": "id",
          "type": "uint256"
        }
      ],
      "name": "balanceOf",
      "outputs": [
        {
          "internalType": "uint256",
          "name": "",
          "type": "uint256"
        }
      ],
      "stateMutability": "view",
      "type": "function"
    },
    {
      "inputs": [
        {
          "internalType": "address[]",
          "name": "accounts",
          "type": "address[]"
        },
        {
          "internalType": "uint256[]",
          "name": "ids",
          "type": "uint256[]"
        }
      ],
      "name": "balanceOfBatch",
      "outputs": [
        {
          "internalType": "uint256[]",
          "name": "",
          "type": "uint256[]"
        }
      ],
      "stateMutability": "view",
      "type": "function"
    },
    {
      "inputs": [
        {
          "internalType": "bytes32",
          "name": "role",
          "type": "bytes32"
        }
      ],
      "name": "getRoleAdmin",
      "outputs": [
        {
          "internalType": "bytes32",
          "name": "",
          "type": "bytes32"
        }
      ],
      "stateMutability": "view",
      "type": "function"
    },
    {
      "inputs": [
        {
          "internalType": "bytes32",
          "name": "role",
          "type": "bytes32"
        },
        {
          "internalType": "uint256",
          "name": "index",
          "type": "uint256"
        }
      ],
      "name": "getRoleMember",
      "outputs": [
        {
          "internalType": "address",
          "name": "",
          "type": "address"
        }
      ],
      "stateMutability": "view",
      "type": "function"
    },
    {
      "inputs": [
        {
          "internalType": "bytes32",
          "name": "role",
          "type": "bytes32"
        }
      ],
      "name": "getRoleMemberCount",
      "outputs": [
        {
          "internalType": "uint256",
          "name": "",
          "type": "uint256"
        }
      ],
      "stateMutability": "view",
      "type": "function"
    },
    {
      "inputs": [
        {
          "internalType": "bytes32",
          "name": "role",
          "type": "bytes32"
        },
        {
          "internalType": "address",
          "name": "account",
          "type": "address"
        }
      ],
      "name": "grantRole",
      "outputs": [],
      "stateMutability": "nonpayable",
      "type": "function"
    },
    {
      "inputs": [
        {
          "internalType": "bytes32",
          "name": "role",
          "type": "bytes32"
        },
        {
          "internalType": "address",
          "name": "account",
          "type": "address"
        }
      ],
      "name": "hasRole",
      "outputs": [
        {
          "internalType": "bool",
          "name": "",
          "type": "bool"
        }
      ],
      "stateMutability": "view",
      "type": "function"
    },
    {
      "inputs": [
        {
          "internalType": "address",
          "name": "account",
          "type": "address"
        },
        {
          "internalType": "address",
          "name": "operator",
          "type": "address"
        }
      ],
      "name": "isApprovedForAll",
      "outputs": [
        {
          "internalType": "bool",
          "name": "",
          "type": "bool"
        }
      ],
      "stateMutability": "view",
      "type": "function"
    },
    {
      "inputs": [
        {
          "internalType": "address",
          "name": "",
          "type": "address"
        },
        {
          "internalType": "address",
          "name": "",
          "type": "address"
        },
        {
          "internalType": "uint256[]",
          "name": "",
          "type": "uint256[]"
        },
        {
          "internalType": "uint256[]",
          "name": "",
          "type": "uint256[]"
        },
        {
          "internalType": "bytes",
          "name": "",
          "type": "bytes"
        }
      ],
      "name": "onERC1155BatchReceived",
      "outputs": [
        {
          "internalType": "bytes4",
          "name": "",
          "type": "bytes4"
        }
      ],
      "stateMutability": "nonpayable",
      "type": "function"
    },
    {
      "inputs": [
        {
          "internalType": "address",
          "name": "",
          "type": "address"
        },
        {
          "internalType": "address",
          "name": "",
          "type": "address"
        },
        {
          "internalType": "uint256",
          "name": "",
          "type": "uint256"
        },
        {
          "internalType": "uint256",
          "name": "",
          "type": "uint256"
        },
        {
          "internalType": "bytes",
          "name": "",
          "type": "bytes"
        }
      ],
      "name": "onERC1155Received",
      "outputs": [
        {
          "internalType": "bytes4",
          "name": "",
          "type": "bytes4"
        }
      ],
      "stateMutability": "nonpayable",
      "type": "function"
    },
    {
      "inputs": [
        {
          "internalType": "bytes32",
          "name": "role",
          "type": "bytes32"
        },
        {
          "internalType": "address",
          "name": "account",
          "type": "address"
        }
      ],
      "name": "renounceRole",
      "outputs": [],
      "stateMutability": "nonpayable",
      "type": "function"
    },
    {
      "inputs": [
        {
          "internalType": "bytes32",
          "name": "role",
          "type": "bytes32"
        },
        {
          "internalType": "address",
          "name": "account",
          "type": "address"
        }
      ],
      "name": "revokeRole",
      "outputs": [],
      "stateMutability": "nonpayable",
      "type": "function"
    },
    {
      "inputs": [
        {
          "internalType": "address",
          "name": "from",
          "type": "address"
        },
        {
          "internalType": "address",
          "name": "to",
          "type": "address"
        },
        {
          "internalType": "uint256[]",
          "name": "ids",
          "type": "uint256[]"
        },
        {
          "internalType": "uint256[]",
          "name": "amounts",
          "type": "uint256[]"
        },
        {
          "internalType": "bytes",
          "name": "data",
          "type": "bytes"
        }
      ],
      "name": "safeBatchTransferFrom",
      "outputs": [],
      "stateMutability": "nonpayable",
      "type": "function"
    },
    {
      "inputs": [
        {
          "internalType": "address",
          "name": "from",
          "type": "address"
        },
        {
          "internalType": "address",
          "name": "to",
          "type": "address"
        },
        {
          "internalType": "uint256",
          "name": "id",
          "type": "uint256"
        },
        {
          "internalType": "uint256",
          "name": "amount",
          "type": "uint256"
        },
        {
          "internalType": "bytes",
          "name": "data",
          "type": "bytes"
        }
      ],
      "name": "safeTransferFrom",
      "outputs": [],
      "stateMutability": "nonpayable",
      "type": "function"
    },
    {
      "inputs": [
        {
          "internalType": "address",
          "name": "operator",
          "type": "address"
        },
        {
          "internalType": "bool",
          "name": "approved",
          "type": "bool"
        }
      ],
      "name": "setApprovalForAll",
      "outputs": [],
      "stateMutability": "nonpayable",
      "type": "function"
    },
    {
      "inputs": [
        {
          "internalType": "uint256",
          "name": "",
          "type": "uint256"
        }
      ],
      "name": "uri",
      "outputs": [
        {
          "internalType": "string",
          "name": "",
          "type": "string"
        }
      ],
      "stateMutability": "view",
      "type": "function"
    },
    {
      "inputs": [
        {
          "internalType": "uint256",
          "name": "tokenId",
          "type": "uint256"
        },
        {
          "internalType": "uint256",
          "name": "unitId",
          "type": "uint256"
        },
        {
          "internalType": "address",
          "name": "account",
          "type": "address"
        }
      ],
      "name": "haveClaimPermission",
      "outputs": [
        {
          "internalType": "bool",
          "name": "",
          "type": "bool"
        }
      ],
      "stateMutability": "view",
      "type": "function"
    },
    {
      "inputs": [],
      "name": "getAllTokens",
      "outputs": [
        {
          "components": [
            {
              "internalType": "string",
              "name": "uri",
              "type": "string"
            },
            {
              "internalType": "string",
              "name": "name",
              "type": "string"
            }
          ],
          "internalType": "struct TokenData[]",
          "name": "",
          "type": "tuple[]"
        }
      ],
      "stateMutability": "view",
      "type": "function"
    },
    {
      "inputs": [
        {
          "internalType": "address",
          "name": "account",
          "type": "address"
        }
      ],
      "name": "allBalancesOf",
      "outputs": [
        {
          "internalType": "uint256[]",
          "name": "",
          "type": "uint256[]"
        }
      ],
      "stateMutability": "view",
      "type": "function"
    },
    {
      "inputs": [],
      "name": "getTokensCount",
      "outputs": [
        {
          "internalType": "uint256",
          "name": "",
          "type": "uint256"
        }
      ],
      "stateMutability": "view",
      "type": "function"
    },
    {
      "inputs": [
        {
          "internalType": "uint256",
          "name": "tokenId",
          "type": "uint256"
        }
      ],
      "name": "tokenData",
      "outputs": [
        {
          "components": [
            {
              "internalType": "string",
              "name": "uri",
              "type": "string"
            },
            {
              "internalType": "string",
              "name": "name",
              "type": "string"
            }
          ],
          "internalType": "struct TokenData",
          "name": "",
          "type": "tuple"
        }
      ],
      "stateMutability": "view",
      "type": "function"
    },
    {
      "inputs": [
        {
          "internalType": "uint256",
          "name": "tokenId",
          "type": "uint256"
        },
        {
          "internalType": "uint256",
          "name": "tokenUnitId",
          "type": "uint256"
        }
      ],
      "name": "tokenUnitData",
      "outputs": [
        {
          "components": [
            {
              "internalType": "address",
              "name": "owner",
              "type": "address"
            },
            {
              "internalType": "string",
              "name": "nfcId",
              "type": "string"
            },
            {
              "internalType": "string",
              "name": "status",
              "type": "string"
            }
          ],
          "internalType": "struct TokenUnitData",
          "name": "",
          "type": "tuple"
        }
      ],
      "stateMutability": "view",
      "type": "function"
    },
    {
      "inputs": [
        {
          "internalType": "string",
          "name": "tokenUri",
          "type": "string"
        },
        {
          "internalType": "string",
          "name": "tokenName",
          "type": "string"
        },
        {
          "internalType": "bytes",
          "name": "data",
          "type": "bytes"
        }
      ],
      "name": "mintToken",
      "outputs": [
        {
          "internalType": "uint256",
          "name": "",
          "type": "uint256"
        }
      ],
      "stateMutability": "nonpayable",
      "type": "function"
    },
    {
      "inputs": [
        {
          "internalType": "uint256",
          "name": "tokenId",
          "type": "uint256"
        },
        {
          "internalType": "string",
          "name": "nfcId",
          "type": "string"
        },
        {
          "internalType": "bytes",
          "name": "data",
          "type": "bytes"
        }
      ],
      "name": "mintTokenUnit",
      "outputs": [
        {
          "internalType": "uint256",
          "name": "",
          "type": "uint256"
        }
      ],
      "stateMutability": "nonpayable",
      "type": "function"
    },
    {
      "inputs": [
        {
          "internalType": "uint256",
          "name": "tokenId",
          "type": "uint256"
        },
        {
          "internalType": "uint256",
          "name": "unitId",
          "type": "uint256"
        },
        {
          "internalType": "address",
          "name": "to",
          "type": "address"
        },
        {
          "internalType": "string",
          "name": "pin",
          "type": "string"
        }
      ],
      "name": "requestPhoneVerification",
      "outputs": [
        {
          "internalType": "bytes32",
          "name": "requestId",
          "type": "bytes32"
        }
      ],
      "stateMutability": "nonpayable",
      "type": "function"
    },
    {
      "inputs": [
        {
          "internalType": "uint256",
          "name": "tokenId",
          "type": "uint256"
        },
        {
          "internalType": "uint256",
          "name": "unitId",
          "type": "uint256"
        },
        {
          "internalType": "address",
          "name": "to",
          "type": "address"
        },
        {
          "internalType": "bool",
          "name": "valid",
          "type": "bool"
        }
      ],
      "name": "ownershipPermission",
      "outputs": [],
      "stateMutability": "nonpayable",
      "type": "function"
    },
    {
      "inputs": [
        {
          "internalType": "uint256",
          "name": "tokenId",
          "type": "uint256"
        },
        {
          "internalType": "uint256",
          "name": "unitId",
          "type": "uint256"
        },
        {
          "internalType": "address",
          "name": "to",
          "type": "address"
        }
      ],
      "name": "claimOwnership",
      "outputs": [],
      "stateMutability": "nonpayable",
      "type": "function"
    },
    {
      "inputs": [
        {
          "internalType": "address",
          "name": "from",
          "type": "address"
        },
        {
          "internalType": "address",
          "name": "to",
          "type": "address"
        },
        {
          "internalType": "uint256",
          "name": "tokenId",
          "type": "uint256"
        },
        {
          "internalType": "uint256",
          "name": "unitId",
          "type": "uint256"
        },
        {
          "internalType": "bytes",
          "name": "data",
          "type": "bytes"
        }
      ],
      "name": "safeUnitTransferFrom",
      "outputs": [],
      "stateMutability": "nonpayable",
      "type": "function"
    },
    {
      "inputs": [
        {
          "internalType": "address",
          "name": "contractAdr",
          "type": "address"
        }
      ],
      "name": "setVerificationContract",
      "outputs": [],
      "stateMutability": "nonpayable",
      "type": "function"
    },
    {
      "inputs": [
        {
          "internalType": "uint256",
          "name": "tokenId",
          "type": "uint256"
        },
        {
          "internalType": "uint256",
          "name": "unitId",
          "type": "uint256"
        }
      ],
      "name": "unitSold",
      "outputs": [],
      "stateMutability": "nonpayable",
      "type": "function"
    },
    {
      "inputs": [
        {
          "internalType": "bytes4",
          "name": "interfaceId",
          "type": "bytes4"
        }
      ],
      "name": "supportsInterface",
      "outputs": [
        {
          "internalType": "bool",
          "name": "",
          "type": "bool"
        }
      ],
      "stateMutability": "view",
      "type": "function"
    }
  ],
  "bytecode": "0x60806040523480156200001157600080fd5b506040516200643f3803806200643f8339818101604052810190620000379190620004c0565b60405180602001604052806000815250806200005981620000e060201b60201c565b506200007e6000801b62000072620000fc60201b60201c565b6200010460201b60201c565b620000bf7f9f2df0fed2c77648de5860a4cc508cd0818c85b8b8a1ab4ceeef8d981c8956a6620000b3620000fc60201b60201c565b6200010460201b60201c565b508060059080519060200190620000d892919062000392565b505062000695565b8060049080519060200190620000f892919062000392565b5050565b600033905090565b6200011b82826200014c60201b620021c11760201c565b6200014781600160008581526020019081526020016000206200016260201b620021cf1790919060201c565b505050565b6200015e82826200019a60201b60201c565b5050565b600062000192836000018373ffffffffffffffffffffffffffffffffffffffff1660001b6200028b60201b60201c565b905092915050565b620001ac82826200030560201b60201c565b6200028757600160008084815260200190815260200160002060000160008373ffffffffffffffffffffffffffffffffffffffff1673ffffffffffffffffffffffffffffffffffffffff16815260200190815260200160002060006101000a81548160ff0219169083151502179055506200022c620000fc60201b60201c565b73ffffffffffffffffffffffffffffffffffffffff168173ffffffffffffffffffffffffffffffffffffffff16837f2f8788117e7eff1d82e926ec794901d17c78024a50270940304540a733656f0d60405160405180910390a45b5050565b60006200029f83836200036f60201b60201c565b620002fa578260000182908060018154018082558091505060019003906000526020600020016000909190919091505582600001805490508360010160008481526020019081526020016000208190555060019050620002ff565b600090505b92915050565b600080600084815260200190815260200160002060000160008373ffffffffffffffffffffffffffffffffffffffff1673ffffffffffffffffffffffffffffffffffffffff16815260200190815260200160002060009054906101000a900460ff16905092915050565b600080836001016000848152602001908152602001600020541415905092915050565b828054620003a090620005a6565b90600052602060002090601f016020900481019282620003c4576000855562000410565b82601f10620003df57805160ff191683800117855562000410565b8280016001018555821562000410579182015b828111156200040f578251825591602001919060010190620003f2565b5b5090506200041f919062000423565b5090565b5b808211156200043e57600081600090555060010162000424565b5090565b60006200045962000453846200053a565b62000511565b90508281526020810184848401111562000478576200047762000675565b5b6200048584828562000570565b509392505050565b600082601f830112620004a557620004a462000670565b5b8151620004b784826020860162000442565b91505092915050565b600060208284031215620004d957620004d86200067f565b5b600082015167ffffffffffffffff811115620004fa57620004f96200067a565b5b62000508848285016200048d565b91505092915050565b60006200051d62000530565b90506200052b8282620005dc565b919050565b6000604051905090565b600067ffffffffffffffff82111562000558576200055762000641565b5b620005638262000684565b9050602081019050919050565b60005b838110156200059057808201518184015260208101905062000573565b83811115620005a0576000848401525b50505050565b60006002820490506001821680620005bf57607f821691505b60208210811415620005d657620005d562000612565b5b50919050565b620005e78262000684565b810181811067ffffffffffffffff8211171562000609576200060862000641565b5b80604052505050565b7f4e487b7100000000000000000000000000000000000000000000000000000000600052602260045260246000fd5b7f4e487b7100000000000000000000000000000000000000000000000000000000600052604160045260246000fd5b600080fd5b600080fd5b600080fd5b600080fd5b6000601f19601f8301169050919050565b615d9a80620006a56000396000f3fe608060405234801561001057600080fd5b50600436106101fa5760003560e01c80639010d07c1161011a578063ca15c873116100ad578063f1cb3a1a1161007c578063f1cb3a1a14610657578063f23a6e6114610687578063f242432a146106b7578063f53fb9b9146106d3578063fb48d6be146106ef576101fa565b8063ca15c873146105bd578063d5391393146105ed578063d547741f1461060b578063e985e9c514610627576101fa565b8063a22cb465116100e9578063a22cb46514610511578063b4b5b48f1461052d578063bc197c811461055d578063c3d042791461058d576101fa565b80639010d07c1461047757806391d14854146104a7578063991ffb49146104d7578063a217fddf146104f3576101fa565b80632f2ff15d116101925780634e1273f4116101615780634e1273f4146103cb578063545b6422146103fb5780636648b1cb146104175780638273a41114610447576101fa565b80632f2ff15d1461034557806336568abe146103615780633962f82d1461037d5780633e80bb741461039b576101fa565b8063241230ef116101ce578063241230ef146102bf578063248a9ca3146102db5780632a5c792a1461030b5780632eb2c2d614610329576101fa565b8062fdd58e146101ff57806301ffc9a71461022f5780630e89341c1461025f5780631cbb35e91461028f575b600080fd5b61021960048036038101906102149190613e4f565b61070b565b6040516102269190614f23565b60405180910390f35b61024960048036038101906102449190613fe1565b6107d5565b6040516102569190614bec565b60405180910390f35b610279600480360381019061027491906140ec565b6107e7565b6040516102869190614c3d565b60405180910390f35b6102a960048036038101906102a491906141e9565b61087b565b6040516102b69190614bec565b60405180910390f35b6102d960048036038101906102d491906141e9565b6108f9565b005b6102f560048036038101906102f09190613f07565b610a87565b6040516103029190614c07565b60405180910390f35b610313610aa6565b6040516103209190614b71565b60405180910390f35b610343600480360381019061033e9190613ca9565b610caa565b005b61035f600480360381019061035a9190613f61565b610d4b565b005b61037b60048036038101906103769190613f61565b610d7f565b005b610385610db3565b6040516103929190614f23565b60405180910390f35b6103b560048036038101906103b091906141a9565b610dcd565b6040516103c29190614f01565b60405180910390f35b6103e560048036038101906103e09190613e8f565b610f86565b6040516103f29190614b93565b60405180910390f35b610415600480360381019061041091906141a9565b61109f565b005b610431600480360381019061042c919061403b565b6111cc565b60405161043e9190614f23565b60405180910390f35b610461600480360381019061045c9190613c3c565b61140e565b60405161046e9190614b93565b60405180910390f35b610491600480360381019061048c9190613fa1565b6114d2565b60405161049e9190614a94565b60405180910390f35b6104c160048036038101906104bc9190613f61565b611501565b6040516104ce9190614bec565b60405180910390f35b6104f160048036038101906104ec9190613d78565b61156b565b005b6104fb61160c565b6040516105089190614c07565b60405180910390f35b61052b60048036038101906105269190613e0f565b611613565b005b610547600480360381019061054291906140ec565b611794565b6040516105549190614edf565b60405180910390f35b61057760048036038101906105729190613ca9565b6118e5565b6040516105849190614c22565b60405180910390f35b6105a760048036038101906105a29190614119565b6118fa565b6040516105b49190614f23565b60405180910390f35b6105d760048036038101906105d29190613f07565b611bca565b6040516105e49190614f23565b60405180910390f35b6105f5611bee565b6040516106029190614c07565b60405180910390f35b61062560048036038101906106209190613f61565b611c12565b005b610641600480360381019061063c9190613c69565b611c46565b60405161064e9190614bec565b60405180910390f35b610671600480360381019061066c91906142a3565b611cda565b60405161067e9190614c07565b60405180910390f35b6106a1600480360381019061069c9190613d78565b611f2a565b6040516106ae9190614c22565b60405180910390f35b6106d160048036038101906106cc9190613d78565b611f3f565b005b6106ed60048036038101906106e8919061423c565b611fe0565b005b61070960048036038101906107049190613c3c565b61212a565b005b60008073ffffffffffffffffffffffffffffffffffffffff168373ffffffffffffffffffffffffffffffffffffffff16141561077c576040517f08c379a000000000000000000000000000000000000000000000000000000000815260040161077390614cdf565b60405180910390fd5b6002600083815260200190815260200160002060008473ffffffffffffffffffffffffffffffffffffffff1673ffffffffffffffffffffffffffffffffffffffff16815260200190815260200160002054905092915050565b60006107e0826121ff565b9050919050565b6060600480546107f69061542d565b80601f01602080910402602001604051908101604052809291908181526020018280546108229061542d565b801561086f5780601f106108445761010080835404028352916020019161086f565b820191906000526020600020905b81548152906001019060200180831161085257829003601f168201915b50505050509050919050565b6000600a6000858152602001908152602001600020600084815260200190815260200160002060009054906101000a900473ffffffffffffffffffffffffffffffffffffffff1673ffffffffffffffffffffffffffffffffffffffff168273ffffffffffffffffffffffffffffffffffffffff161490509392505050565b61090483838361087b565b610943576040517f08c379a000000000000000000000000000000000000000000000000000000000815260040161093a90614c7f565b60405180910390fd5b60405160200161095290614a45565b6040516020818303038152906040528051906020012060096000858152602001908152602001600020600084815260200190815260200160002060020160405160200161099f9190614a2e565b60405160208183030381529060405280519060200120146109f5576040517f08c379a00000000000000000000000000000000000000000000000000000000081526004016109ec90614e1f565b60405180910390fd5b6040518060400160405280600581526020017f6f776e65640000000000000000000000000000000000000000000000000000008152506009600085815260200190815260200160002060008481526020019081526020016000206002019080519060200190610a659291906138b3565b50610a823082858560405180602001604052806000815250612279565b505050565b6000806000838152602001908152602001600020600101549050919050565b60606000600660009054906101000a900460ff1660ff1667ffffffffffffffff811115610ad657610ad56155bf565b5b604051908082528060200260200182016040528015610b0f57816020015b610afc613939565b815260200190600190039081610af45790505b50905060005b600660009054906101000a900460ff1660ff16811015610ca25760086000828152602001908152602001600020604051806040016040529081600082018054610b5d9061542d565b80601f0160208091040260200160405190810160405280929190818152602001828054610b899061542d565b8015610bd65780601f10610bab57610100808354040283529160200191610bd6565b820191906000526020600020905b815481529060010190602001808311610bb957829003601f168201915b50505050508152602001600182018054610bef9061542d565b80601f0160208091040260200160405190810160405280929190818152602001828054610c1b9061542d565b8015610c685780601f10610c3d57610100808354040283529160200191610c68565b820191906000526020600020905b815481529060010190602001808311610c4b57829003601f168201915b505050505081525050828281518110610c8457610c83615590565b5b60200260200101819052508080610c9a90615490565b915050610b15565b508091505090565b610cb26122f4565b73ffffffffffffffffffffffffffffffffffffffff168573ffffffffffffffffffffffffffffffffffffffff161480610cf85750610cf785610cf26122f4565b611c46565b5b610d37576040517f08c379a0000000000000000000000000000000000000000000000000000000008152600401610d2e90614d9f565b60405180910390fd5b610d4485858585856122fc565b5050505050565b610d558282612613565b610d7a81600160008581526020019081526020016000206121cf90919063ffffffff16565b505050565b610d89828261263c565b610dae81600160008581526020019081526020016000206126bf90919063ffffffff16565b505050565b6000600660009054906101000a900460ff1660ff16905090565b610dd5613953565b6009600084815260200190815260200160002060008381526020019081526020016000206040518060600160405290816000820160009054906101000a900473ffffffffffffffffffffffffffffffffffffffff1673ffffffffffffffffffffffffffffffffffffffff1673ffffffffffffffffffffffffffffffffffffffff168152602001600182018054610e6a9061542d565b80601f0160208091040260200160405190810160405280929190818152602001828054610e969061542d565b8015610ee35780601f10610eb857610100808354040283529160200191610ee3565b820191906000526020600020905b815481529060010190602001808311610ec657829003601f168201915b50505050508152602001600282018054610efc9061542d565b80601f0160208091040260200160405190810160405280929190818152602001828054610f289061542d565b8015610f755780601f10610f4a57610100808354040283529160200191610f75565b820191906000526020600020905b815481529060010190602001808311610f5857829003601f168201915b505050505081525050905092915050565b60608151835114610fcc576040517f08c379a0000000000000000000000000000000000000000000000000000000008152600401610fc390614e5f565b60405180910390fd5b6000835167ffffffffffffffff811115610fe957610fe86155bf565b5b6040519080825280602002602001820160405280156110175781602001602082028036833780820191505090505b50905060005b84518110156110945761106485828151811061103c5761103b615590565b5b602002602001015185838151811061105757611056615590565b5b602002602001015161070b565b82828151811061107757611076615590565b5b6020026020010181815250508061108d90615490565b905061101d565b508091505092915050565b6110d07f9f2df0fed2c77648de5860a4cc508cd0818c85b8b8a1ab4ceeef8d981c8956a66110cb6122f4565b611501565b61110f576040517f08c379a000000000000000000000000000000000000000000000000000000000815260040161110690614dbf565b60405180910390fd5b611118826126ef565b611157576040517f08c379a000000000000000000000000000000000000000000000000000000000815260040161114e90614d3f565b60405180910390fd5b6040518060400160405280600481526020017f736f6c640000000000000000000000000000000000000000000000000000000081525060096000848152602001908152602001600020600083815260200190815260200160002060020190805190602001906111c79291906138b3565b505050565b60006111ff7f9f2df0fed2c77648de5860a4cc508cd0818c85b8b8a1ab4ceeef8d981c8956a66111fa6122f4565b611501565b61123e576040517f08c379a000000000000000000000000000000000000000000000000000000000815260040161123590614dbf565b60405180910390fd5b61125d30600660009054906101000a900460ff1660ff1660008561270d565b604051806040016040528087878080601f016020809104026020016040519081016040528093929190818152602001838380828437600081840152601f19601f82011690508083019250505050505050815260200185858080601f016020809104026020016040519081016040528093929190818152602001838380828437600081840152601f19601f8201169050808301925050505050505081525060086000600660009054906101000a900460ff1660ff168152602001908152602001600020600082015181600001908051906020019061133b9291906138b3565b5060208201518160010190805190602001906113589291906138b3565b509050507f1c001b259495d284b16f44ac0662ad743888a2bf65fe7dc4c654e3a8327a9c63600660009054906101000a900460ff1687878787876040516113a496959493929190615025565b60405180910390a16006600081819054906101000a900460ff16809291906113cb906154d9565b91906101000a81548160ff021916908360ff160217905550506001600660009054906101000a900460ff1661140091906152f0565b60ff16905095945050505050565b60606000600660009054906101000a900460ff1660ff1667ffffffffffffffff81111561143e5761143d6155bf565b5b60405190808252806020026020018201604052801561146c5781602001602082028036833780820191505090505b50905060005b600660009054906101000a900460ff1660ff168110156114c857611496848261070b565b8282815181106114a9576114a8615590565b5b60200260200101818152505080806114c090615490565b915050611472565b5080915050919050565b60006114f982600160008681526020019081526020016000206128a490919063ffffffff16565b905092915050565b600080600084815260200190815260200160002060000160008373ffffffffffffffffffffffffffffffffffffffff1673ffffffffffffffffffffffffffffffffffffffff16815260200190815260200160002060009054906101000a900460ff16905092915050565b6115736122f4565b73ffffffffffffffffffffffffffffffffffffffff168573ffffffffffffffffffffffffffffffffffffffff1614806115b957506115b8856115b36122f4565b611c46565b5b6115f8576040517f08c379a00000000000000000000000000000000000000000000000000000000081526004016115ef90614d1f565b60405180910390fd5b6116058585858585612279565b5050505050565b6000801b81565b8173ffffffffffffffffffffffffffffffffffffffff166116326122f4565b73ffffffffffffffffffffffffffffffffffffffff161415611689576040517f08c379a000000000000000000000000000000000000000000000000000000000815260040161168090614e3f565b60405180910390fd5b80600360006116966122f4565b73ffffffffffffffffffffffffffffffffffffffff1673ffffffffffffffffffffffffffffffffffffffff16815260200190815260200160002060008473ffffffffffffffffffffffffffffffffffffffff1673ffffffffffffffffffffffffffffffffffffffff16815260200190815260200160002060006101000a81548160ff0219169083151502179055508173ffffffffffffffffffffffffffffffffffffffff166117436122f4565b73ffffffffffffffffffffffffffffffffffffffff167f17307eab39ab6107e8899845ad3d59bd9653f200f220920489ca2b5937696c31836040516117889190614bec565b60405180910390a35050565b61179c613939565b600860008381526020019081526020016000206040518060400160405290816000820180546117ca9061542d565b80601f01602080910402602001604051908101604052809291908181526020018280546117f69061542d565b80156118435780601f1061181857610100808354040283529160200191611843565b820191906000526020600020905b81548152906001019060200180831161182657829003601f168201915b5050505050815260200160018201805461185c9061542d565b80601f01602080910402602001604051908101604052809291908181526020018280546118889061542d565b80156118d55780601f106118aa576101008083540402835291602001916118d5565b820191906000526020600020905b8154815290600101906020018083116118b857829003601f168201915b5050505050815250509050919050565b600063bc197c8160e01b905095945050505050565b600061192d7f9f2df0fed2c77648de5860a4cc508cd0818c85b8b8a1ab4ceeef8d981c8956a66119286122f4565b611501565b61196c576040517f08c379a000000000000000000000000000000000000000000000000000000000815260040161196390614dbf565b60405180910390fd5b611975856126ef565b6119b4576040517f08c379a00000000000000000000000000000000000000000000000000000000081526004016119ab90614d3f565b60405180910390fd5b6119c1308660018561270d565b60405180606001604052803073ffffffffffffffffffffffffffffffffffffffff16815260200185858080601f016020809104026020016040519081016040528093929190818152602001838380828437600081840152601f19601f8201169050808301925050505050505081526020016040518060400160405280600681526020017f6d696e74656400000000000000000000000000000000000000000000000000008152508152506009600087815260200190815260200160002060006007600089815260200190815260200160002054815260200190815260200160002060008201518160000160006101000a81548173ffffffffffffffffffffffffffffffffffffffff021916908373ffffffffffffffffffffffffffffffffffffffff1602179055506020820151816001019080519060200190611b059291906138b3565b506040820151816002019080519060200190611b229291906138b3565b50905050847f5ff47a97796301f38bf23b5ecefbb1b59a05f7a5689a668b98c0821a0e8f3e066007600088815260200190815260200160002054868686604051611b6f9493929190614f67565b60405180910390a2600760008681526020019081526020016000206000815480929190611b9b90615490565b919050555060016007600087815260200190815260200160002054611bc091906152bc565b9050949350505050565b6000611be7600160008481526020019081526020016000206128be565b9050919050565b7f9f2df0fed2c77648de5860a4cc508cd0818c85b8b8a1ab4ceeef8d981c8956a681565b611c1c82826128d3565b611c4181600160008581526020019081526020016000206126bf90919063ffffffff16565b505050565b6000600360008473ffffffffffffffffffffffffffffffffffffffff1673ffffffffffffffffffffffffffffffffffffffff16815260200190815260200160002060008373ffffffffffffffffffffffffffffffffffffffff1673ffffffffffffffffffffffffffffffffffffffff16815260200190815260200160002060009054906101000a900460ff16905092915050565b60008073ffffffffffffffffffffffffffffffffffffffff16600660019054906101000a900473ffffffffffffffffffffffffffffffffffffffff1673ffffffffffffffffffffffffffffffffffffffff161415611d6d576040517f08c379a0000000000000000000000000000000000000000000000000000000008152600401611d6490614dff565b60405180910390fd5b611d798686600061087b565b611db8576040517f08c379a0000000000000000000000000000000000000000000000000000000008152600401611daf90614cff565b60405180910390fd5b604051602001611dc790614a45565b60405160208183030381529060405280519060200120600960008881526020019081526020016000206000878152602001908152602001600020600201604051602001611e149190614a2e565b6040516020818303038152906040528051906020012014611e6a576040517f08c379a0000000000000000000000000000000000000000000000000000000008152600401611e6190614e1f565b60405180910390fd5b600660019054906101000a900473ffffffffffffffffffffffffffffffffffffffff1673ffffffffffffffffffffffffffffffffffffffff16639fe8660f87878787876040518663ffffffff1660e01b8152600401611ecd959493929190614fd7565b602060405180830381600087803b158015611ee757600080fd5b505af1158015611efb573d6000803e3d6000fd5b505050506040513d601f19601f82011682018060405250810190611f1f9190613f34565b905095945050505050565b600063f23a6e6160e01b905095945050505050565b611f476122f4565b73ffffffffffffffffffffffffffffffffffffffff168573ffffffffffffffffffffffffffffffffffffffff161480611f8d5750611f8c85611f876122f4565b611c46565b5b611fcc576040517f08c379a0000000000000000000000000000000000000000000000000000000008152600401611fc390614d1f565b60405180910390fd5b611fd985858585856128fc565b5050505050565b600660019054906101000a900473ffffffffffffffffffffffffffffffffffffffff1673ffffffffffffffffffffffffffffffffffffffff163373ffffffffffffffffffffffffffffffffffffffff1614612070576040517f08c379a000000000000000000000000000000000000000000000000000000000815260040161206790614d5f565b60405180910390fd5b81600a6000868152602001908152602001600020600085815260200190815260200160002060006101000a81548173ffffffffffffffffffffffffffffffffffffffff021916908373ffffffffffffffffffffffffffffffffffffffff1602179055508173ffffffffffffffffffffffffffffffffffffffff16847f408b354a5a743483dc98fde82fba59cd10f8174901861cf5dabe1d2850ac374b858460405161211c929190614f3e565b60405180910390a350505050565b61213e6000801b6121396122f4565b611501565b61217d576040517f08c379a000000000000000000000000000000000000000000000000000000000815260040161217490614dbf565b60405180910390fd5b80600660016101000a81548173ffffffffffffffffffffffffffffffffffffffff021916908373ffffffffffffffffffffffffffffffffffffffff16021790555050565b6121cb8282612b81565b5050565b60006121f7836000018373ffffffffffffffffffffffffffffffffffffffff1660001b612c61565b905092915050565b60007f4e2312e0000000000000000000000000000000000000000000000000000000007bffffffffffffffffffffffffffffffffffffffffffffffffffffffff1916827bffffffffffffffffffffffffffffffffffffffffffffffffffffffff19161480612272575061227182612cd1565b5b9050919050565b8360096000858152602001908152602001600020600084815260200190815260200160002060000160006101000a81548173ffffffffffffffffffffffffffffffffffffffff021916908373ffffffffffffffffffffffffffffffffffffffff1602179055506122ed8585856001856128fc565b5050505050565b600033905090565b8151835114612340576040517f08c379a000000000000000000000000000000000000000000000000000000000815260040161233790614e7f565b60405180910390fd5b600073ffffffffffffffffffffffffffffffffffffffff168473ffffffffffffffffffffffffffffffffffffffff1614156123b0576040517f08c379a00000000000000000000000000000000000000000000000000000000081526004016123a790614d7f565b60405180910390fd5b60006123ba6122f4565b90506123ca818787878787612ce3565b60005b845181101561257e5760008582815181106123eb576123ea615590565b5b60200260200101519050600085838151811061240a57612409615590565b5b6020026020010151905060006002600084815260200190815260200160002060008b73ffffffffffffffffffffffffffffffffffffffff1673ffffffffffffffffffffffffffffffffffffffff168152602001908152602001600020549050818110156124ac576040517f08c379a00000000000000000000000000000000000000000000000000000000081526004016124a390614ddf565b60405180910390fd5b8181036002600085815260200190815260200160002060008c73ffffffffffffffffffffffffffffffffffffffff1673ffffffffffffffffffffffffffffffffffffffff16815260200190815260200160002081905550816002600085815260200190815260200160002060008b73ffffffffffffffffffffffffffffffffffffffff1673ffffffffffffffffffffffffffffffffffffffff1681526020019081526020016000206000828254612563919061520c565b925050819055505050508061257790615490565b90506123cd565b508473ffffffffffffffffffffffffffffffffffffffff168673ffffffffffffffffffffffffffffffffffffffff168273ffffffffffffffffffffffffffffffffffffffff167f4a39dc06d4c0dbc64b70af90fd698a233a518aa5d07e595d983b8c0526c8f7fb87876040516125f5929190614bb5565b60405180910390a461260b818787878787612ceb565b505050505050565b61261c82610a87565b61262d816126286122f4565b612ed2565b6126378383612b81565b505050565b6126446122f4565b73ffffffffffffffffffffffffffffffffffffffff168173ffffffffffffffffffffffffffffffffffffffff16146126b1576040517f08c379a00000000000000000000000000000000000000000000000000000000081526004016126a890614ebf565b60405180910390fd5b6126bb8282612f6f565b5050565b60006126e7836000018373ffffffffffffffffffffffffffffffffffffffff1660001b613050565b905092915050565b6000600660009054906101000a900460ff1660ff1682109050919050565b600073ffffffffffffffffffffffffffffffffffffffff168473ffffffffffffffffffffffffffffffffffffffff16141561277d576040517f08c379a000000000000000000000000000000000000000000000000000000000815260040161277490614e9f565b60405180910390fd5b60006127876122f4565b90506127a88160008761279988613164565b6127a288613164565b87612ce3565b826002600086815260200190815260200160002060008773ffffffffffffffffffffffffffffffffffffffff1673ffffffffffffffffffffffffffffffffffffffff1681526020019081526020016000206000828254612808919061520c565b925050819055508473ffffffffffffffffffffffffffffffffffffffff16600073ffffffffffffffffffffffffffffffffffffffff168273ffffffffffffffffffffffffffffffffffffffff167fc3d58168c5ae7397731d063d5bbf3d657854427343f4c083240f7aacaa2d0f628787604051612886929190614fae565b60405180910390a461289d816000878787876131de565b5050505050565b60006128b383600001836133c5565b60001c905092915050565b60006128cc826000016133f0565b9050919050565b6128dc82610a87565b6128ed816128e86122f4565b612ed2565b6128f78383612f6f565b505050565b600073ffffffffffffffffffffffffffffffffffffffff168473ffffffffffffffffffffffffffffffffffffffff16141561296c576040517f08c379a000000000000000000000000000000000000000000000000000000000815260040161296390614d7f565b60405180910390fd5b60006129766122f4565b905061299681878761298788613164565b61299088613164565b87612ce3565b60006002600086815260200190815260200160002060008873ffffffffffffffffffffffffffffffffffffffff1673ffffffffffffffffffffffffffffffffffffffff16815260200190815260200160002054905083811015612a2e576040517f08c379a0000000000000000000000000000000000000000000000000000000008152600401612a2590614ddf565b60405180910390fd5b8381036002600087815260200190815260200160002060008973ffffffffffffffffffffffffffffffffffffffff1673ffffffffffffffffffffffffffffffffffffffff16815260200190815260200160002081905550836002600087815260200190815260200160002060008873ffffffffffffffffffffffffffffffffffffffff1673ffffffffffffffffffffffffffffffffffffffff1681526020019081526020016000206000828254612ae5919061520c565b925050819055508573ffffffffffffffffffffffffffffffffffffffff168773ffffffffffffffffffffffffffffffffffffffff168373ffffffffffffffffffffffffffffffffffffffff167fc3d58168c5ae7397731d063d5bbf3d657854427343f4c083240f7aacaa2d0f628888604051612b62929190614fae565b60405180910390a4612b788288888888886131de565b50505050505050565b612b8b8282611501565b612c5d57600160008084815260200190815260200160002060000160008373ffffffffffffffffffffffffffffffffffffffff1673ffffffffffffffffffffffffffffffffffffffff16815260200190815260200160002060006101000a81548160ff021916908315150217905550612c026122f4565b73ffffffffffffffffffffffffffffffffffffffff168173ffffffffffffffffffffffffffffffffffffffff16837f2f8788117e7eff1d82e926ec794901d17c78024a50270940304540a733656f0d60405160405180910390a45b5050565b6000612c6d8383613401565b612cc6578260000182908060018154018082558091505060019003906000526020600020016000909190919091505582600001805490508360010160008481526020019081526020016000208190555060019050612ccb565b600090505b92915050565b6000612cdc82613424565b9050919050565b505050505050565b612d0a8473ffffffffffffffffffffffffffffffffffffffff16613506565b15612eca578373ffffffffffffffffffffffffffffffffffffffff1663bc197c8187878686866040518663ffffffff1660e01b8152600401612d50959493929190614aaf565b602060405180830381600087803b158015612d6a57600080fd5b505af1925050508015612d9b57506040513d601f19601f82011682018060405250810190612d98919061400e565b60015b612e4157612da76155ee565b806308c379a01415612e045750612dbc615c5b565b80612dc75750612e06565b806040517f08c379a0000000000000000000000000000000000000000000000000000000008152600401612dfb9190614c3d565b60405180910390fd5b505b6040517f08c379a0000000000000000000000000000000000000000000000000000000008152600401612e3890614c5f565b60405180910390fd5b63bc197c8160e01b7bffffffffffffffffffffffffffffffffffffffffffffffffffffffff1916817bffffffffffffffffffffffffffffffffffffffffffffffffffffffff191614612ec8576040517f08c379a0000000000000000000000000000000000000000000000000000000008152600401612ebf90614cbf565b60405180910390fd5b505b505050505050565b612edc8282611501565b612f6b57612f018173ffffffffffffffffffffffffffffffffffffffff166014613519565b612f0f8360001c6020613519565b604051602001612f20929190614a5a565b6040516020818303038152906040526040517f08c379a0000000000000000000000000000000000000000000000000000000008152600401612f629190614c3d565b60405180910390fd5b5050565b612f798282611501565b1561304c57600080600084815260200190815260200160002060000160008373ffffffffffffffffffffffffffffffffffffffff1673ffffffffffffffffffffffffffffffffffffffff16815260200190815260200160002060006101000a81548160ff021916908315150217905550612ff16122f4565b73ffffffffffffffffffffffffffffffffffffffff168173ffffffffffffffffffffffffffffffffffffffff16837ff6391f5c32d9c69d2a47ea670b442974b53935d1edc7fd64eb21e047a839171b60405160405180910390a45b5050565b6000808360010160008481526020019081526020016000205490506000811461315857600060018261308291906152bc565b905060006001866000018054905061309a91906152bc565b90508181146131095760008660000182815481106130bb576130ba615590565b5b90600052602060002001549050808760000184815481106130df576130de615590565b5b90600052602060002001819055508387600101600083815260200190815260200160002081905550505b8560000180548061311d5761311c615561565b5b60019003818190600052602060002001600090559055856001016000868152602001908152602001600020600090556001935050505061315e565b60009150505b92915050565b60606000600167ffffffffffffffff811115613183576131826155bf565b5b6040519080825280602002602001820160405280156131b15781602001602082028036833780820191505090505b50905082816000815181106131c9576131c8615590565b5b60200260200101818152505080915050919050565b6131fd8473ffffffffffffffffffffffffffffffffffffffff16613506565b156133bd578373ffffffffffffffffffffffffffffffffffffffff1663f23a6e6187878686866040518663ffffffff1660e01b8152600401613243959493929190614b17565b602060405180830381600087803b15801561325d57600080fd5b505af192505050801561328e57506040513d601f19601f8201168201806040525081019061328b919061400e565b60015b6133345761329a6155ee565b806308c379a014156132f757506132af615c5b565b806132ba57506132f9565b806040517f08c379a00000000000000000000000000000000000000000000000000000000081526004016132ee9190614c3d565b60405180910390fd5b505b6040517f08c379a000000000000000000000000000000000000000000000000000000000815260040161332b90614c5f565b60405180910390fd5b63f23a6e6160e01b7bffffffffffffffffffffffffffffffffffffffffffffffffffffffff1916817bffffffffffffffffffffffffffffffffffffffffffffffffffffffff1916146133bb576040517f08c379a00000000000000000000000000000000000000000000000000000000081526004016133b290614cbf565b60405180910390fd5b505b505050505050565b60008260000182815481106133dd576133dc615590565b5b9060005260206000200154905092915050565b600081600001805490509050919050565b600080836001016000848152602001908152602001600020541415905092915050565b60007fd9b67a26000000000000000000000000000000000000000000000000000000007bffffffffffffffffffffffffffffffffffffffffffffffffffffffff1916827bffffffffffffffffffffffffffffffffffffffffffffffffffffffff191614806134ef57507f0e89341c000000000000000000000000000000000000000000000000000000007bffffffffffffffffffffffffffffffffffffffffffffffffffffffff1916827bffffffffffffffffffffffffffffffffffffffffffffffffffffffff1916145b806134ff57506134fe82613755565b5b9050919050565b600080823b905060008111915050919050565b60606000600283600261352c9190615262565b613536919061520c565b67ffffffffffffffff81111561354f5761354e6155bf565b5b6040519080825280601f01601f1916602001820160405280156135815781602001600182028036833780820191505090505b5090507f3000000000000000000000000000000000000000000000000000000000000000816000815181106135b9576135b8615590565b5b60200101907effffffffffffffffffffffffffffffffffffffffffffffffffffffffffffff1916908160001a9053507f78000000000000000000000000000000000000000000000000000000000000008160018151811061361d5761361c615590565b5b60200101907effffffffffffffffffffffffffffffffffffffffffffffffffffffffffffff1916908160001a9053506000600184600261365d9190615262565b613667919061520c565b90505b6001811115613707577f3031323334353637383961626364656600000000000000000000000000000000600f8616601081106136a9576136a8615590565b5b1a60f81b8282815181106136c0576136bf615590565b5b60200101907effffffffffffffffffffffffffffffffffffffffffffffffffffffffffffff1916908160001a905350600485901c94508061370090615403565b905061366a565b506000841461374b576040517f08c379a000000000000000000000000000000000000000000000000000000000815260040161374290614c9f565b60405180910390fd5b8091505092915050565b60007f5a05180f000000000000000000000000000000000000000000000000000000007bffffffffffffffffffffffffffffffffffffffffffffffffffffffff1916827bffffffffffffffffffffffffffffffffffffffffffffffffffffffff191614806137c857506137c7826137cf565b5b9050919050565b60007f7965db0b000000000000000000000000000000000000000000000000000000007bffffffffffffffffffffffffffffffffffffffffffffffffffffffff1916827bffffffffffffffffffffffffffffffffffffffffffffffffffffffff19161480613842575061384182613849565b5b9050919050565b60007f01ffc9a7000000000000000000000000000000000000000000000000000000007bffffffffffffffffffffffffffffffffffffffffffffffffffffffff1916827bffffffffffffffffffffffffffffffffffffffffffffffffffffffff1916149050919050565b8280546138bf9061542d565b90600052602060002090601f0160209004810192826138e15760008555613928565b82601f106138fa57805160ff1916838001178555613928565b82800160010185558215613928579182015b8281111561392757825182559160200191906001019061390c565b5b509050613935919061398a565b5090565b604051806040016040528060608152602001606081525090565b6040518060600160405280600073ffffffffffffffffffffffffffffffffffffffff16815260200160608152602001606081525090565b5b808211156139a357600081600090555060010161398b565b5090565b60006139ba6139b5846150a8565b615083565b905080838252602082019050828560208602820111156139dd576139dc61561a565b5b60005b85811015613a0d57816139f38882613ac9565b8452602084019350602083019250506001810190506139e0565b5050509392505050565b6000613a2a613a25846150d4565b615083565b90508083825260208201905082856020860282011115613a4d57613a4c61561a565b5b60005b85811015613a7d5781613a638882613c27565b845260208401935060208301925050600181019050613a50565b5050509392505050565b6000613a9a613a9584615100565b615083565b905082815260208101848484011115613ab657613ab561561f565b5b613ac18482856153c1565b509392505050565b600081359050613ad881615cf1565b92915050565b600082601f830112613af357613af2615615565b5b8135613b038482602086016139a7565b91505092915050565b600082601f830112613b2157613b20615615565b5b8135613b31848260208601613a17565b91505092915050565b600081359050613b4981615d08565b92915050565b600081359050613b5e81615d1f565b92915050565b600081519050613b7381615d1f565b92915050565b600081359050613b8881615d36565b92915050565b600081519050613b9d81615d36565b92915050565b600082601f830112613bb857613bb7615615565b5b8135613bc8848260208601613a87565b91505092915050565b60008083601f840112613be757613be6615615565b5b8235905067ffffffffffffffff811115613c0457613c03615610565b5b602083019150836001820283011115613c2057613c1f61561a565b5b9250929050565b600081359050613c3681615d4d565b92915050565b600060208284031215613c5257613c51615629565b5b6000613c6084828501613ac9565b91505092915050565b60008060408385031215613c8057613c7f615629565b5b6000613c8e85828601613ac9565b9250506020613c9f85828601613ac9565b9150509250929050565b600080600080600060a08688031215613cc557613cc4615629565b5b6000613cd388828901613ac9565b9550506020613ce488828901613ac9565b945050604086013567ffffffffffffffff811115613d0557613d04615624565b5b613d1188828901613b0c565b935050606086013567ffffffffffffffff811115613d3257613d31615624565b5b613d3e88828901613b0c565b925050608086013567ffffffffffffffff811115613d5f57613d5e615624565b5b613d6b88828901613ba3565b9150509295509295909350565b600080600080600060a08688031215613d9457613d93615629565b5b6000613da288828901613ac9565b9550506020613db388828901613ac9565b9450506040613dc488828901613c27565b9350506060613dd588828901613c27565b925050608086013567ffffffffffffffff811115613df657613df5615624565b5b613e0288828901613ba3565b9150509295509295909350565b60008060408385031215613e2657613e25615629565b5b6000613e3485828601613ac9565b9250506020613e4585828601613b3a565b9150509250929050565b60008060408385031215613e6657613e65615629565b5b6000613e7485828601613ac9565b9250506020613e8585828601613c27565b9150509250929050565b60008060408385031215613ea657613ea5615629565b5b600083013567ffffffffffffffff811115613ec457613ec3615624565b5b613ed085828601613ade565b925050602083013567ffffffffffffffff811115613ef157613ef0615624565b5b613efd85828601613b0c565b9150509250929050565b600060208284031215613f1d57613f1c615629565b5b6000613f2b84828501613b4f565b91505092915050565b600060208284031215613f4a57613f49615629565b5b6000613f5884828501613b64565b91505092915050565b60008060408385031215613f7857613f77615629565b5b6000613f8685828601613b4f565b9250506020613f9785828601613ac9565b9150509250929050565b60008060408385031215613fb857613fb7615629565b5b6000613fc685828601613b4f565b9250506020613fd785828601613c27565b9150509250929050565b600060208284031215613ff757613ff6615629565b5b600061400584828501613b79565b91505092915050565b60006020828403121561402457614023615629565b5b600061403284828501613b8e565b91505092915050565b60008060008060006060868803121561405757614056615629565b5b600086013567ffffffffffffffff81111561407557614074615624565b5b61408188828901613bd1565b9550955050602086013567ffffffffffffffff8111156140a4576140a3615624565b5b6140b088828901613bd1565b9350935050604086013567ffffffffffffffff8111156140d3576140d2615624565b5b6140df88828901613ba3565b9150509295509295909350565b60006020828403121561410257614101615629565b5b600061411084828501613c27565b91505092915050565b6000806000806060858703121561413357614132615629565b5b600061414187828801613c27565b945050602085013567ffffffffffffffff81111561416257614161615624565b5b61416e87828801613bd1565b9350935050604085013567ffffffffffffffff81111561419157614190615624565b5b61419d87828801613ba3565b91505092959194509250565b600080604083850312156141c0576141bf615629565b5b60006141ce85828601613c27565b92505060206141df85828601613c27565b9150509250929050565b60008060006060848603121561420257614201615629565b5b600061421086828701613c27565b935050602061422186828701613c27565b925050604061423286828701613ac9565b9150509250925092565b6000806000806080858703121561425657614255615629565b5b600061426487828801613c27565b945050602061427587828801613c27565b935050604061428687828801613ac9565b925050606061429787828801613b3a565b91505092959194509250565b6000806000806000608086880312156142bf576142be615629565b5b60006142cd88828901613c27565b95505060206142de88828901613c27565b94505060406142ef88828901613ac9565b935050606086013567ffffffffffffffff8111156143105761430f615624565b5b61431c88828901613bd1565b92509250509295509295909350565b60006143378383614922565b905092915050565b600061434b8383614a01565b60208301905092915050565b61436081615324565b82525050565b61436f81615324565b82525050565b600061438082615166565b61438a81856151ac565b93508360208202850161439c85615131565b8060005b858110156143d857848403895281516143b9858261432b565b94506143c483615192565b925060208a019950506001810190506143a0565b50829750879550505050505092915050565b60006143f582615171565b6143ff81856151bd565b935061440a83615141565b8060005b8381101561443b578151614422888261433f565b975061442d8361519f565b92505060018101905061440e565b5085935050505092915050565b61445181615336565b82525050565b61446081615342565b82525050565b61446f8161534c565b82525050565b60006144808261517c565b61448a81856151ce565b935061449a8185602086016153d0565b6144a38161562e565b840191505092915050565b60006144ba83856151f0565b93506144c78385846153c1565b6144d08361562e565b840190509392505050565b60006144e682615187565b6144f081856151df565b93506145008185602086016153d0565b6145098161562e565b840191505092915050565b600061451f82615187565b61452981856151f0565b93506145398185602086016153d0565b6145428161562e565b840191505092915050565b600061455882615187565b6145628185615201565b93506145728185602086016153d0565b80840191505092915050565b6000815461458b8161542d565b6145958186615201565b945060018216600081146145b057600181146145c1576145f4565b60ff198316865281860193506145f4565b6145ca85615151565b60005b838110156145ec578154818901526001820191506020810190506145cd565b838801955050505b50505092915050565b600061460a6034836151f0565b91506146158261564c565b604082019050919050565b600061462d6025836151f0565b91506146388261569b565b604082019050919050565b60006146506020836151f0565b915061465b826156ea565b602082019050919050565b60006146736028836151f0565b915061467e82615713565b604082019050919050565b6000614696602b836151f0565b91506146a182615762565b604082019050919050565b60006146b9601e836151f0565b91506146c4826157b1565b602082019050919050565b60006146dc6029836151f0565b91506146e7826157da565b604082019050919050565b60006146ff6017836151f0565b915061470a82615829565b602082019050919050565b6000614722602f836151f0565b915061472d82615852565b604082019050919050565b60006147456025836151f0565b9150614750826158a1565b604082019050919050565b60006147686032836151f0565b9150614773826158f0565b604082019050919050565b600061478b6038836151f0565b91506147968261593f565b604082019050919050565b60006147ae602a836151f0565b91506147b98261598e565b604082019050919050565b60006147d1600483615201565b91506147dc826159dd565b600482019050919050565b60006147f46039836151f0565b91506147ff82615a06565b604082019050919050565b6000614817601b836151f0565b915061482282615a55565b602082019050919050565b600061483a601783615201565b915061484582615a7e565b601782019050919050565b600061485d6029836151f0565b915061486882615aa7565b604082019050919050565b60006148806029836151f0565b915061488b82615af6565b604082019050919050565b60006148a36028836151f0565b91506148ae82615b45565b604082019050919050565b60006148c66021836151f0565b91506148d182615b94565b604082019050919050565b60006148e9601183615201565b91506148f482615be3565b601182019050919050565b600061490c602f836151f0565b915061491782615c0c565b604082019050919050565b6000604083016000830151848203600086015261493f82826144db565b9150506020830151848203602086015261495982826144db565b9150508091505092915050565b6000604083016000830151848203600086015261498382826144db565b9150506020830151848203602086015261499d82826144db565b9150508091505092915050565b60006060830160008301516149c26000860182614357565b50602083015184820360208601526149da82826144db565b915050604083015184820360408601526149f482826144db565b9150508091505092915050565b614a0a81615398565b82525050565b614a1981615398565b82525050565b614a28816153af565b82525050565b6000614a3a828461457e565b915081905092915050565b6000614a50826147c4565b9150819050919050565b6000614a658261482d565b9150614a71828561454d565b9150614a7c826148dc565b9150614a88828461454d565b91508190509392505050565b6000602082019050614aa96000830184614366565b92915050565b600060a082019050614ac46000830188614366565b614ad16020830187614366565b8181036040830152614ae381866143ea565b90508181036060830152614af781856143ea565b90508181036080830152614b0b8184614475565b90509695505050505050565b600060a082019050614b2c6000830188614366565b614b396020830187614366565b614b466040830186614a10565b614b536060830185614a10565b8181036080830152614b658184614475565b90509695505050505050565b60006020820190508181036000830152614b8b8184614375565b905092915050565b60006020820190508181036000830152614bad81846143ea565b905092915050565b60006040820190508181036000830152614bcf81856143ea565b90508181036020830152614be381846143ea565b90509392505050565b6000602082019050614c016000830184614448565b92915050565b6000602082019050614c1c6000830184614457565b92915050565b6000602082019050614c376000830184614466565b92915050565b60006020820190508181036000830152614c578184614514565b905092915050565b60006020820190508181036000830152614c78816145fd565b9050919050565b60006020820190508181036000830152614c9881614620565b9050919050565b60006020820190508181036000830152614cb881614643565b9050919050565b60006020820190508181036000830152614cd881614666565b9050919050565b60006020820190508181036000830152614cf881614689565b9050919050565b60006020820190508181036000830152614d18816146ac565b9050919050565b60006020820190508181036000830152614d38816146cf565b9050919050565b60006020820190508181036000830152614d58816146f2565b9050919050565b60006020820190508181036000830152614d7881614715565b9050919050565b60006020820190508181036000830152614d9881614738565b9050919050565b60006020820190508181036000830152614db88161475b565b9050919050565b60006020820190508181036000830152614dd88161477e565b9050919050565b60006020820190508181036000830152614df8816147a1565b9050919050565b60006020820190508181036000830152614e18816147e7565b9050919050565b60006020820190508181036000830152614e388161480a565b9050919050565b60006020820190508181036000830152614e5881614850565b9050919050565b60006020820190508181036000830152614e7881614873565b9050919050565b60006020820190508181036000830152614e9881614896565b9050919050565b60006020820190508181036000830152614eb8816148b9565b9050919050565b60006020820190508181036000830152614ed8816148ff565b9050919050565b60006020820190508181036000830152614ef98184614966565b905092915050565b60006020820190508181036000830152614f1b81846149aa565b905092915050565b6000602082019050614f386000830184614a10565b92915050565b6000604082019050614f536000830185614a10565b614f606020830184614448565b9392505050565b6000606082019050614f7c6000830187614a10565b8181036020830152614f8f8185876144ae565b90508181036040830152614fa38184614475565b905095945050505050565b6000604082019050614fc36000830185614a10565b614fd06020830184614a10565b9392505050565b6000608082019050614fec6000830188614a10565b614ff96020830187614a10565b6150066040830186614366565b81810360608301526150198184866144ae565b90509695505050505050565b600060808201905061503a6000830189614a1f565b818103602083015261504d8187896144ae565b905081810360408301526150628185876144ae565b905081810360608301526150768184614475565b9050979650505050505050565b600061508d61509e565b9050615099828261545f565b919050565b6000604051905090565b600067ffffffffffffffff8211156150c3576150c26155bf565b5b602082029050602081019050919050565b600067ffffffffffffffff8211156150ef576150ee6155bf565b5b602082029050602081019050919050565b600067ffffffffffffffff82111561511b5761511a6155bf565b5b6151248261562e565b9050602081019050919050565b6000819050602082019050919050565b6000819050602082019050919050565b60008190508160005260206000209050919050565b600081519050919050565b600081519050919050565b600081519050919050565b600081519050919050565b6000602082019050919050565b6000602082019050919050565b600082825260208201905092915050565b600082825260208201905092915050565b600082825260208201905092915050565b600082825260208201905092915050565b600082825260208201905092915050565b600081905092915050565b600061521782615398565b915061522283615398565b9250827fffffffffffffffffffffffffffffffffffffffffffffffffffffffffffffffff0382111561525757615256615503565b5b828201905092915050565b600061526d82615398565b915061527883615398565b9250817fffffffffffffffffffffffffffffffffffffffffffffffffffffffffffffffff04831182151516156152b1576152b0615503565b5b828202905092915050565b60006152c782615398565b91506152d283615398565b9250828210156152e5576152e4615503565b5b828203905092915050565b60006152fb826153a2565b9150615306836153a2565b92508282101561531957615318615503565b5b828203905092915050565b600061532f82615378565b9050919050565b60008115159050919050565b6000819050919050565b60007fffffffff0000000000000000000000000000000000000000000000000000000082169050919050565b600073ffffffffffffffffffffffffffffffffffffffff82169050919050565b6000819050919050565b600060ff82169050919050565b60006153ba826153a2565b9050919050565b82818337600083830152505050565b60005b838110156153ee5780820151818401526020810190506153d3565b838111156153fd576000848401525b50505050565b600061540e82615398565b9150600082141561542257615421615503565b5b600182039050919050565b6000600282049050600182168061544557607f821691505b6020821081141561545957615458615532565b5b50919050565b6154688261562e565b810181811067ffffffffffffffff82111715615487576154866155bf565b5b80604052505050565b600061549b82615398565b91507fffffffffffffffffffffffffffffffffffffffffffffffffffffffffffffffff8214156154ce576154cd615503565b5b600182019050919050565b60006154e4826153a2565b915060ff8214156154f8576154f7615503565b5b600182019050919050565b7f4e487b7100000000000000000000000000000000000000000000000000000000600052601160045260246000fd5b7f4e487b7100000000000000000000000000000000000000000000000000000000600052602260045260246000fd5b7f4e487b7100000000000000000000000000000000000000000000000000000000600052603160045260246000fd5b7f4e487b7100000000000000000000000000000000000000000000000000000000600052603260045260246000fd5b7f4e487b7100000000000000000000000000000000000000000000000000000000600052604160045260246000fd5b600060033d111561560d5760046000803e61560a60005161563f565b90505b90565b600080fd5b600080fd5b600080fd5b600080fd5b600080fd5b600080fd5b6000601f19601f8301169050919050565b60008160e01c9050919050565b7f455243313135353a207472616e7366657220746f206e6f6e204552433131353560008201527f526563656976657220696d706c656d656e746572000000000000000000000000602082015250565b7f546865206164647265737320646f6e2774206861766520746865207065726d6960008201527f7373696f6e000000000000000000000000000000000000000000000000000000602082015250565b7f537472696e67733a20686578206c656e67746820696e73756666696369656e74600082015250565b7f455243313135353a204552433131353552656365697665722072656a6563746560008201527f6420746f6b656e73000000000000000000000000000000000000000000000000602082015250565b7f455243313135353a2062616c616e636520717565727920666f7220746865207a60008201527f65726f2061646472657373000000000000000000000000000000000000000000602082015250565b7f546865207065726d697373696f6e20697320616c726561647920676176650000600082015250565b7f455243313135353a2063616c6c6572206973206e6f74206f776e6572206e6f7260008201527f20617070726f7665640000000000000000000000000000000000000000000000602082015250565b7f54686520746f6b656e20646f206e6f7420657869737473000000000000000000600082015250565b7f596f7520646f6e2774206861766520746865207065726d697373696f6e20746f60008201527f2067697665206f776e6572736869700000000000000000000000000000000000602082015250565b7f455243313135353a207472616e7366657220746f20746865207a65726f20616460008201527f6472657373000000000000000000000000000000000000000000000000000000602082015250565b7f455243313135353a207472616e736665722063616c6c6572206973206e6f742060008201527f6f776e6572206e6f7220617070726f7665640000000000000000000000000000602082015250565b7f455243313135355072657365744d696e7465725061757365723a206d7573742060008201527f68617665206d696e74657220726f6c6520746f206d696e740000000000000000602082015250565b7f455243313135353a20696e73756666696369656e742062616c616e636520666f60008201527f72207472616e7366657200000000000000000000000000000000000000000000602082015250565b7f736f6c6400000000000000000000000000000000000000000000000000000000600082015250565b7f596f75206e65656420746f20736574757020746865207665726966696361746960008201527f6f6e20636f6e7472616374206164647265737320666972737400000000000000602082015250565b7f5468697320746f6b656e2063616e277420626520636c61696d65640000000000600082015250565b7f416363657373436f6e74726f6c3a206163636f756e7420000000000000000000600082015250565b7f455243313135353a2073657474696e6720617070726f76616c2073746174757360008201527f20666f722073656c660000000000000000000000000000000000000000000000602082015250565b7f455243313135353a206163636f756e747320616e6420696473206c656e67746860008201527f206d69736d617463680000000000000000000000000000000000000000000000602082015250565b7f455243313135353a2069647320616e6420616d6f756e7473206c656e6774682060008201527f6d69736d61746368000000000000000000000000000000000000000000000000602082015250565b7f455243313135353a206d696e7420746f20746865207a65726f2061646472657360008201527f7300000000000000000000000000000000000000000000000000000000000000602082015250565b7f206973206d697373696e6720726f6c6520000000000000000000000000000000600082015250565b7f416363657373436f6e74726f6c3a2063616e206f6e6c792072656e6f756e636560008201527f20726f6c657320666f722073656c660000000000000000000000000000000000602082015250565b600060443d1015615c6b57615cee565b615c7361509e565b60043d036004823e80513d602482011167ffffffffffffffff82111715615c9b575050615cee565b808201805167ffffffffffffffff811115615cb95750505050615cee565b80602083010160043d038501811115615cd6575050505050615cee565b615ce58260200185018661545f565b82955050505050505b90565b615cfa81615324565b8114615d0557600080fd5b50565b615d1181615336565b8114615d1c57600080fd5b50565b615d2881615342565b8114615d3357600080fd5b50565b615d3f8161534c565b8114615d4a57600080fd5b50565b615d5681615398565b8114615d6157600080fd5b5056fea2646970667358221220f2720875e65b05d16bd7e27f7d8e719a0e596178ac6f017a571e770f4b9cf4d964736f6c63430008070033",
  "immutableReferences": {},
  "source": "pragma solidity ^0.8.7;\r\n\r\nimport \"./interfaces/INFCool.sol\";\r\nimport \"./interfaces/IPhoneVerification.sol\";\r\nimport \"./ERC1155Access.sol\";\r\nimport \"@openzeppelin/contracts/token/ERC1155/utils/ERC1155Holder.sol\";\r\n\r\ncontract NFCool is INFCool, ERC1155Access, ERC1155Holder {\r\n    string brandName;\r\n    uint8 tokensCount;\r\n\r\n    address private _verificationContract;\r\n\r\n    mapping (uint256 => uint256) private _tokenUnitsCount;\r\n    mapping(uint256 => TokenData) private _tokenData;\r\n    mapping(uint256 => mapping(uint256 => TokenUnitData)) private _tokenUnitData;\r\n    mapping(uint256 => mapping(uint256 => address)) private _claimPermissions;\r\n\r\n    constructor(string memory _brandName) ERC1155Access(\"\") {\r\n        brandName = _brandName;\r\n    }\r\n\r\n    function haveClaimPermission(uint256 tokenId, uint256 unitId, address account) public view returns (bool) {\r\n        return account == _claimPermissions[tokenId][unitId];\r\n    }\r\n\r\n    function getAllTokens() public view virtual override returns (TokenData[] memory) {\r\n        TokenData[] memory tokens = new TokenData[](tokensCount);\r\n\r\n        for (uint256 i = 0 ; i < tokensCount ; i++) {\r\n            tokens[i] = _tokenData[i];\r\n        }\r\n\r\n        return tokens;\r\n    }\r\n\r\n    function allBalancesOf(address account) public view returns (uint256[] memory){\r\n        uint[] memory amounts = new uint[](tokensCount);\r\n\r\n        for (uint i = 0 ; i < tokensCount ; i++) {\r\n            amounts[i] = balanceOf(account, i);\r\n        }\r\n        return amounts;\r\n    }\r\n\r\n    function getTokensCount() public view virtual override returns (uint256) {\r\n        return tokensCount;\r\n    }\r\n\r\n    function tokenData(uint256 tokenId) public view virtual override returns (TokenData memory) {\r\n        return _tokenData[tokenId];\r\n    }\r\n\r\n    function tokenUnitData(uint256 tokenId, uint256 tokenUnitId) public view virtual override returns (TokenUnitData memory) {\r\n        return _tokenUnitData[tokenId][tokenUnitId];\r\n    }\r\n\r\n    function mintToken(string calldata tokenUri, string calldata tokenName, bytes memory data) external virtual override returns (uint256) {\r\n        require(hasRole(MINTER_ROLE, _msgSender()), \"ERC1155PresetMinterPauser: must have minter role to mint\");\r\n\r\n        _mint(address(this), tokensCount, 0, data);\r\n        _tokenData[tokensCount] = TokenData(tokenUri, tokenName);\r\n\r\n        emit TokenMinted(tokensCount, tokenUri, tokenName, data);\r\n\r\n        tokensCount++;\r\n        return tokensCount - 1;\r\n    }\r\n\r\n    function mintTokenUnit(uint256 tokenId, string calldata nfcId, bytes memory data) external virtual override returns (uint256) {\r\n        require(hasRole(MINTER_ROLE, _msgSender()), \"ERC1155PresetMinterPauser: must have minter role to mint\");\r\n        require(_exists(tokenId), \"The token do not exists\");\r\n\r\n        _mint(address(this), tokenId, 1, data);\r\n        _tokenUnitData[tokenId][_tokenUnitsCount[tokenId]] = TokenUnitData(address(this), nfcId, \"minted\");\r\n\r\n        emit TokenUnitMinted(tokenId, _tokenUnitsCount[tokenId], nfcId, data);\r\n\r\n        _tokenUnitsCount[tokenId]++;\r\n\r\n        return _tokenUnitsCount[tokenId] - 1;\r\n    }\r\n\r\n    function requestPhoneVerification(uint256 tokenId, uint256 unitId, address to, string calldata pin) external virtual override returns (bytes32 requestId) {\r\n        require(_verificationContract != address(0), \"You need to setup the verification contract address first\");\r\n        require(haveClaimPermission(tokenId, unitId, address(0)), \"The permission is already gave\");\r\n        require(keccak256(abi.encodePacked(_tokenUnitData[tokenId][unitId].status)) == keccak256(abi.encodePacked(\"sold\")), \"This token can't be claimed\");\r\n\r\n        return IPhoneVerification(_verificationContract).requestOwnership(tokenId, unitId, to, pin);\r\n    }\r\n\r\n    function ownershipPermission(uint256 tokenId, uint256 unitId, address to, bool valid) external virtual override {\r\n        require(msg.sender == _verificationContract, \"You don't have the permission to give ownership\");\r\n\r\n        _claimPermissions[tokenId][unitId] = to;\r\n\r\n        emit OwnershipPermissionGave(tokenId, unitId, to, valid);\r\n    }\r\n\r\n    function claimOwnership(uint256 tokenId, uint256 unitId, address to) external virtual override {\r\n        require(haveClaimPermission(tokenId, unitId, to), \"The address don't have the permission\");\r\n        require(keccak256(abi.encodePacked(_tokenUnitData[tokenId][unitId].status)) == keccak256(abi.encodePacked(\"sold\")), \"This token can't be claimed\");\r\n\r\n        _tokenUnitData[tokenId][unitId].status = \"owned\";\r\n        _safeUnitTransferFrom(address(this), to, tokenId, unitId, '');\r\n    }\r\n\r\n    function safeUnitTransferFrom(\r\n        address from,\r\n        address to,\r\n        uint256 tokenId,\r\n        uint256 unitId,\r\n        bytes memory data\r\n    ) public virtual override {\r\n        require(\r\n            from == _msgSender() || isApprovedForAll(from, _msgSender()),\r\n            \"ERC1155: caller is not owner nor approved\"\r\n        );\r\n        _safeUnitTransferFrom(from, to, tokenId, unitId, data);\r\n    }\r\n\r\n    function _safeUnitTransferFrom(\r\n        address from,\r\n        address to,\r\n        uint256 tokenId,\r\n        uint256 unitId,\r\n        bytes memory data\r\n    ) internal virtual {\r\n        _tokenUnitData[tokenId][unitId].owner = to;\r\n        _safeTransferFrom(from, to, tokenId, 1, data);\r\n    }\r\n\r\n    function setVerificationContract(address contractAdr) external virtual override {\r\n        require(hasRole(DEFAULT_ADMIN_ROLE, _msgSender()), \"ERC1155PresetMinterPauser: must have minter role to mint\");\r\n        _verificationContract = contractAdr;\r\n    }\r\n\r\n    function unitSold(uint256 tokenId, uint256 unitId) external {\r\n        require(hasRole(MINTER_ROLE, _msgSender()), \"ERC1155PresetMinterPauser: must have minter role to mint\");\r\n        require(_exists(tokenId), \"The token do not exists\");\r\n\r\n        _tokenUnitData[tokenId][unitId].status = \"sold\";\r\n    }\r\n\r\n    function supportsInterface(bytes4 interfaceId) public view virtual override(ERC1155Access, ERC1155Receiver) returns (bool) {\r\n        return super.supportsInterface(interfaceId);\r\n    }\r\n\r\n    function _setTokenURI(uint256 tokenId, string memory _tokenURI) internal virtual {\r\n        _tokenData[tokenId].uri = _tokenURI;\r\n    }\r\n\r\n    function _exists(uint256 tokenId) private view returns (bool) {\r\n        return tokenId < tokensCount;\r\n    }\r\n}\r\n",
  "sourcePath": "C:\\Users\\smlvi\\WebstormProjects\\nfcool-smart-contracts\\contracts\\NFCool.sol",
  "compiler": {
    "name": "solc",
    "version": "0.8.7+commit.e28d00a7.Emscripten.clang"
  },
  "schemaVersion": "3.4.3",
  "updatedAt": "2021-11-20T23:06:01.738Z",
  "devdoc": {
    "kind": "dev",
    "methods": {
      "balanceOf(address,uint256)": {
        "details": "See {IERC1155-balanceOf}. Requirements: - `account` cannot be the zero address."
      },
      "balanceOfBatch(address[],uint256[])": {
        "details": "See {IERC1155-balanceOfBatch}. Requirements: - `accounts` and `ids` must have the same length."
      },
      "getRoleAdmin(bytes32)": {
        "details": "Returns the admin role that controls `role`. See {grantRole} and {revokeRole}. To change a role's admin, use {_setRoleAdmin}."
      },
      "getRoleMember(bytes32,uint256)": {
        "details": "Returns one of the accounts that have `role`. `index` must be a value between 0 and {getRoleMemberCount}, non-inclusive. Role bearers are not sorted in any particular way, and their ordering may change at any point. WARNING: When using {getRoleMember} and {getRoleMemberCount}, make sure you perform all queries on the same block. See the following https://forum.openzeppelin.com/t/iterating-over-elements-on-enumerableset-in-openzeppelin-contracts/2296[forum post] for more information."
      },
      "getRoleMemberCount(bytes32)": {
        "details": "Returns the number of accounts that have `role`. Can be used together with {getRoleMember} to enumerate all bearers of a role."
      },
      "grantRole(bytes32,address)": {
        "details": "Overload {grantRole} to track enumerable memberships"
      },
      "hasRole(bytes32,address)": {
        "details": "Returns `true` if `account` has been granted `role`."
      },
      "isApprovedForAll(address,address)": {
        "details": "See {IERC1155-isApprovedForAll}."
      },
      "renounceRole(bytes32,address)": {
        "details": "Overload {renounceRole} to track enumerable memberships"
      },
      "revokeRole(bytes32,address)": {
        "details": "Overload {revokeRole} to track enumerable memberships"
      },
      "safeBatchTransferFrom(address,address,uint256[],uint256[],bytes)": {
        "details": "See {IERC1155-safeBatchTransferFrom}."
      },
      "safeTransferFrom(address,address,uint256,uint256,bytes)": {
        "details": "See {IERC1155-safeTransferFrom}."
      },
      "setApprovalForAll(address,bool)": {
        "details": "See {IERC1155-setApprovalForAll}."
      },
      "uri(uint256)": {
        "details": "See {IERC1155MetadataURI-uri}. This implementation returns the same URI for *all* token types. It relies on the token type ID substitution mechanism https://eips.ethereum.org/EIPS/eip-1155#metadata[defined in the EIP]. Clients calling this function must replace the `\\{id\\}` substring with the actual token type ID."
      }
    },
    "version": 1
  },
  "userdoc": {
    "kind": "user",
    "methods": {},
    "version": 1
  }
}